{
  "contractName": "FindRequestFactory",
  "abi": [
    {
      "constant": false,
      "inputs": [],
      "name": "renounceOwnership",
      "outputs": [],
      "payable": false,
      "stateMutability": "nonpayable",
      "type": "function"
    },
    {
      "constant": true,
      "inputs": [],
      "name": "owner",
      "outputs": [
        {
          "name": "",
          "type": "address"
        }
      ],
      "payable": false,
      "stateMutability": "view",
      "type": "function"
    },
    {
      "constant": true,
      "inputs": [
        {
          "name": "contractName",
          "type": "string"
        },
        {
          "name": "migrationId",
          "type": "string"
        }
      ],
      "name": "isMigrated",
      "outputs": [
        {
          "name": "",
          "type": "bool"
        }
      ],
      "payable": false,
      "stateMutability": "view",
      "type": "function"
    },
    {
      "constant": false,
      "inputs": [
        {
          "name": "_newOwner",
          "type": "address"
        }
      ],
      "name": "transferOwnership",
      "outputs": [],
      "payable": false,
      "stateMutability": "nonpayable",
      "type": "function"
    },
    {
      "payable": true,
      "stateMutability": "payable",
      "type": "fallback"
    },
    {
      "anonymous": false,
      "inputs": [
        {
          "indexed": false,
          "name": "newAddress",
          "type": "address"
        }
      ],
      "name": "newFindRequestCreated",
      "type": "event"
    },
    {
      "anonymous": false,
      "inputs": [
        {
          "indexed": false,
          "name": "contractName",
          "type": "string"
        },
        {
          "indexed": false,
          "name": "migrationId",
          "type": "string"
        }
      ],
      "name": "Migrated",
      "type": "event"
    },
    {
      "anonymous": false,
      "inputs": [
        {
          "indexed": true,
          "name": "previousOwner",
          "type": "address"
        }
      ],
      "name": "OwnershipRenounced",
      "type": "event"
    },
    {
      "anonymous": false,
      "inputs": [
        {
          "indexed": true,
          "name": "previousOwner",
          "type": "address"
        },
        {
          "indexed": true,
          "name": "newOwner",
          "type": "address"
        }
      ],
      "name": "OwnershipTransferred",
      "type": "event"
    },
    {
      "constant": false,
      "inputs": [],
      "name": "initialize",
      "outputs": [],
      "payable": false,
      "stateMutability": "nonpayable",
      "type": "function"
    },
    {
      "constant": false,
      "inputs": [
        {
          "name": "_owner",
          "type": "address"
        }
      ],
      "name": "initialize",
      "outputs": [],
      "payable": false,
      "stateMutability": "nonpayable",
      "type": "function"
    },
    {
      "constant": false,
      "inputs": [
        {
          "name": "_age",
          "type": "uint8"
        },
        {
          "name": "_location",
          "type": "string"
        },
        {
          "name": "_lostDate",
          "type": "string"
        },
        {
          "name": "_description",
          "type": "string"
        }
      ],
      "name": "createFindRequest",
      "outputs": [],
      "payable": true,
      "stateMutability": "payable",
      "type": "function"
    },
    {
      "constant": false,
      "inputs": [
        {
          "name": "donator",
          "type": "address"
        },
        {
          "name": "beneficiaryA",
          "type": "address"
        },
        {
          "name": "beneficiaryB",
          "type": "address"
        }
      ],
      "name": "distributeBalance",
      "outputs": [],
      "payable": true,
      "stateMutability": "payable",
      "type": "function"
    },
    {
      "constant": true,
      "inputs": [
        {
          "name": "findRequestNumber",
          "type": "uint256"
        }
      ],
      "name": "getFindRequest",
      "outputs": [
        {
          "name": "",
          "type": "address"
        }
      ],
      "payable": false,
      "stateMutability": "view",
      "type": "function"
    },
    {
      "constant": true,
      "inputs": [],
      "name": "getSummary",
      "outputs": [
        {
          "name": "",
          "type": "address"
        },
        {
          "name": "",
          "type": "uint256"
        },
        {
          "name": "",
          "type": "uint256"
        }
      ],
      "payable": false,
      "stateMutability": "view",
      "type": "function"
    },
    {
      "constant": false,
      "inputs": [
        {
          "name": "amount",
          "type": "uint256"
        }
      ],
      "name": "withdraw",
      "outputs": [
        {
          "name": "",
          "type": "bool"
        }
      ],
      "payable": false,
      "stateMutability": "nonpayable",
      "type": "function"
    }
  ],
  "bytecode": "0x6080604052336000806101000a81548173ffffffffffffffffffffffffffffffffffffffff021916908373ffffffffffffffffffffffffffffffffffffffff160217905550614548806100536000396000f300608060405260043610620000bb576000357c0100000000000000000000000000000000000000000000000000000000900463ffffffff1680632e1a7d4d14620000bd5780634051ddac1462000105578063623d7852146200016d57806364c308791462000264578063715018a614620002dc5780638129fc1c14620002f65780638afa0a2d14620003105780638da5cb5b1462000380578063c0bac1a814620003da578063c4d66de814620004a4578063f2fde38b14620004ea575b005b348015620000ca57600080fd5b50620000eb6004803603810190808035906020019092919050505062000530565b604051808215151515815260200191505060405180910390f35b3480156200011257600080fd5b506200011d62000627565b604051808473ffffffffffffffffffffffffffffffffffffffff1673ffffffffffffffffffffffffffffffffffffffff168152602001838152602001828152602001935050505060405180910390f35b62000262600480360381019080803560ff169060200190929190803590602001908201803590602001908080601f0160208091040260200160405190810160405280939291908181526020018383808284378201915050505050509192919290803590602001908201803590602001908080601f0160208091040260200160405190810160405280939291908181526020018383808284378201915050505050509192919290803590602001908201803590602001908080601f016020809104026020016040519081016040528093929190818152602001838380828437820191505050505050919291929050505062000677565b005b620002da600480360381019080803573ffffffffffffffffffffffffffffffffffffffff169060200190929190803573ffffffffffffffffffffffffffffffffffffffff169060200190929190803573ffffffffffffffffffffffffffffffffffffffff16906020019092919050505062000a36565b005b348015620002e957600080fd5b50620002f462000ef4565b005b3480156200030357600080fd5b506200030e62000ff7565b005b3480156200031d57600080fd5b506200033e60048036038101908080359060200190929190505050620013d8565b604051808273ffffffffffffffffffffffffffffffffffffffff1673ffffffffffffffffffffffffffffffffffffffff16815260200191505060405180910390f35b3480156200038d57600080fd5b506200039862001430565b604051808273ffffffffffffffffffffffffffffffffffffffff1673ffffffffffffffffffffffffffffffffffffffff16815260200191505060405180910390f35b348015620003e757600080fd5b506200048a600480360381019080803590602001908201803590602001908080601f0160208091040260200160405190810160405280939291908181526020018383808284378201915050505050509192919290803590602001908201803590602001908080601f016020809104026020016040519081016040528093929190818152602001838380828437820191505050505050919291929050505062001455565b604051808215151515815260200191505060405180910390f35b348015620004b157600080fd5b50620004e8600480360381019080803573ffffffffffffffffffffffffffffffffffffffff16906020019092919050505062001545565b005b348015620004f757600080fd5b506200052e600480360381019080803573ffffffffffffffffffffffffffffffffffffffff169060200190929190505050620019bf565b005b60008060009054906101000a900473ffffffffffffffffffffffffffffffffffffffff1673ffffffffffffffffffffffffffffffffffffffff163373ffffffffffffffffffffffffffffffffffffffff161415156200058e57600080fd5b3073ffffffffffffffffffffffffffffffffffffffff16318211151515620005b557600080fd5b6000809054906101000a900473ffffffffffffffffffffffffffffffffffffffff1673ffffffffffffffffffffffffffffffffffffffff166108fc839081150290604051600060405180830381858888f193505050501580156200061d573d6000803e3d6000fd5b5060019050919050565b60008060008060009054906101000a900473ffffffffffffffffffffffffffffffffffffffff163073ffffffffffffffffffffffffffffffffffffffff1631600280549050925092509250909192565b600060968560ff161015156200068c57600080fd5b620006a884602060405190810160405280600081525062001a29565b151515620006b557600080fd5b620006d183602060405190810160405280600081525062001a29565b151515620006de57600080fd5b620006fa82602060405190810160405280600081525062001a29565b1515156200070757600080fd5b33858585856200071662001da0565b808673ffffffffffffffffffffffffffffffffffffffff1673ffffffffffffffffffffffffffffffffffffffff1681526020018560ff1660ff168152602001806020018060200180602001848103845287818151815260200191508051906020019080838360005b838110156200079b5780820151818401526020810190506200077e565b50505050905090810190601f168015620007c95780820380516001836020036101000a031916815260200191505b50848103835286818151815260200191508051906020019080838360005b8381101562000804578082015181840152602081019050620007e7565b50505050905090810190601f168015620008325780820380516001836020036101000a031916815260200191505b50848103825285818151815260200191508051906020019080838360005b838110156200086d57808201518184015260208101905062000850565b50505050905090810190601f1680156200089b5780820380516001836020036101000a031916815260200191505b5098505050505050505050604051809103906000f080158015620008c3573d6000803e3d6000fd5b50905060028190806001815401808255809150509060018203906000526020600020016000909192909190916101000a81548173ffffffffffffffffffffffffffffffffffffffff021916908373ffffffffffffffffffffffffffffffffffffffff160217905550506001600360008373ffffffffffffffffffffffffffffffffffffffff1673ffffffffffffffffffffffffffffffffffffffff16815260200190815260200160002060006101000a81548160ff0219169083151502179055508073ffffffffffffffffffffffffffffffffffffffff166108fc349081150290604051600060405180830381858888f19350505050158015620009cb573d6000803e3d6000fd5b507f2e81d3c46fc80180393c1d66fc71eac75c94d8618bccdc9b85d0f3c6ce94c9e081604051808273ffffffffffffffffffffffffffffffffffffffff1673ffffffffffffffffffffffffffffffffffffffff16815260200191505060405180910390a15050505050565b60008060008060009054906101000a900473ffffffffffffffffffffffffffffffffffffffff1673ffffffffffffffffffffffffffffffffffffffff163373ffffffffffffffffffffffffffffffffffffffff1614151562000a9757600080fd5b600360008773ffffffffffffffffffffffffffffffffffffffff1673ffffffffffffffffffffffffffffffffffffffff16815260200190815260200160002060009054906101000a900460ff16151562000af057600080fd5b600360008673ffffffffffffffffffffffffffffffffffffffff1673ffffffffffffffffffffffffffffffffffffffff16815260200190815260200160002060009054906101000a900460ff16151562000b4957600080fd5b600360008573ffffffffffffffffffffffffffffffffffffffff1673ffffffffffffffffffffffffffffffffffffffff16815260200190815260200160002060009054906101000a900460ff16151562000ba257600080fd5b8373ffffffffffffffffffffffffffffffffffffffff168573ffffffffffffffffffffffffffffffffffffffff161415151562000bde57600080fd5b85925060048373ffffffffffffffffffffffffffffffffffffffff1663378aa7016040518163ffffffff167c0100000000000000000000000000000000000000000000000000000000028152600401602060405180830381600087803b15801562000c4857600080fd5b505af115801562000c5d573d6000803e3d6000fd5b505050506040513d602081101562000c7457600080fd5b810190808051906020019092919050505060ff1614151562000c9557600080fd5b84915060018273ffffffffffffffffffffffffffffffffffffffff1663378aa7016040518163ffffffff167c0100000000000000000000000000000000000000000000000000000000028152600401602060405180830381600087803b15801562000cff57600080fd5b505af115801562000d14573d6000803e3d6000fd5b505050506040513d602081101562000d2b57600080fd5b810190808051906020019092919050505060ff1614151562000d4c57600080fd5b83905060018173ffffffffffffffffffffffffffffffffffffffff1663378aa7016040518163ffffffff167c0100000000000000000000000000000000000000000000000000000000028152600401602060405180830381600087803b15801562000db657600080fd5b505af115801562000dcb573d6000803e3d6000fd5b505050506040513d602081101562000de257600080fd5b810190808051906020019092919050505060ff1614151562000e0357600080fd5b8273ffffffffffffffffffffffffffffffffffffffff16631ed9532f86866040518363ffffffff167c0100000000000000000000000000000000000000000000000000000000028152600401808373ffffffffffffffffffffffffffffffffffffffff1673ffffffffffffffffffffffffffffffffffffffff1681526020018273ffffffffffffffffffffffffffffffffffffffff1673ffffffffffffffffffffffffffffffffffffffff16815260200192505050600060405180830381600087803b15801562000ed357600080fd5b505af115801562000ee8573d6000803e3d6000fd5b50505050505050505050565b6000809054906101000a900473ffffffffffffffffffffffffffffffffffffffff1673ffffffffffffffffffffffffffffffffffffffff163373ffffffffffffffffffffffffffffffffffffffff1614151562000f5057600080fd5b6000809054906101000a900473ffffffffffffffffffffffffffffffffffffffff1673ffffffffffffffffffffffffffffffffffffffff167ff8df31144d9c2f0f6b59d69b8b98abd5459d07f2742c4df920b25aae33c6482060405160405180910390a260008060006101000a81548173ffffffffffffffffffffffffffffffffffffffff021916908373ffffffffffffffffffffffffffffffffffffffff160217905550565b6040805190810160405280600a81526020017f4d696772617461626c65000000000000000000000000000000000000000000008152506040805190810160405280600581526020017f312e322e31000000000000000000000000000000000000000000000000000000815250620010a4826040805190810160405280600b81526020017f696e697469616c697a656400000000000000000000000000000000000000000081525062001bf9565b620010b0828262001bf9565b7fdd117a11c22118c9dee4b5a67ce578bc44529dce21ee0ccc439588fbb9fb4ea38282604051808060200180602001838103835285818151815260200191508051906020019080838360005b8381101562001119578082015181840152602081019050620010fc565b50505050905090810190601f168015620011475780820380516001836020036101000a031916815260200191505b50838103825284818151815260200191508051906020019080838360005b838110156200118257808201518184015260208101905062001165565b50505050905090810190601f168015620011b05780820380516001836020036101000a031916815260200191505b5094505050505060405180910390a1600180836040518082805190602001908083835b602083101515620011fa5780518252602082019150602081019050602083039250620011d3565b6001836020036101000a0380198251168184511680821785525050505050509050019150509081526020016040518091039020826040518082805190602001908083835b6020831015156200126557805182526020820191506020810190506020830392506200123e565b6001836020036101000a038019825116818451168082178552505050505050905001915050908152602001604051809103902060006101000a81548160ff021916908315150217905550600180836040518082805190602001908083835b602083101515620012ea5780518252602082019150602081019050602083039250620012c3565b6001836020036101000a03801982511681845116808217855250505050505090500191505090815260200160405180910390206040805190810160405280600b81526020017f696e697469616c697a65640000000000000000000000000000000000000000008152506040518082805190602001908083835b6020831015156200138a578051825260208201915060208101905060208303925062001363565b6001836020036101000a038019825116818451168082178552505050505050905001915050908152602001604051809103902060006101000a81548160ff0219169083151502179055505050565b600081600280549050111515620013ee57600080fd5b600282815481101515620013fe57fe5b9060005260206000200160009054906101000a900473ffffffffffffffffffffffffffffffffffffffff169050919050565b6000809054906101000a900473ffffffffffffffffffffffffffffffffffffffff1681565b60006001836040518082805190602001908083835b6020831015156200149157805182526020820191506020810190506020830392506200146a565b6001836020036101000a0380198251168184511680821785525050505050509050019150509081526020016040518091039020826040518082805190602001908083835b602083101515620014fc5780518252602082019150602081019050602083039250620014d5565b6001836020036101000a038019825116818451168082178552505050505050905001915050908152602001604051809103902060009054906101000a900460ff16905092915050565b6040805190810160405280601281526020017f46696e6452657175657374466163746f727900000000000000000000000000008152506040805190810160405280600181526020017f3000000000000000000000000000000000000000000000000000000000000000815250620015f2826040805190810160405280600b81526020017f696e697469616c697a656400000000000000000000000000000000000000000081525062001bf9565b620015fe828262001bf9565b600073ffffffffffffffffffffffffffffffffffffffff166000809054906101000a900473ffffffffffffffffffffffffffffffffffffffff1673ffffffffffffffffffffffffffffffffffffffff1614156200169657826000806101000a81548173ffffffffffffffffffffffffffffffffffffffff021916908373ffffffffffffffffffffffffffffffffffffffff1602179055505b7fdd117a11c22118c9dee4b5a67ce578bc44529dce21ee0ccc439588fbb9fb4ea38282604051808060200180602001838103835285818151815260200191508051906020019080838360005b83811015620016ff578082015181840152602081019050620016e2565b50505050905090810190601f1680156200172d5780820380516001836020036101000a031916815260200191505b50838103825284818151815260200191508051906020019080838360005b83811015620017685780820151818401526020810190506200174b565b50505050905090810190601f168015620017965780820380516001836020036101000a031916815260200191505b5094505050505060405180910390a1600180836040518082805190602001908083835b602083101515620017e05780518252602082019150602081019050602083039250620017b9565b6001836020036101000a0380198251168184511680821785525050505050509050019150509081526020016040518091039020826040518082805190602001908083835b6020831015156200184b578051825260208201915060208101905060208303925062001824565b6001836020036101000a038019825116818451168082178552505050505050905001915050908152602001604051809103902060006101000a81548160ff021916908315150217905550600180836040518082805190602001908083835b602083101515620018d05780518252602082019150602081019050602083039250620018a9565b6001836020036101000a03801982511681845116808217855250505050505090500191505090815260200160405180910390206040805190810160405280600b81526020017f696e697469616c697a65640000000000000000000000000000000000000000008152506040518082805190602001908083835b60208310151562001970578051825260208201915060208101905060208303925062001949565b6001836020036101000a038019825116818451168082178552505050505050905001915050908152602001604051809103902060006101000a81548160ff021916908315150217905550505050565b6000809054906101000a900473ffffffffffffffffffffffffffffffffffffffff1673ffffffffffffffffffffffffffffffffffffffff163373ffffffffffffffffffffffffffffffffffffffff1614151562001a1b57600080fd5b62001a268162001ca5565b50565b60008151835114151562001a41576000905062001bf3565b816040516020018082805190602001908083835b60208310151562001a7c578051825260208201915060208101905060208303925062001a55565b6001836020036101000a0380198251168184511680821785525050505050509050019150506040516020818303038152906040526040518082805190602001908083835b60208310151562001ae7578051825260208201915060208101905060208303925062001ac0565b6001836020036101000a038019825116818451168082178552505050505050905001915050604051809103902060001916836040516020018082805190602001908083835b60208310151562001b53578051825260208201915060208101905060208303925062001b2c565b6001836020036101000a0380198251168184511680821785525050505050509050019150506040516020818303038152906040526040518082805190602001908083835b60208310151562001bbe578051825260208201915060208101905060208303925062001b97565b6001836020036101000a0380198251168184511680821785525050505050509050019150506040518091039020600019161490505b92915050565b62001c05828262001455565b15151562001ca1576040517f08c379a00000000000000000000000000000000000000000000000000000000081526004018080602001828103825260328152602001807f52657175657374656420746172676574206d6967726174696f6e20494420686181526020017f7320616c7265616479206265656e2072756e000000000000000000000000000081525060400191505060405180910390fd5b5050565b600073ffffffffffffffffffffffffffffffffffffffff168173ffffffffffffffffffffffffffffffffffffffff161415151562001ce257600080fd5b8073ffffffffffffffffffffffffffffffffffffffff166000809054906101000a900473ffffffffffffffffffffffffffffffffffffffff1673ffffffffffffffffffffffffffffffffffffffff167f8be0079c531659141344cd1fd0a4f28419497f9722a3daafe3b4186f6b6457e060405160405180910390a3806000806101000a81548173ffffffffffffffffffffffffffffffffffffffff021916908373ffffffffffffffffffffffffffffffffffffffff16021790555050565b60405161276b8062001db283390190560060806040526040516200276b3803806200276b8339810180604052810190808051906020019092919080519060200190929190805182019291906020018051820192919060200180518201929190505050336000806101000a81548173ffffffffffffffffffffffffffffffffffffffff021916908373ffffffffffffffffffffffffffffffffffffffff160217905550600073ffffffffffffffffffffffffffffffffffffffff168573ffffffffffffffffffffffffffffffffffffffff1614151515620000cd57600080fd5b60968460ff16101515620000e057600080fd5b6200010b836020604051908101604052806000815250620002af640100000000026401000000009004565b1515156200011857600080fd5b62000143826020604051908101604052806000815250620002af640100000000026401000000009004565b1515156200015057600080fd5b6200017b816020604051908101604052806000815250620002af640100000000026401000000009004565b1515156200018857600080fd5b846000806101000a81548173ffffffffffffffffffffffffffffffffffffffff021916908373ffffffffffffffffffffffffffffffffffffffff16021790555083600060146101000a81548160ff021916908360ff1602179055508260019080519060200190620001fb9291906200047f565b508160029080519060200190620002149291906200047f565b5080600390805190602001906200022d9291906200047f565b5033600460006101000a81548173ffffffffffffffffffffffffffffffffffffffff021916908373ffffffffffffffffffffffffffffffffffffffff160217905550346005819055506001600760006101000a81548160ff021916908360ff1602179055506000600c8190555062030d40600f8190555050505050506200052e565b600081518351141515620002c7576000905062000479565b816040516020018082805190602001908083835b602083101515620003025780518252602082019150602081019050602083039250620002db565b6001836020036101000a0380198251168184511680821785525050505050509050019150506040516020818303038152906040526040518082805190602001908083835b6020831015156200036d578051825260208201915060208101905060208303925062000346565b6001836020036101000a038019825116818451168082178552505050505050905001915050604051809103902060001916836040516020018082805190602001908083835b602083101515620003d95780518252602082019150602081019050602083039250620003b2565b6001836020036101000a0380198251168184511680821785525050505050509050019150506040516020818303038152906040526040518082805190602001908083835b6020831015156200044457805182526020820191506020810190506020830392506200041d565b6001836020036101000a0380198251168184511680821785525050505050509050019150506040518091039020600019161490505b92915050565b828054600181600116156101000203166002900490600052602060002090601f016020900481019282601f10620004c257805160ff1916838001178555620004f3565b82800160010185558215620004f3579182015b82811115620004f2578251825591602001919060010190620004d5565b5b50905062000502919062000506565b5090565b6200052b91905b80821115620005275760008160009055506001016200050d565b5090565b90565b61222d806200053e6000396000f300608060405260043610610127576000357c0100000000000000000000000000000000000000000000000000000000900463ffffffff168062b4f47a14610129578063098e509b146101855780630e5bffcc146101e1578063130f11e3146102385780631ed9532f146102585780632344e4ec146102ae578063378aa7011461038e5780633e5ceede146103bf5780634051ddac146103c95780635056e2831461058e57806353f9580c1461063457806363f4468c1461066a578063693afa741461068a578063715018a614610694578063890a5316146106ab5780638da5cb5b146106b5578063b2d782d81461070c578063b555f37d14610716578063b876b2b314610772578063df1c526f14610802578063f2fde38b1461080c578063f53066811461084f575b005b610183600480360381019080803590602001908201803590602001908080601f0160208091040260200160405190810160405280939291908181526020018383808284378201915050505050509192919290505050610859565b005b6101df600480360381019080803590602001908201803590602001908080601f016020809104026020016040519081016040528093929190818152602001838380828437820191505050505050919291929050505061097b565b005b3480156101ed57600080fd5b506101f6610a3e565b604051808273ffffffffffffffffffffffffffffffffffffffff1673ffffffffffffffffffffffffffffffffffffffff16815260200191505060405180910390f35b61025660048036038101908080359060200190929190505050610a68565b005b6102ac600480360381019080803573ffffffffffffffffffffffffffffffffffffffff169060200190929190803573ffffffffffffffffffffffffffffffffffffffff169060200190929190505050610b3c565b005b3480156102ba57600080fd5b506102d960048036038101908080359060200190929190505050610d73565b60405180806020018481526020018373ffffffffffffffffffffffffffffffffffffffff1673ffffffffffffffffffffffffffffffffffffffff168152602001828103825285818151815260200191508051906020019080838360005b83811015610351578082015181840152602081019050610336565b50505050905090810190601f16801561037e5780820380516001836020036101000a031916815260200191505b5094505050505060405180910390f35b34801561039a57600080fd5b506103a3610ea7565b604051808260ff1660ff16815260200191505060405180910390f35b6103c7610ebe565b005b3480156103d557600080fd5b506103de611037565b604051808b73ffffffffffffffffffffffffffffffffffffffff1673ffffffffffffffffffffffffffffffffffffffff1681526020018a815260200189815260200180602001806020018060200188815260200187815260200186815260200185815260200184810384528b818151815260200191508051906020019080838360005b8381101561047c578082015181840152602081019050610461565b50505050905090810190601f1680156104a95780820380516001836020036101000a031916815260200191505b5084810383528a818151815260200191508051906020019080838360005b838110156104e25780820151818401526020810190506104c7565b50505050905090810190601f16801561050f5780820380516001836020036101000a031916815260200191505b50848103825289818151815260200191508051906020019080838360005b8381101561054857808201518184015260208101905061052d565b50505050905090810190601f1680156105755780820380516001836020036101000a031916815260200191505b509d505050505050505050505050505060405180910390f35b34801561059a57600080fd5b506105b9600480360381019080803590602001909291905050506112a3565b6040518080602001828103825283818151815260200191508051906020019080838360005b838110156105f95780820151818401526020810190506105de565b50505050905090810190601f1680156106265780820380516001836020036101000a031916815260200191505b509250505060405180910390f35b610668600480360381019080803573ffffffffffffffffffffffffffffffffffffffff169060200190929190505050611371565b005b61068860048036038101908080359060200190929190505050611427565b005b610692611589565b005b3480156106a057600080fd5b506106a96116e0565b005b6106b36117e2565b005b3480156106c157600080fd5b506106ca61187c565b604051808273ffffffffffffffffffffffffffffffffffffffff1673ffffffffffffffffffffffffffffffffffffffff16815260200191505060405180910390f35b6107146118a1565b005b610770600480360381019080803590602001908201803590602001908080601f016020809104026020016040519081016040528093929190818152602001838380828437820191505050505050919291929050505061191b565b005b34801561077e57600080fd5b50610787611a97565b6040518080602001828103825283818151815260200191508051906020019080838360005b838110156107c75780820151818401526020810190506107ac565b50505050905090810190601f1680156107f45780820380516001836020036101000a031916815260200191505b509250505060405180910390f35b61080a611b39565b005b34801561081857600080fd5b5061084d600480360381019080803573ffffffffffffffffffffffffffffffffffffffff169060200190929190505050611b3b565b005b610857611ba2565b005b60008060009054906101000a900473ffffffffffffffffffffffffffffffffffffffff1673ffffffffffffffffffffffffffffffffffffffff163373ffffffffffffffffffffffffffffffffffffffff161415156108b657600080fd5b6001600760009054906101000a900460ff1660ff161415156108d757600080fd5b6109036108fc3073ffffffffffffffffffffffffffffffffffffffff1631605a611cb0565b6064611ce8565b90506000600c541115610943576002600760006101000a81548160ff021916908360ff16021790555061093881600c54611ce8565b600681905550610960565b6003600760006101000a81548160ff021916908360ff1602179055505b81600890805190602001906109769291906120a1565b505050565b6000809054906101000a900473ffffffffffffffffffffffffffffffffffffffff1673ffffffffffffffffffffffffffffffffffffffff163373ffffffffffffffffffffffffffffffffffffffff161415156109d657600080fd5b6109f0816020604051908101604052806000815250611cfe565b1515156109fc57600080fd5b6009819080600181540180825580915050906001820390600052602060002001600090919290919091509080519060200190610a399291906120a1565b505050565b6000600460009054906101000a900473ffffffffffffffffffffffffffffffffffffffff16905090565b60008060009054906101000a900473ffffffffffffffffffffffffffffffffffffffff1673ffffffffffffffffffffffffffffffffffffffff163373ffffffffffffffffffffffffffffffffffffffff16141515610ac557600080fd5b81600e80549050111515610ad857600080fd5b600e82815481101515610ae757fe5b9060005260206000209060020201905060018160010160009054906101000a900460ff1660ff16141515610b1a57600080fd5b60038160010160006101000a81548160ff021916908360ff1602179055505050565b6000803373ffffffffffffffffffffffffffffffffffffffff16600460009054906101000a900473ffffffffffffffffffffffffffffffffffffffff1673ffffffffffffffffffffffffffffffffffffffff16141515610b9b57600080fd5b6004600760009054906101000a900460ff1660ff16141515610bbc57600080fd5b600073ffffffffffffffffffffffffffffffffffffffff168473ffffffffffffffffffffffffffffffffffffffff1614151515610bf857600080fd5b600073ffffffffffffffffffffffffffffffffffffffff168373ffffffffffffffffffffffffffffffffffffffff1614151515610c3457600080fd5b8273ffffffffffffffffffffffffffffffffffffffff168473ffffffffffffffffffffffffffffffffffffffff1614151515610c6f57600080fd5b600f543073ffffffffffffffffffffffffffffffffffffffff16311115610d5157610cb33073ffffffffffffffffffffffffffffffffffffffff1631600f54611ec4565b9150610cc0826002611ce8565b90508373ffffffffffffffffffffffffffffffffffffffff166108fc829081150290604051600060405180830381858888f19350505050158015610d08573d6000803e3d6000fd5b508273ffffffffffffffffffffffffffffffffffffffff166108fc829081150290604051600060405180830381858888f19350505050158015610d4f573d6000803e3d6000fd5b505b6005600760006101000a81548160ff021916908360ff16021790555050505050565b60606000806000610d82611edd565b1515610d8d57600080fd5b84600e80549050111515610da057600080fd5b600e85815481101515610daf57fe5b90600052602060002090600202019050806000018160010160009054906101000a900460ff1660ff168260010160019054906101000a900473ffffffffffffffffffffffffffffffffffffffff16828054600181600116156101000203166002900480601f016020809104026020016040519081016040528092919081815260200182805460018160011615610100020316600290048015610e925780601f10610e6757610100808354040283529160200191610e92565b820191906000526020600020905b815481529060010190602001808311610e7557829003601f168201915b50505050509250935093509350509193909250565b6000600760009054906101000a900460ff16905090565b60008060009054906101000a900473ffffffffffffffffffffffffffffffffffffffff1673ffffffffffffffffffffffffffffffffffffffff163373ffffffffffffffffffffffffffffffffffffffff16141515610f1b57600080fd5b6003600760009054906101000a900460ff1660ff16141515610f3c57600080fd5b600090506005543073ffffffffffffffffffffffffffffffffffffffff16311115610f7f57610f78610f71600554605a611cb0565b6064611ce8565b9050610f9a565b3073ffffffffffffffffffffffffffffffffffffffff163190505b600f54811115611018576000809054906101000a900473ffffffffffffffffffffffffffffffffffffffff1673ffffffffffffffffffffffffffffffffffffffff166108fc610feb83600f54611ec4565b9081150290604051600060405180830381858888f19350505050158015611016573d6000803e3d6000fd5b505b6004600760006101000a81548160ff021916908360ff16021790555050565b600080600060608060606000806000806000809054906101000a900473ffffffffffffffffffffffffffffffffffffffff163073ffffffffffffffffffffffffffffffffffffffff1631600060149054906101000a900460ff16600160026003600980549050600e80549050600c54600d548760ff169750868054600181600116156101000203166002900480601f0160208091040260200160405190810160405280929190818152602001828054600181600116156101000203166002900480156111445780601f1061111957610100808354040283529160200191611144565b820191906000526020600020905b81548152906001019060200180831161112757829003601f168201915b50505050509650858054600181600116156101000203166002900480601f0160208091040260200160405190810160405280929190818152602001828054600181600116156101000203166002900480156111e05780601f106111b5576101008083540402835291602001916111e0565b820191906000526020600020905b8154815290600101906020018083116111c357829003601f168201915b50505050509550848054600181600116156101000203166002900480601f01602080910402602001604051908101604052809291908181526020018280546001816001161561010002031660029004801561127c5780601f106112515761010080835404028352916020019161127c565b820191906000526020600020905b81548152906001019060200180831161125f57829003601f168201915b50505050509450995099509950995099509950995099509950995090919293949596979899565b6060816009805490501115156112b857600080fd5b6009828154811015156112c757fe5b906000526020600020018054600181600116156101000203166002900480601f0160208091040260200160405190810160405280929190818152602001828054600181600116156101000203166002900480156113655780601f1061133a57610100808354040283529160200191611365565b820191906000526020600020905b81548152906001019060200180831161134857829003601f168201915b50505050509050919050565b6000809054906101000a900473ffffffffffffffffffffffffffffffffffffffff1673ffffffffffffffffffffffffffffffffffffffff163373ffffffffffffffffffffffffffffffffffffffff161415156113cc57600080fd5b6001600b60008373ffffffffffffffffffffffffffffffffffffffff1673ffffffffffffffffffffffffffffffffffffffff16815260200190815260200160002060006101000a81548160ff02191690831515021790555050565b60008060009054906101000a900473ffffffffffffffffffffffffffffffffffffffff1673ffffffffffffffffffffffffffffffffffffffff163373ffffffffffffffffffffffffffffffffffffffff1614151561148457600080fd5b81600e8054905011151561149757600080fd5b600e828154811015156114a657fe5b9060005260206000209060020201905060018160010160009054906101000a900460ff1660ff161415156114d957600080fd5b60028160010160006101000a81548160ff021916908360ff160217905550600c600081548092919060010191905055506001600a60008360010160019054906101000a900473ffffffffffffffffffffffffffffffffffffffff1673ffffffffffffffffffffffffffffffffffffffff1673ffffffffffffffffffffffffffffffffffffffff16815260200190815260200160002060006101000a81548160ff0219169083151502179055505050565b6002600760009054906101000a900460ff1660ff161415156115aa57600080fd5b600a60003373ffffffffffffffffffffffffffffffffffffffff1673ffffffffffffffffffffffffffffffffffffffff16815260200190815260200160002060009054906101000a900460ff16151561160257600080fd5b3373ffffffffffffffffffffffffffffffffffffffff166108fc6006549081150290604051600060405180830381858888f1935050505015801561164a573d6000803e3d6000fd5b506000600a60003373ffffffffffffffffffffffffffffffffffffffff1673ffffffffffffffffffffffffffffffffffffffff16815260200190815260200160002060006101000a81548160ff021916908315150217905550600d60008154809291906001019190505550600c54600d5414156116de576003600760006101000a81548160ff021916908360ff1602179055505b565b6000809054906101000a900473ffffffffffffffffffffffffffffffffffffffff1673ffffffffffffffffffffffffffffffffffffffff163373ffffffffffffffffffffffffffffffffffffffff1614151561173b57600080fd5b6000809054906101000a900473ffffffffffffffffffffffffffffffffffffffff1673ffffffffffffffffffffffffffffffffffffffff167ff8df31144d9c2f0f6b59d69b8b98abd5459d07f2742c4df920b25aae33c6482060405160405180910390a260008060006101000a81548173ffffffffffffffffffffffffffffffffffffffff021916908373ffffffffffffffffffffffffffffffffffffffff160217905550565b6000809054906101000a900473ffffffffffffffffffffffffffffffffffffffff1673ffffffffffffffffffffffffffffffffffffffff163373ffffffffffffffffffffffffffffffffffffffff1614151561183d57600080fd5b6003600760009054906101000a900460ff1660ff1614151561185e57600080fd5b6004600760006101000a81548160ff021916908360ff160217905550565b6000809054906101000a900473ffffffffffffffffffffffffffffffffffffffff1681565b3373ffffffffffffffffffffffffffffffffffffffff16600460009054906101000a900473ffffffffffffffffffffffffffffffffffffffff1673ffffffffffffffffffffffffffffffffffffffff161415156118fd57600080fd5b6004600760006101000a81548160ff021916908360ff160217905550565b611923612121565b6000809054906101000a900473ffffffffffffffffffffffffffffffffffffffff1673ffffffffffffffffffffffffffffffffffffffff163373ffffffffffffffffffffffffffffffffffffffff161415151561197f57600080fd5b611999826020604051908101604052806000815250611cfe565b1515156119a557600080fd5b606060405190810160405280838152602001600160ff1681526020013373ffffffffffffffffffffffffffffffffffffffff168152509050600e81908060018154018082558091505090600182039060005260206000209060020201600090919290919091506000820151816000019080519060200190611a2792919061215c565b5060208201518160010160006101000a81548160ff021916908360ff16021790555060408201518160010160016101000a81548173ffffffffffffffffffffffffffffffffffffffff021916908373ffffffffffffffffffffffffffffffffffffffff1602179055505050505050565b606060088054600181600116156101000203166002900480601f016020809104026020016040519081016040528092919081815260200182805460018160011615610100020316600290048015611b2f5780601f10611b0457610100808354040283529160200191611b2f565b820191906000526020600020905b815481529060010190602001808311611b1257829003601f168201915b5050505050905090565b565b6000809054906101000a900473ffffffffffffffffffffffffffffffffffffffff1673ffffffffffffffffffffffffffffffffffffffff163373ffffffffffffffffffffffffffffffffffffffff16141515611b9657600080fd5b611b9f81611fa7565b50565b6002600760009054906101000a900460ff1660ff16141515611bc357600080fd5b600a60003373ffffffffffffffffffffffffffffffffffffffff1673ffffffffffffffffffffffffffffffffffffffff16815260200190815260200160002060009054906101000a900460ff161515611c1b57600080fd5b6000600a60003373ffffffffffffffffffffffffffffffffffffffff1673ffffffffffffffffffffffffffffffffffffffff16815260200190815260200160002060006101000a81548160ff021916908315150217905550600d60008154809291906001019190505550600c54600d541415611cae576003600760006101000a81548160ff021916908360ff1602179055505b565b600080831415611cc35760009050611ce2565b8183029050818382811515611cd457fe5b04141515611cde57fe5b8090505b92915050565b60008183811515611cf557fe5b04905092915050565b600081518351141515611d145760009050611ebe565b816040516020018082805190602001908083835b602083101515611d4d5780518252602082019150602081019050602083039250611d28565b6001836020036101000a0380198251168184511680821785525050505050509050019150506040516020818303038152906040526040518082805190602001908083835b602083101515611db65780518252602082019150602081019050602083039250611d91565b6001836020036101000a038019825116818451168082178552505050505050905001915050604051809103902060001916836040516020018082805190602001908083835b602083101515611e205780518252602082019150602081019050602083039250611dfb565b6001836020036101000a0380198251168184511680821785525050505050509050019150506040516020818303038152906040526040518082805190602001908083835b602083101515611e895780518252602082019150602081019050602083039250611e64565b6001836020036101000a0380198251168184511680821785525050505050509050019150506040518091039020600019161490505b92915050565b6000828211151515611ed257fe5b818303905092915050565b60003373ffffffffffffffffffffffffffffffffffffffff166000809054906101000a900473ffffffffffffffffffffffffffffffffffffffff1673ffffffffffffffffffffffffffffffffffffffff161415611f3d5760019050611fa4565b60011515600b60003373ffffffffffffffffffffffffffffffffffffffff1673ffffffffffffffffffffffffffffffffffffffff16815260200190815260200160002060009054906101000a900460ff1615151415611f9f5760019050611fa4565b600090505b90565b600073ffffffffffffffffffffffffffffffffffffffff168173ffffffffffffffffffffffffffffffffffffffff1614151515611fe357600080fd5b8073ffffffffffffffffffffffffffffffffffffffff166000809054906101000a900473ffffffffffffffffffffffffffffffffffffffff1673ffffffffffffffffffffffffffffffffffffffff167f8be0079c531659141344cd1fd0a4f28419497f9722a3daafe3b4186f6b6457e060405160405180910390a3806000806101000a81548173ffffffffffffffffffffffffffffffffffffffff021916908373ffffffffffffffffffffffffffffffffffffffff16021790555050565b828054600181600116156101000203166002900490600052602060002090601f016020900481019282601f106120e257805160ff1916838001178555612110565b82800160010185558215612110579182015b8281111561210f5782518255916020019190600101906120f4565b5b50905061211d91906121dc565b5090565b60606040519081016040528060608152602001600060ff168152602001600073ffffffffffffffffffffffffffffffffffffffff1681525090565b828054600181600116156101000203166002900490600052602060002090601f016020900481019282601f1061219d57805160ff19168380011785556121cb565b828001600101855582156121cb579182015b828111156121ca5782518255916020019190600101906121af565b5b5090506121d891906121dc565b5090565b6121fe91905b808211156121fa5760008160009055506001016121e2565b5090565b905600a165627a7a72305820295eeb109152c1eb93226c0126e2d39ca1ca9052c0f99c2c5b253562377161380029a165627a7a72305820ee95d356278c7de04764e3cc4861ce1343c9687c2ea9445113179254a17f08790029",
  "source": "pragma solidity ^0.4.18;\n\nimport \"zos-lib/contracts/migrations/Migratable.sol\";\nimport \"openzeppelin-solidity/contracts/ownership/Ownable.sol\";\nimport \"openzeppelin-solidity/contracts/math/SafeMath.sol\";\n\ncontract FindRequestFactory is Ownable, Migratable {\n    address[] private deployedFindRequest;\n    mapping(address => bool) private deployedFindRequestMap;\n\n    event newFindRequestCreated(address newAddress);\n\n    function initialize(address _owner) public isInitializer(\"FindRequestFactory\", \"0\")  {\n      if (owner == address(0)){\n        owner = _owner;\n      }\n    }\n\n    function createFindRequest(uint8 _age, string _location, string _lostDate, string _description) public payable {\n        require(_age < 150);\n        require(!compare(_location, \"\"));\n        require(!compare(_lostDate, \"\"));\n        require(!compare(_description, \"\"));\n        // Create new Find Request contract and get deployed address\n        address newFindRequest = new FindRequest(msg.sender, _age, _location, _lostDate, _description);\n\n        // Save new contract address and increment total counter\n        deployedFindRequest.push(newFindRequest);\n        deployedFindRequestMap[newFindRequest] = true;\n\n        // Transfer the created contract the initial amount\n        newFindRequest.transfer(msg.value);\n\n        // Send Find Request Created event\n        emit newFindRequestCreated(newFindRequest);\n    }\n\n    function distributeBalance(address donator, address beneficiaryA, address beneficiaryB) public payable onlyOwner {\n        // Verify that all address are deployed by the factory\n        require(deployedFindRequestMap[donator]);\n        require(deployedFindRequestMap[beneficiaryA]);\n        require(deployedFindRequestMap[beneficiaryB]);\n        require(beneficiaryA != beneficiaryB);\n\n        // Verify state of FindRequest constract \"donator\"\n        FindRequest findRequestFrom = FindRequest(donator);\n        require(findRequestFrom.getCurrentState() == 4); // 4 = close\n\n        // Verify state of FindRequest constract \"A\"\n        FindRequest findRequestA = FindRequest(beneficiaryA);\n        require(findRequestA.getCurrentState() == 1); // 1 = open\n\n        // Verify state of FindRequest constract \"B\"\n        FindRequest findRequestB = FindRequest(beneficiaryB);\n        require(findRequestB.getCurrentState() == 1); // 1 = open\n\n        // Trigger distributeBalance on \"close\" contract\n        findRequestFrom.executeDonationDistrubutionSystem(beneficiaryA, beneficiaryB);\n    }\n\n    function getFindRequest(uint findRequestNumber) public view returns (address) {\n        require(deployedFindRequest.length > findRequestNumber);\n        return deployedFindRequest[findRequestNumber];\n    }\n\n    // Return a summary tuple of relevant variables of the factory contract\n    function getSummary() public view returns (address, uint, uint) {\n        return (\n          owner,\n          address(this).balance,\n          deployedFindRequest.length\n        );\n    }\n\n    // Default function to withdraw balance from factory contract\n    function withdraw(uint amount) public onlyOwner returns(bool) {\n        require(amount <= address(this).balance);\n        owner.transfer(amount);\n        return true;\n    }\n\n    // Default anonymous function allow deposits to the contract\n    function () public payable {\n    }\n\n    // Utility function to compare strings\n    function compare(string a, string b) private pure returns (bool) {\n        if(bytes(a).length != bytes(b).length) {\n            return false;\n        } else {\n            return keccak256(abi.encodePacked(a)) == keccak256(abi.encodePacked(b));\n        }\n    }\n}\n\ncontract FindRequest is Ownable {\n    uint8 private age;\n    string private location;\n    string private lostDate;\n    string private description;\n    address private curator;\n    uint private initialIncentive;\n    uint private incentiveToRedeem;\n    uint8 private findRequestState;\n    string private closingMessage;\n    string[] private knownLocations;\n    mapping(address => bool) private acceptedHintsMap;\n    mapping(address => bool) private allowedHintsWatchers;\n    uint private acceptedHints;\n    uint private acceptedHintsResponses;\n\n    struct Hint {\n        string text;\n        uint8 state;\n        address author;\n    }\n\n    Hint[] private receivedHints;\n    uint minimumTranferCost;\n\n    // Contract States Reference\n    enum FindRequestState {\n      Open, // 1\n      RedeemingIncentives, // 2\n      RedeemingBalances, // 3\n      Close, // 4\n      BalanceDistributed // 5\n    }\n\n    // FindRequest constructor\n    constructor(address _owner, uint8 _age, string _location, string _lostDate, string _description) public payable {\n        require(_owner != address(0));\n        require(_age < 150);\n        require(!compare(_location, \"\"));\n        require(!compare(_lostDate, \"\"));\n        require(!compare(_description, \"\"));\n\n        owner = _owner;\n        age = _age;\n        location = _location;\n        lostDate = _lostDate;\n        description = _description;\n        curator = msg.sender;\n        initialIncentive = msg.value;\n        findRequestState = 1;\n        acceptedHints = 0;\n        minimumTranferCost = 200000;\n    }\n\n    modifier onlyHinter() {\n        _;\n    }\n\n    modifier onlyCurator() {\n        require(curator == msg.sender);\n        _;\n    }\n\n    modifier ownerOrWatcher() {\n        require(_isOwnerOrWatcher());\n        _;\n    }\n\n    function getCurrentState() public view returns(uint8) {\n        return findRequestState;\n    }\n\n    // Return a summary tuple of relevant variables of the factory contract\n    function getSummary() public view returns(address,uint,uint,string,string,string,uint,uint,uint,uint) {\n        return (\n          owner,\n          address(this).balance,\n          age,\n          location,\n          lostDate,\n          description,\n          knownLocations.length,\n          receivedHints.length,\n          acceptedHints,\n          acceptedHintsResponses\n        );\n    }\n\n    function getCurator() public view returns(address) {\n      return curator;\n    }\n\n    function getClosingMessage() public view returns (string) {\n        return closingMessage;\n    }\n\n    function addKnownLocation(string _location) public payable onlyOwner {\n        require(!compare(_location, \"\"));\n        knownLocations.push(_location);\n    }\n\n    function getKnownLocations(uint knownLocationNumber) public view returns(string) {\n        require(knownLocations.length > knownLocationNumber);\n        return knownLocations[knownLocationNumber];\n    }\n\n    function submitHint(string _text) public payable {\n        require(msg.sender != owner);\n        require(!compare(_text, \"\"));\n\n        Hint memory newHint = Hint(_text, 1, msg.sender);\n        receivedHints.push(newHint);\n    }\n\n    function acceptHint(uint _hintNumber) public onlyOwner payable {\n        require(receivedHints.length > _hintNumber);\n        Hint storage _hint = receivedHints[_hintNumber];\n\n        // Validates hint is not in a final state\n        require(_hint.state == 1);\n        _hint.state = 2; // Accepted\n\n        // Register accepted address and increment counter\n        acceptedHints++;\n        acceptedHintsMap[_hint.author] = true;\n    }\n\n    function getHint(uint _hintNumber) public view ownerOrWatcher returns(string,uint,address) {\n        require(receivedHints.length > _hintNumber);\n        Hint storage selectedHint = receivedHints[_hintNumber];\n        return (\n          selectedHint.text,\n          uint(selectedHint.state),\n          selectedHint.author\n        );\n    }\n\n    function rejectHint(uint _hintNumber) public onlyOwner payable {\n        require(receivedHints.length > _hintNumber);\n        Hint storage _hint = receivedHints[_hintNumber];\n\n        // Validates hint is not in a final state\n        require(_hint.state == 1);\n        _hint.state = 3; // Rejected\n    }\n\n    function closeFinding(string finalText) public payable onlyOwner {\n        require(findRequestState == 1); // 1 = Open\n\n        // TODO Pay gas cost of all Hints received (accepted or not)\n\n        // Calculate max incentive to Redeem (90% of total incentive stored)\n        uint totalIncentiveToRedeem = SafeMath.div(SafeMath.mul(address(this).balance, 90), 100);\n\n        // Verify that there is any accepted hints\n        if (acceptedHints > 0) {\n            // Change state to RedeemingIncentives (code: 2)\n            findRequestState = 2;\n            incentiveToRedeem = SafeMath.div(totalIncentiveToRedeem, acceptedHints);\n        } else {\n            // Change state to RedeemingBalances (code: 3)\n            findRequestState = 3;\n        }\n\n        // Set the closing message\n        closingMessage = finalText;\n    }\n\n    function redeemIncentive() public payable onlyHinter {\n        require(findRequestState == 2); // 2 = RedimingIncentives\n        require(acceptedHintsMap[msg.sender]);\n\n        // Transfer incentive money to acceptedHints address\n        msg.sender.transfer(incentiveToRedeem);\n\n        // Remove address from acceptedHintsMap and record the response\n        acceptedHintsMap[msg.sender] = false;\n        acceptedHintsResponses++;\n\n        // Check if all accepted hints responses were recorder\n        if (acceptedHintsResponses == acceptedHints) {\n            findRequestState = 3; // 3 = RedimingBalances\n        }\n    }\n\n    function rejectIncentive() public payable onlyHinter {\n        require(findRequestState == 2); // 2 = RedimingIncentives\n        require(acceptedHintsMap[msg.sender]);\n\n        // Remove address from acceptedHintsMap and record the response\n        acceptedHintsMap[msg.sender] = false;\n        acceptedHintsResponses++;\n\n        // Check if all accepted hints responses were recorder\n        if (acceptedHintsResponses == acceptedHints) {\n            findRequestState = 3; // 3 = RedimingBalances\n        }\n    }\n\n    function redeemBalance() public payable onlyOwner {\n        require(findRequestState == 3); // 3 = RedimingBalances\n        uint amountToRedeem = 0;\n\n        // Check if the current balance (initial incentive + donations) is higher than initial incentive\n        if (address(this).balance > initialIncentive) {\n            // AVOID FRAUD VECTOR\n            // Only transfer 90% of the initial incentive\n            amountToRedeem = SafeMath.div(SafeMath.mul(initialIncentive, 90), 100);\n        } else {\n            amountToRedeem = address(this).balance;\n        }\n\n        // Always save this amount fix to make sure all transfers ends correctly\n        if (amountToRedeem > minimumTranferCost) {\n            // Transfer money to owner only if the balance covers the costs\n            owner.transfer(SafeMath.sub(amountToRedeem, minimumTranferCost));\n        }\n\n        // Change state to Closed (code: 4)\n        findRequestState = 4;\n    }\n\n    function rejectBalance() public payable onlyOwner {\n        require(findRequestState == 3); // 3 = RedimingBalances\n\n        // Change state to Closed (code: 4)\n        findRequestState = 4;\n    }\n\n    function cancelFindRequest() public payable onlyCurator {\n        // Change state to Closed (code: 4)\n        findRequestState = 4;\n    }\n\n    // The current balance is gonna be distributed when the contract\n    // get the confirmation that associated sentitive data was errased\n    // from the private chain or server\n    function executeDonationDistrubutionSystem(address beneficiaryA, address beneficiaryB) public payable onlyCurator {\n        require(findRequestState == 4); // 4 = Close\n        require(beneficiaryA != address(0));\n        require(beneficiaryB != address(0));\n        require(beneficiaryA != beneficiaryB);\n\n        // Share balance equaly between 2 other FindRequest\n        if (address(this).balance > minimumTranferCost) {\n\n            // Calculate amount to transfer\n            uint amountToDonate = SafeMath.sub(address(this).balance, minimumTranferCost);\n            uint amountPerBeneficiary = SafeMath.div(amountToDonate, 2);\n\n            // Make transfer\n            beneficiaryA.transfer(amountPerBeneficiary);\n            beneficiaryB.transfer(amountPerBeneficiary);\n        }\n\n        // Change state to BalanceDistributed (code: 5)\n        findRequestState = 5;\n    }\n\n    // Grant access to watchers\n    function grantAccessToWatchHints(address watcherAddress) public payable onlyOwner {\n        allowedHintsWatchers[watcherAddress] = true;\n    }\n\n    function receiveDonations() public payable {\n    }\n\n    // Default anonymous function allow deposits to the contract\n    function () public payable {\n    }\n\n    // Utility function to compare strings\n    function compare(string a, string b) private pure returns (bool) {\n        if(bytes(a).length != bytes(b).length) {\n            return false;\n        } else {\n            return keccak256(abi.encodePacked(a)) == keccak256(abi.encodePacked(b));\n        }\n    }\n\n    // Utility function to check if the sender is owner or watcher\n    function _isOwnerOrWatcher() private view returns(bool){\n        if (owner == msg.sender) {\n            return true;\n        } else {\n            if (allowedHintsWatchers[msg.sender] == true) {\n                return true;\n            }\n            return false;\n        }\n    }\n}\n",
  "sourcePath": "/home/marto/projects/find-them/on-chain/contracts/FindRequestFactory.sol",
  "compiler": {
    "name": "solc",
    "version": "0.4.24+commit.e67f0147.Emscripten.clang"
  },
  "schemaVersion": "2.0.1",
  "updatedAt": "2018-09-09T05:48:00.959Z"
}