{
  "contractName": "FindRequestFactory",
  "abi": [
    {
      "constant": false,
      "inputs": [],
      "name": "renounceOwnership",
      "outputs": [],
      "payable": false,
      "stateMutability": "nonpayable",
      "type": "function"
    },
    {
      "constant": true,
      "inputs": [],
      "name": "owner",
      "outputs": [
        {
          "name": "",
          "type": "address"
        }
      ],
      "payable": false,
      "stateMutability": "view",
      "type": "function"
    },
    {
      "constant": true,
      "inputs": [
        {
          "name": "contractName",
          "type": "string"
        },
        {
          "name": "migrationId",
          "type": "string"
        }
      ],
      "name": "isMigrated",
      "outputs": [
        {
          "name": "",
          "type": "bool"
        }
      ],
      "payable": false,
      "stateMutability": "view",
      "type": "function"
    },
    {
      "constant": false,
      "inputs": [
        {
          "name": "_newOwner",
          "type": "address"
        }
      ],
      "name": "transferOwnership",
      "outputs": [],
      "payable": false,
      "stateMutability": "nonpayable",
      "type": "function"
    },
    {
      "payable": true,
      "stateMutability": "payable",
      "type": "fallback"
    },
    {
      "anonymous": false,
      "inputs": [
        {
          "indexed": false,
          "name": "newAddress",
          "type": "address"
        }
      ],
      "name": "newFindRequestCreated",
      "type": "event"
    },
    {
      "anonymous": false,
      "inputs": [
        {
          "indexed": false,
          "name": "contractName",
          "type": "string"
        },
        {
          "indexed": false,
          "name": "migrationId",
          "type": "string"
        }
      ],
      "name": "Migrated",
      "type": "event"
    },
    {
      "anonymous": false,
      "inputs": [
        {
          "indexed": true,
          "name": "previousOwner",
          "type": "address"
        }
      ],
      "name": "OwnershipRenounced",
      "type": "event"
    },
    {
      "anonymous": false,
      "inputs": [
        {
          "indexed": true,
          "name": "previousOwner",
          "type": "address"
        },
        {
          "indexed": true,
          "name": "newOwner",
          "type": "address"
        }
      ],
      "name": "OwnershipTransferred",
      "type": "event"
    },
    {
      "constant": false,
      "inputs": [],
      "name": "initialize",
      "outputs": [],
      "payable": false,
      "stateMutability": "nonpayable",
      "type": "function"
    },
    {
      "constant": false,
      "inputs": [
        {
          "name": "_age",
          "type": "uint8"
        },
        {
          "name": "_location",
          "type": "string"
        },
        {
          "name": "_lost_date",
          "type": "string"
        },
        {
          "name": "_description",
          "type": "string"
        }
      ],
      "name": "createFindRequest",
      "outputs": [],
      "payable": true,
      "stateMutability": "payable",
      "type": "function"
    },
    {
      "constant": true,
      "inputs": [
        {
          "name": "findRequestNumber",
          "type": "uint256"
        }
      ],
      "name": "getFindRequest",
      "outputs": [
        {
          "name": "",
          "type": "address"
        }
      ],
      "payable": false,
      "stateMutability": "view",
      "type": "function"
    },
    {
      "constant": true,
      "inputs": [],
      "name": "getSummary",
      "outputs": [
        {
          "name": "",
          "type": "address"
        },
        {
          "name": "",
          "type": "uint256"
        },
        {
          "name": "",
          "type": "uint256"
        }
      ],
      "payable": false,
      "stateMutability": "view",
      "type": "function"
    },
    {
      "constant": false,
      "inputs": [
        {
          "name": "amount",
          "type": "uint256"
        }
      ],
      "name": "withdraw",
      "outputs": [
        {
          "name": "",
          "type": "bool"
        }
      ],
      "payable": false,
      "stateMutability": "nonpayable",
      "type": "function"
    }
  ],
  "bytecode": "0x6080604052336000806101000a81548173ffffffffffffffffffffffffffffffffffffffff021916908373ffffffffffffffffffffffffffffffffffffffff160217905550612ca1806100536000396000f300608060405260043610610099576000357c0100000000000000000000000000000000000000000000000000000000900463ffffffff1680632e1a7d4d1461009b5780634051ddac146100e0578063623d785214610145578063715018a61461023a5780638129fc1c146102515780638afa0a2d146102685780638da5cb5b146102d5578063c0bac1a81461032c578063f2fde38b146103f3575b005b3480156100a757600080fd5b506100c660048036038101908080359060200190929190505050610436565b604051808215151515815260200191505060405180910390f35b3480156100ec57600080fd5b506100f561052a565b604051808473ffffffffffffffffffffffffffffffffffffffff1673ffffffffffffffffffffffffffffffffffffffff168152602001838152602001828152602001935050505060405180910390f35b610238600480360381019080803560ff169060200190929190803590602001908201803590602001908080601f0160208091040260200160405190810160405280939291908181526020018383808284378201915050505050509192919290803590602001908201803590602001908080601f0160208091040260200160405190810160405280939291908181526020018383808284378201915050505050509192919290803590602001908201803590602001908080601f016020809104026020016040519081016040528093929190818152602001838380828437820191505050505050919291929050505061057a565b005b34801561024657600080fd5b5061024f610846565b005b34801561025d57600080fd5b50610266610948565b005b34801561027457600080fd5b5061029360048036038101908080359060200190929190505050610d17565b604051808273ffffffffffffffffffffffffffffffffffffffff1673ffffffffffffffffffffffffffffffffffffffff16815260200191505060405180910390f35b3480156102e157600080fd5b506102ea610d6d565b604051808273ffffffffffffffffffffffffffffffffffffffff1673ffffffffffffffffffffffffffffffffffffffff16815260200191505060405180910390f35b34801561033857600080fd5b506103d9600480360381019080803590602001908201803590602001908080601f0160208091040260200160405190810160405280939291908181526020018383808284378201915050505050509192919290803590602001908201803590602001908080601f0160208091040260200160405190810160405280939291908181526020018383808284378201915050505050509192919290505050610d92565b604051808215151515815260200191505060405180910390f35b3480156103ff57600080fd5b50610434600480360381019080803573ffffffffffffffffffffffffffffffffffffffff169060200190929190505050610e7e565b005b60008060009054906101000a900473ffffffffffffffffffffffffffffffffffffffff1673ffffffffffffffffffffffffffffffffffffffff163373ffffffffffffffffffffffffffffffffffffffff1614151561049357600080fd5b3073ffffffffffffffffffffffffffffffffffffffff163182111515156104b957600080fd5b6000809054906101000a900473ffffffffffffffffffffffffffffffffffffffff1673ffffffffffffffffffffffffffffffffffffffff166108fc839081150290604051600060405180830381858888f19350505050158015610520573d6000803e3d6000fd5b5060019050919050565b60008060008060009054906101000a900473ffffffffffffffffffffffffffffffffffffffff163073ffffffffffffffffffffffffffffffffffffffff1631600280549050925092509250909192565b60003385858585610589611088565b808673ffffffffffffffffffffffffffffffffffffffff1673ffffffffffffffffffffffffffffffffffffffff1681526020018560ff1660ff168152602001806020018060200180602001848103845287818151815260200191508051906020019080838360005b8381101561060c5780820151818401526020810190506105f1565b50505050905090810190601f1680156106395780820380516001836020036101000a031916815260200191505b50848103835286818151815260200191508051906020019080838360005b83811015610672578082015181840152602081019050610657565b50505050905090810190601f16801561069f5780820380516001836020036101000a031916815260200191505b50848103825285818151815260200191508051906020019080838360005b838110156106d85780820151818401526020810190506106bd565b50505050905090810190601f1680156107055780820380516001836020036101000a031916815260200191505b5098505050505050505050604051809103906000f08015801561072c573d6000803e3d6000fd5b50905060028190806001815401808255809150509060018203906000526020600020016000909192909190916101000a81548173ffffffffffffffffffffffffffffffffffffffff021916908373ffffffffffffffffffffffffffffffffffffffff160217905550508073ffffffffffffffffffffffffffffffffffffffff166108fc349081150290604051600060405180830381858888f193505050501580156107db573d6000803e3d6000fd5b507f2e81d3c46fc80180393c1d66fc71eac75c94d8618bccdc9b85d0f3c6ce94c9e081604051808273ffffffffffffffffffffffffffffffffffffffff1673ffffffffffffffffffffffffffffffffffffffff16815260200191505060405180910390a15050505050565b6000809054906101000a900473ffffffffffffffffffffffffffffffffffffffff1673ffffffffffffffffffffffffffffffffffffffff163373ffffffffffffffffffffffffffffffffffffffff161415156108a157600080fd5b6000809054906101000a900473ffffffffffffffffffffffffffffffffffffffff1673ffffffffffffffffffffffffffffffffffffffff167ff8df31144d9c2f0f6b59d69b8b98abd5459d07f2742c4df920b25aae33c6482060405160405180910390a260008060006101000a81548173ffffffffffffffffffffffffffffffffffffffff021916908373ffffffffffffffffffffffffffffffffffffffff160217905550565b6040805190810160405280601281526020017f46696e6452657175657374466163746f727900000000000000000000000000008152506040805190810160405280600181526020017f30000000000000000000000000000000000000000000000000000000000000008152506109f3826040805190810160405280600b81526020017f696e697469616c697a6564000000000000000000000000000000000000000000815250610ee5565b6109fd8282610ee5565b7fdd117a11c22118c9dee4b5a67ce578bc44529dce21ee0ccc439588fbb9fb4ea38282604051808060200180602001838103835285818151815260200191508051906020019080838360005b83811015610a64578082015181840152602081019050610a49565b50505050905090810190601f168015610a915780820380516001836020036101000a031916815260200191505b50838103825284818151815260200191508051906020019080838360005b83811015610aca578082015181840152602081019050610aaf565b50505050905090810190601f168015610af75780820380516001836020036101000a031916815260200191505b5094505050505060405180910390a1600180836040518082805190602001908083835b602083101515610b3f5780518252602082019150602081019050602083039250610b1a565b6001836020036101000a0380198251168184511680821785525050505050509050019150509081526020016040518091039020826040518082805190602001908083835b602083101515610ba85780518252602082019150602081019050602083039250610b83565b6001836020036101000a038019825116818451168082178552505050505050905001915050908152602001604051809103902060006101000a81548160ff021916908315150217905550600180836040518082805190602001908083835b602083101515610c2b5780518252602082019150602081019050602083039250610c06565b6001836020036101000a03801982511681845116808217855250505050505090500191505090815260200160405180910390206040805190810160405280600b81526020017f696e697469616c697a65640000000000000000000000000000000000000000008152506040518082805190602001908083835b602083101515610cc95780518252602082019150602081019050602083039250610ca4565b6001836020036101000a038019825116818451168082178552505050505050905001915050908152602001604051809103902060006101000a81548160ff0219169083151502179055505050565b600081600280549050111515610d2c57600080fd5b600282815481101515610d3b57fe5b9060005260206000200160009054906101000a900473ffffffffffffffffffffffffffffffffffffffff169050919050565b6000809054906101000a900473ffffffffffffffffffffffffffffffffffffffff1681565b60006001836040518082805190602001908083835b602083101515610dcc5780518252602082019150602081019050602083039250610da7565b6001836020036101000a0380198251168184511680821785525050505050509050019150509081526020016040518091039020826040518082805190602001908083835b602083101515610e355780518252602082019150602081019050602083039250610e10565b6001836020036101000a038019825116818451168082178552505050505050905001915050908152602001604051809103902060009054906101000a900460ff16905092915050565b6000809054906101000a900473ffffffffffffffffffffffffffffffffffffffff1673ffffffffffffffffffffffffffffffffffffffff163373ffffffffffffffffffffffffffffffffffffffff16141515610ed957600080fd5b610ee281610f8e565b50565b610eef8282610d92565b151515610f8a576040517f08c379a00000000000000000000000000000000000000000000000000000000081526004018080602001828103825260328152602001807f52657175657374656420746172676574206d6967726174696f6e20494420686181526020017f7320616c7265616479206265656e2072756e000000000000000000000000000081525060400191505060405180910390fd5b5050565b600073ffffffffffffffffffffffffffffffffffffffff168173ffffffffffffffffffffffffffffffffffffffff1614151515610fca57600080fd5b8073ffffffffffffffffffffffffffffffffffffffff166000809054906101000a900473ffffffffffffffffffffffffffffffffffffffff1673ffffffffffffffffffffffffffffffffffffffff167f8be0079c531659141344cd1fd0a4f28419497f9722a3daafe3b4186f6b6457e060405160405180910390a3806000806101000a81548173ffffffffffffffffffffffffffffffffffffffff021916908373ffffffffffffffffffffffffffffffffffffffff16021790555050565b604051611bdd80611099833901905600608060405260405162001bdd38038062001bdd8339810180604052810190808051906020019092919080519060200190929190805182019291906020018051820192919060200180518201929190505050336000806101000a81548173ffffffffffffffffffffffffffffffffffffffff021916908373ffffffffffffffffffffffffffffffffffffffff160217905550846000806101000a81548173ffffffffffffffffffffffffffffffffffffffff021916908373ffffffffffffffffffffffffffffffffffffffff16021790555083600060146101000a81548160ff021916908360ff160217905550826001908051906020019062000103929190620001ad565b5081600290805190602001906200011c929190620001ad565b50806003908051906020019062000135929190620001ad565b5033600460006101000a81548173ffffffffffffffffffffffffffffffffffffffff021916908373ffffffffffffffffffffffffffffffffffffffff160217905550346005819055506001600760006101000a81548160ff021916908360ff1602179055506000600b8190555050505050506200025c565b828054600181600116156101000203166002900490600052602060002090601f016020900481019282601f10620001f057805160ff191683800117855562000221565b8280016001018555821562000221579182015b828111156200022057825182559160200191906001019062000203565b5b50905062000230919062000234565b5090565b6200025991905b80821115620002555760008160009055506001016200023b565b5090565b90565b611971806200026c6000396000f300608060405260043610610106576000357c0100000000000000000000000000000000000000000000000000000000900463ffffffff168062b4f47a14610108578063098e509b146101645780630e5bffcc146101c0578063130f11e3146102175780632344e4ec14610237578063378aa701146102e45780633e5ceede146103155780634051ddac1461031f5780635056e283146104d657806363f4468c1461057c578063693afa741461059c578063715018a6146105a6578063890a5316146105bd5780638da5cb5b146105c7578063b2d782d81461061e578063b555f37d14610628578063df1c526f14610684578063f2fde38b1461068e578063f5306681146106d1575b005b610162600480360381019080803590602001908201803590602001908080601f01602080910402602001604051908101604052809392919081815260200183838082843782019150505050505091929192905050506106db565b005b6101be600480360381019080803590602001908201803590602001908080601f01602080910402602001604051908101604052809392919081815260200183838082843782019150505050505091929192905050506107fd565b005b3480156101cc57600080fd5b506101d56108c0565b604051808273ffffffffffffffffffffffffffffffffffffffff1673ffffffffffffffffffffffffffffffffffffffff16815260200191505060405180910390f35b610235600480360381019080803590602001909291905050506108ea565b005b34801561024357600080fd5b50610262600480360381019080803590602001909291905050506109be565b6040518080602001838152602001828103825284818151815260200191508051906020019080838360005b838110156102a857808201518184015260208101905061028d565b50505050905090810190601f1680156102d55780820380516001836020036101000a031916815260200191505b50935050505060405180910390f35b3480156102f057600080fd5b506102f9610b0f565b604051808260ff1660ff16815260200191505060405180910390f35b61031d610b26565b005b34801561032b57600080fd5b50610334610ba4565b604051808973ffffffffffffffffffffffffffffffffffffffff1673ffffffffffffffffffffffffffffffffffffffff168152602001888152602001878152602001806020018060200180602001868152602001858152602001848103845289818151815260200191508051906020019080838360005b838110156103c65780820151818401526020810190506103ab565b50505050905090810190601f1680156103f35780820380516001836020036101000a031916815260200191505b50848103835288818151815260200191508051906020019080838360005b8381101561042c578082015181840152602081019050610411565b50505050905090810190601f1680156104595780820380516001836020036101000a031916815260200191505b50848103825287818151815260200191508051906020019080838360005b83811015610492578082015181840152602081019050610477565b50505050905090810190601f1680156104bf5780820380516001836020036101000a031916815260200191505b509b50505050505050505050505060405180910390f35b3480156104e257600080fd5b5061050160048036038101908080359060200190929190505050610e01565b6040518080602001828103825283818151815260200191508051906020019080838360005b83811015610541578082015181840152602081019050610526565b50505050905090810190601f16801561056e5780820380516001836020036101000a031916815260200191505b509250505060405180910390f35b61059a60048036038101908080359060200190929190505050610ecf565b005b6105a461100d565b005b3480156105b257600080fd5b506105bb611164565b005b6105c5611266565b005b3480156105d357600080fd5b506105dc6112e4565b604051808273ffffffffffffffffffffffffffffffffffffffff1673ffffffffffffffffffffffffffffffffffffffff16815260200191505060405180910390f35b610626611309565b005b610682600480360381019080803590602001908201803590602001908080601f0160208091040260200160405190810160405280939291908181526020018383808284378201915050505050509192919290505050611367565b005b61068c61147f565b005b34801561069a57600080fd5b506106cf600480360381019080803573ffffffffffffffffffffffffffffffffffffffff169060200190929190505050611481565b005b6106d96114e8565b005b60008060009054906101000a900473ffffffffffffffffffffffffffffffffffffffff1673ffffffffffffffffffffffffffffffffffffffff163373ffffffffffffffffffffffffffffffffffffffff1614151561073857600080fd5b6001600760009054906101000a900460ff1660ff1614151561075957600080fd5b61078561077e3073ffffffffffffffffffffffffffffffffffffffff1631605a6115cd565b6064611605565b90506000600b5411156107c5576002600760006101000a81548160ff021916908360ff1602179055506107ba81600b54611605565b6006819055506107e2565b6003600760006101000a81548160ff021916908360ff1602179055505b81600890805190602001906107f8929190611803565b505050565b6000809054906101000a900473ffffffffffffffffffffffffffffffffffffffff1673ffffffffffffffffffffffffffffffffffffffff163373ffffffffffffffffffffffffffffffffffffffff1614151561085857600080fd5b61087281602060405190810160405280600081525061161b565b15151561087e57600080fd5b60098190806001815401808255809150509060018203906000526020600020016000909192909190915090805190602001906108bb929190611803565b505050565b6000600460009054906101000a900473ffffffffffffffffffffffffffffffffffffffff16905090565b60008060009054906101000a900473ffffffffffffffffffffffffffffffffffffffff1673ffffffffffffffffffffffffffffffffffffffff163373ffffffffffffffffffffffffffffffffffffffff1614151561094757600080fd5b81600d8054905011151561095a57600080fd5b600d8281548110151561096957fe5b9060005260206000209060020201905060018160010160009054906101000a900460ff1660ff1614151561099c57600080fd5b60038160010160006101000a81548160ff021916908360ff1602179055505050565b60606000806000809054906101000a900473ffffffffffffffffffffffffffffffffffffffff1673ffffffffffffffffffffffffffffffffffffffff163373ffffffffffffffffffffffffffffffffffffffff16141515610a1e57600080fd5b83600d80549050111515610a3157600080fd5b600d84815481101515610a4057fe5b90600052602060002090600202019050806000018160010160009054906101000a900460ff1660ff16818054600181600116156101000203166002900480601f016020809104026020016040519081016040528092919081815260200182805460018160011615610100020316600290048015610afe5780601f10610ad357610100808354040283529160200191610afe565b820191906000526020600020905b815481529060010190602001808311610ae157829003601f168201915b505050505091509250925050915091565b6000600760009054906101000a900460ff16905090565b6000809054906101000a900473ffffffffffffffffffffffffffffffffffffffff1673ffffffffffffffffffffffffffffffffffffffff163373ffffffffffffffffffffffffffffffffffffffff16141515610b8157600080fd5b6003600760009054906101000a900460ff1660ff16141515610ba257600080fd5b565b600080600060608060606000806000809054906101000a900473ffffffffffffffffffffffffffffffffffffffff163073ffffffffffffffffffffffffffffffffffffffff1631600060149054906101000a900460ff16600160026003600980549050600d805490508560ff169550848054600181600116156101000203166002900480601f016020809104026020016040519081016040528092919081815260200182805460018160011615610100020316600290048015610ca85780601f10610c7d57610100808354040283529160200191610ca8565b820191906000526020600020905b815481529060010190602001808311610c8b57829003601f168201915b50505050509450838054600181600116156101000203166002900480601f016020809104026020016040519081016040528092919081815260200182805460018160011615610100020316600290048015610d445780601f10610d1957610100808354040283529160200191610d44565b820191906000526020600020905b815481529060010190602001808311610d2757829003601f168201915b50505050509350828054600181600116156101000203166002900480601f016020809104026020016040519081016040528092919081815260200182805460018160011615610100020316600290048015610de05780601f10610db557610100808354040283529160200191610de0565b820191906000526020600020905b815481529060010190602001808311610dc357829003601f168201915b50505050509250975097509750975097509750975097509091929394959697565b606081600980549050111515610e1657600080fd5b600982815481101515610e2557fe5b906000526020600020018054600181600116156101000203166002900480601f016020809104026020016040519081016040528092919081815260200182805460018160011615610100020316600290048015610ec35780601f10610e9857610100808354040283529160200191610ec3565b820191906000526020600020905b815481529060010190602001808311610ea657829003601f168201915b50505050509050919050565b60008060009054906101000a900473ffffffffffffffffffffffffffffffffffffffff1673ffffffffffffffffffffffffffffffffffffffff163373ffffffffffffffffffffffffffffffffffffffff16141515610f2c57600080fd5b81600d80549050111515610f3f57600080fd5b600d82815481101515610f4e57fe5b9060005260206000209060020201905060018160010160009054906101000a900460ff1660ff16141515610f8157600080fd5b60028160010160006101000a81548160ff021916908360ff160217905550600b600081548092919060010191905055506001600a60003373ffffffffffffffffffffffffffffffffffffffff1673ffffffffffffffffffffffffffffffffffffffff16815260200190815260200160002060006101000a81548160ff0219169083151502179055505050565b6002600760009054906101000a900460ff1660ff1614151561102e57600080fd5b600a60003373ffffffffffffffffffffffffffffffffffffffff1673ffffffffffffffffffffffffffffffffffffffff16815260200190815260200160002060009054906101000a900460ff16151561108657600080fd5b3373ffffffffffffffffffffffffffffffffffffffff166108fc6006549081150290604051600060405180830381858888f193505050501580156110ce573d6000803e3d6000fd5b506000600a60003373ffffffffffffffffffffffffffffffffffffffff1673ffffffffffffffffffffffffffffffffffffffff16815260200190815260200160002060006101000a81548160ff021916908315150217905550600c60008154809291906001019190505550600b54600c541415611162576003600760006101000a81548160ff021916908360ff1602179055505b565b6000809054906101000a900473ffffffffffffffffffffffffffffffffffffffff1673ffffffffffffffffffffffffffffffffffffffff163373ffffffffffffffffffffffffffffffffffffffff161415156111bf57600080fd5b6000809054906101000a900473ffffffffffffffffffffffffffffffffffffffff1673ffffffffffffffffffffffffffffffffffffffff167ff8df31144d9c2f0f6b59d69b8b98abd5459d07f2742c4df920b25aae33c6482060405160405180910390a260008060006101000a81548173ffffffffffffffffffffffffffffffffffffffff021916908373ffffffffffffffffffffffffffffffffffffffff160217905550565b6000809054906101000a900473ffffffffffffffffffffffffffffffffffffffff1673ffffffffffffffffffffffffffffffffffffffff163373ffffffffffffffffffffffffffffffffffffffff161415156112c157600080fd5b6003600760009054906101000a900460ff1660ff161415156112e257600080fd5b565b6000809054906101000a900473ffffffffffffffffffffffffffffffffffffffff1681565b3373ffffffffffffffffffffffffffffffffffffffff16600460009054906101000a900473ffffffffffffffffffffffffffffffffffffffff1673ffffffffffffffffffffffffffffffffffffffff1614151561136557600080fd5b565b61136f611883565b6000809054906101000a900473ffffffffffffffffffffffffffffffffffffffff1673ffffffffffffffffffffffffffffffffffffffff163373ffffffffffffffffffffffffffffffffffffffff16141515156113cb57600080fd5b6113e582602060405190810160405280600081525061161b565b1515156113f157600080fd5b6040805190810160405280838152602001600160ff168152509050600d819080600181540180825580915050906001820390600052602060002090600202016000909192909190915060008201518160000190805190602001906114569291906118a0565b5060208201518160010160006101000a81548160ff021916908360ff1602179055505050505050565b565b6000809054906101000a900473ffffffffffffffffffffffffffffffffffffffff1673ffffffffffffffffffffffffffffffffffffffff163373ffffffffffffffffffffffffffffffffffffffff161415156114dc57600080fd5b6114e581611709565b50565b6002600760009054906101000a900460ff1660ff1614151561150957600080fd5b600a60003373ffffffffffffffffffffffffffffffffffffffff1673ffffffffffffffffffffffffffffffffffffffff16815260200190815260200160002060009054906101000a900460ff16151561156157600080fd5b6000600a60003373ffffffffffffffffffffffffffffffffffffffff1673ffffffffffffffffffffffffffffffffffffffff16815260200190815260200160002060006101000a81548160ff021916908315150217905550600c60008154809291906001019190505550565b6000808314156115e057600090506115ff565b81830290508183828115156115f157fe5b041415156115fb57fe5b8090505b92915050565b6000818381151561161257fe5b04905092915050565b6000815183511415156116315760009050611703565b816040518082805190602001908083835b6020831015156116675780518252602082019150602081019050602083039250611642565b6001836020036101000a038019825116818451168082178552505050505050905001915050604051809103902060001916836040518082805190602001908083835b6020831015156116ce57805182526020820191506020810190506020830392506116a9565b6001836020036101000a0380198251168184511680821785525050505050509050019150506040518091039020600019161490505b92915050565b600073ffffffffffffffffffffffffffffffffffffffff168173ffffffffffffffffffffffffffffffffffffffff161415151561174557600080fd5b8073ffffffffffffffffffffffffffffffffffffffff166000809054906101000a900473ffffffffffffffffffffffffffffffffffffffff1673ffffffffffffffffffffffffffffffffffffffff167f8be0079c531659141344cd1fd0a4f28419497f9722a3daafe3b4186f6b6457e060405160405180910390a3806000806101000a81548173ffffffffffffffffffffffffffffffffffffffff021916908373ffffffffffffffffffffffffffffffffffffffff16021790555050565b828054600181600116156101000203166002900490600052602060002090601f016020900481019282601f1061184457805160ff1916838001178555611872565b82800160010185558215611872579182015b82811115611871578251825591602001919060010190611856565b5b50905061187f9190611920565b5090565b604080519081016040528060608152602001600060ff1681525090565b828054600181600116156101000203166002900490600052602060002090601f016020900481019282601f106118e157805160ff191683800117855561190f565b8280016001018555821561190f579182015b8281111561190e5782518255916020019190600101906118f3565b5b50905061191c9190611920565b5090565b61194291905b8082111561193e576000816000905550600101611926565b5090565b905600a165627a7a72305820a2bdf06aadc9002093c025ffc3fcb8eba4fe9e094fb377569d3a071b896249370029a165627a7a72305820c12a76cf3d929ba97a4db57fc2adafc8d9a49cbb1ad619a8777987ffdeab07c80029",
  "source": "pragma solidity ^0.4.18;\n\n// DEV Imports - just to test contract in remix\n// import \"github.com/OpenZeppelin/zeppelin-solidity/contracts/ownership/Ownable.sol\";\n// import \"github.com/OpenZeppelin/zeppelin-solidity/contracts/math/SafeMath.sol\";\n// TODO: Fix this import, do not load in remix for some reason\n//import \"https://github.com/zeppelinos/zos/blob/master/packages/lib/contracts/migrations/Migratable.sol\";\n\n\nimport \"zos-lib/contracts/migrations/Migratable.sol\";\nimport \"openzeppelin-solidity/contracts/ownership/Ownable.sol\";\nimport \"openzeppelin-solidity/contracts/math/SafeMath.sol\";\n\n\ncontract FindRequestFactory is Ownable, Migratable {\n    address[] private deployedFindRequest;\n\n    event newFindRequestCreated(address newAddress);\n\n    function initialize() public isInitializer(\"FindRequestFactory\", \"0\")  {\n        // Init some variables here\n    }\n\n    function createFindRequest(uint8 _age, string _location, string _lost_date, string _description) public payable {\n        // TODO > put some requirements for de parameters\n\n        // Create new Find Request contract and get deployed address\n        address newFindRequest = new FindRequest(msg.sender, _age, _location, _lost_date, _description);\n\n        // Save new contract address and increment total counter\n        deployedFindRequest.push(newFindRequest);\n\n        // Transfer the created contract the initial amount\n        newFindRequest.transfer(msg.value);\n\n        // Send Find Request Created event\n        emit newFindRequestCreated(newFindRequest);\n    }\n\n\n    function getFindRequest(uint findRequestNumber) public view returns (address) {\n        require(deployedFindRequest.length > findRequestNumber);\n        return deployedFindRequest[findRequestNumber];\n    }\n\n    // Return a summary tuple of relevant variables of the factory contract\n    function getSummary() public view returns (address, uint, uint) {\n        return (\n          owner,\n          this.balance,\n          deployedFindRequest.length\n        );\n    }\n\n    // Default function to withdraw balance from factory contract\n    function withdraw(uint amount) public onlyOwner returns(bool) {\n        require(amount <= address(this).balance);\n        owner.transfer(amount);\n        return true;\n    }\n\n    // Default anonymous function allow deposits to the contract\n    function () public payable {\n    }\n}\n\ncontract FindRequest is Ownable {\n    uint8 private age;\n    string private location;\n    string private lost_date;\n    string private description;\n    address private curator;\n    uint private initialIncentive;\n    uint private incentiveToRedeem;\n    uint8 private findRequestState;\n    string closingMessage;\n\n    string[] private knownLocations;\n    mapping(address => bool) acceptedHintsMap;\n    uint acceptedHints;\n    uint acceptedHintsResponses;\n\n    struct Hint {\n        string text;\n        uint8 state;\n        // TODO Maybe add here a posible location parameters\n    }\n\n    Hint[] private receivedHints;\n\n    // TODO Implement this contract state\n    enum FindRequestState {\n      Open, // 1\n      RedeemingIncentives, // 2\n      RedeemingBalances, // 3\n      Close // 4\n    }\n\n\n\n    // FindRequest constructor\n    constructor(address _owner, uint8 _age, string _location, string _lost_date, string _description) public payable {\n        owner = _owner;\n        age = _age;\n        location = _location;\n        lost_date = _lost_date;\n        description = _description;\n        curator = msg.sender;\n        initialIncentive = msg.value;\n        findRequestState = 1;\n        acceptedHints = 0;\n    }\n\n    modifier onlyHinter() {\n        _;\n    }\n\n    modifier onlyCurator() {\n        require(curator == msg.sender);\n        _;\n    }\n\n    function getCurrentState() public view returns(uint8) {\n        return findRequestState;\n    }\n\n    // Return a summary tuple of relevant variables of the factory contract\n    function getSummary() public view returns(address,uint,uint,string,string,string,uint,uint) {\n        return (\n          owner,\n          this.balance,\n          age,\n          location,\n          lost_date,\n          description,\n          knownLocations.length,\n          receivedHints.length\n        );\n    }\n\n    function getCurator() public view returns(address) {\n      return curator;\n    }\n\n    function addKnownLocation(string location) public payable onlyOwner {\n        require(!compare(location, \"\"));\n        knownLocations.push(location);\n    }\n\n    function getKnownLocations(uint knownLocationNumber) public view returns(string) {\n        require(knownLocations.length > knownLocationNumber);\n        return knownLocations[knownLocationNumber];\n    }\n\n    function submitHint(string _text) public payable {\n        require(msg.sender != owner);\n        require(!compare(_text, \"\"));\n\n        Hint memory newHint = Hint(_text, 1);\n        receivedHints.push(newHint);\n    }\n\n    function acceptHint(uint _hintNumber) public onlyOwner payable {\n        require(receivedHints.length > _hintNumber);\n        Hint storage _hint = receivedHints[_hintNumber];\n\n        // Validates hint is not in a final state\n        require(_hint.state == 1);\n        _hint.state = 2; // Accepted\n\n\n        // Register accepted address and increment counter\n        acceptedHints++;\n        acceptedHintsMap[msg.sender] = true;\n    }\n\n    function getHint(uint _hintNumber) public view onlyOwner returns(string,uint) {\n        // TODO Allow approved address see hints too\n\n        require(receivedHints.length > _hintNumber);\n        Hint storage selectedHint = receivedHints[_hintNumber];\n        return (\n          selectedHint.text,\n          uint(selectedHint.state)\n        );\n    }\n\n    function rejectHint(uint _hintNumber) public onlyOwner payable {\n        require(receivedHints.length > _hintNumber);\n        Hint storage _hint = receivedHints[_hintNumber];\n\n        // Validates hint is not in a final state\n        require(_hint.state == 1);\n        _hint.state = 3; // Rejected\n    }\n\n    function closeFinding(string finalText) public payable onlyOwner {\n        require(findRequestState == 1); // 1 = Open\n\n        // TODO Pay gas cost of all Hints received (accepted or not)\n\n        // Calculate max incentive to Redeem (90% of total incentive stored)\n        uint totalIncentiveToRedeem = SafeMath.div(SafeMath.mul(this.balance, 90), 100);\n\n        // Verify that there is any accepted hints\n        if (acceptedHints > 0) {\n            // Change state to RedeemingIncentives (code: 2)\n            findRequestState = 2;\n            incentiveToRedeem = SafeMath.div(totalIncentiveToRedeem, acceptedHints);\n        } else {\n            // Change state to RedeemingBalances (code: 3)\n            findRequestState = 3;\n        }\n\n        // Set the closing message\n        closingMessage = finalText;\n    }\n\n    function redeemIncentive() public payable onlyHinter {\n        require(findRequestState == 2); // 2 = RedimingIncentives\n        require(acceptedHintsMap[msg.sender]);\n\n        // Transfer incentive money to acceptedHints address\n        msg.sender.transfer(incentiveToRedeem);\n\n        // Remove address from acceptedHintsMap and record the response\n        acceptedHintsMap[msg.sender] = false;\n        acceptedHintsResponses++;\n\n        // Check if all accepted hints responses were recorder\n        if (acceptedHintsResponses == acceptedHints) {\n            findRequestState = 3; // 3 = RedimingBalances\n        }\n    }\n\n    function rejectIncentive() public payable onlyHinter {\n        require(findRequestState == 2); // 2 = RedimingIncentives\n        require(acceptedHintsMap[msg.sender]);\n\n        // Remove address from acceptedHintsMap and record the response\n        acceptedHintsMap[msg.sender] = false;\n        acceptedHintsResponses++;\n    }\n\n    function redeemBalance() public payable onlyOwner {\n        require(findRequestState == 3); // 3 = RedimingBalances\n    }\n\n    function rejectBalance() public payable onlyOwner {\n        require(findRequestState == 3); // 3 = RedimingBalances\n    }\n\n    function cancelFindRequest() public payable onlyCurator {\n\n    }\n\n    // Default function to withdraw balance from factory contract\n    // function withdraw(uint amount) public onlyOwner returns(bool) {\n    //     require(amount <= address(this).balance);\n    //     owner.transfer(amount);\n    //     return true;\n    // }\n\n    function receiveDonations() public payable {\n    }\n\n    // Default anonymous function allow deposits to the contract\n    function () public payable {\n    }\n\n    // Utility function to compare strings\n    function compare(string a, string b) internal returns (bool) {\n        if(bytes(a).length != bytes(b).length) {\n          return false;\n        } else {\n          return keccak256(a) == keccak256(b);\n        }\n    }\n}\n",
  "sourcePath": "/home/marto/projects/find-them/on-chain/contracts/FindRequestFactory.sol",
  "compiler": {
    "name": "solc",
    "version": "0.4.24+commit.e67f0147.Emscripten.clang"
  },
  "schemaVersion": "2.0.1",
  "updatedAt": "2018-09-08T19:53:53.595Z"
}