{
  "contractName": "FindRequest",
  "abi": [
    {
      "constant": false,
      "inputs": [],
      "name": "renounceOwnership",
      "outputs": [],
      "payable": false,
      "stateMutability": "nonpayable",
      "type": "function"
    },
    {
      "constant": true,
      "inputs": [],
      "name": "owner",
      "outputs": [
        {
          "name": "",
          "type": "address"
        }
      ],
      "payable": false,
      "stateMutability": "view",
      "type": "function"
    },
    {
      "constant": false,
      "inputs": [
        {
          "name": "_newOwner",
          "type": "address"
        }
      ],
      "name": "transferOwnership",
      "outputs": [],
      "payable": false,
      "stateMutability": "nonpayable",
      "type": "function"
    },
    {
      "inputs": [
        {
          "name": "_owner",
          "type": "address"
        },
        {
          "name": "_age",
          "type": "uint8"
        },
        {
          "name": "_location",
          "type": "string"
        },
        {
          "name": "_lost_date",
          "type": "string"
        },
        {
          "name": "_description",
          "type": "string"
        }
      ],
      "payable": true,
      "stateMutability": "payable",
      "type": "constructor"
    },
    {
      "payable": true,
      "stateMutability": "payable",
      "type": "fallback"
    },
    {
      "anonymous": false,
      "inputs": [
        {
          "indexed": true,
          "name": "previousOwner",
          "type": "address"
        }
      ],
      "name": "OwnershipRenounced",
      "type": "event"
    },
    {
      "anonymous": false,
      "inputs": [
        {
          "indexed": true,
          "name": "previousOwner",
          "type": "address"
        },
        {
          "indexed": true,
          "name": "newOwner",
          "type": "address"
        }
      ],
      "name": "OwnershipTransferred",
      "type": "event"
    },
    {
      "constant": true,
      "inputs": [],
      "name": "getCurrentState",
      "outputs": [
        {
          "name": "",
          "type": "uint8"
        }
      ],
      "payable": false,
      "stateMutability": "view",
      "type": "function"
    },
    {
      "constant": true,
      "inputs": [],
      "name": "getSummary",
      "outputs": [
        {
          "name": "",
          "type": "address"
        },
        {
          "name": "",
          "type": "uint256"
        },
        {
          "name": "",
          "type": "uint256"
        },
        {
          "name": "",
          "type": "string"
        },
        {
          "name": "",
          "type": "string"
        },
        {
          "name": "",
          "type": "string"
        },
        {
          "name": "",
          "type": "uint256"
        },
        {
          "name": "",
          "type": "uint256"
        }
      ],
      "payable": false,
      "stateMutability": "view",
      "type": "function"
    },
    {
      "constant": true,
      "inputs": [],
      "name": "getCurator",
      "outputs": [
        {
          "name": "",
          "type": "address"
        }
      ],
      "payable": false,
      "stateMutability": "view",
      "type": "function"
    },
    {
      "constant": false,
      "inputs": [
        {
          "name": "location",
          "type": "string"
        }
      ],
      "name": "addKnownLocation",
      "outputs": [],
      "payable": true,
      "stateMutability": "payable",
      "type": "function"
    },
    {
      "constant": true,
      "inputs": [
        {
          "name": "knownLocationNumber",
          "type": "uint256"
        }
      ],
      "name": "getKnownLocations",
      "outputs": [
        {
          "name": "",
          "type": "string"
        }
      ],
      "payable": false,
      "stateMutability": "view",
      "type": "function"
    },
    {
      "constant": false,
      "inputs": [
        {
          "name": "_text",
          "type": "string"
        }
      ],
      "name": "submitHint",
      "outputs": [],
      "payable": true,
      "stateMutability": "payable",
      "type": "function"
    },
    {
      "constant": false,
      "inputs": [
        {
          "name": "_hintNumber",
          "type": "uint256"
        }
      ],
      "name": "acceptHint",
      "outputs": [],
      "payable": true,
      "stateMutability": "payable",
      "type": "function"
    },
    {
      "constant": true,
      "inputs": [
        {
          "name": "_hintNumber",
          "type": "uint256"
        }
      ],
      "name": "getHint",
      "outputs": [
        {
          "name": "",
          "type": "string"
        },
        {
          "name": "",
          "type": "uint256"
        }
      ],
      "payable": false,
      "stateMutability": "view",
      "type": "function"
    },
    {
      "constant": false,
      "inputs": [
        {
          "name": "_hintNumber",
          "type": "uint256"
        }
      ],
      "name": "rejectHint",
      "outputs": [],
      "payable": true,
      "stateMutability": "payable",
      "type": "function"
    },
    {
      "constant": false,
      "inputs": [
        {
          "name": "finalText",
          "type": "string"
        }
      ],
      "name": "closeFinding",
      "outputs": [],
      "payable": true,
      "stateMutability": "payable",
      "type": "function"
    },
    {
      "constant": false,
      "inputs": [],
      "name": "redeemIncentive",
      "outputs": [],
      "payable": true,
      "stateMutability": "payable",
      "type": "function"
    },
    {
      "constant": false,
      "inputs": [],
      "name": "rejectIncentive",
      "outputs": [],
      "payable": true,
      "stateMutability": "payable",
      "type": "function"
    },
    {
      "constant": false,
      "inputs": [],
      "name": "redeemBalance",
      "outputs": [],
      "payable": true,
      "stateMutability": "payable",
      "type": "function"
    },
    {
      "constant": false,
      "inputs": [],
      "name": "rejectBalance",
      "outputs": [],
      "payable": true,
      "stateMutability": "payable",
      "type": "function"
    },
    {
      "constant": false,
      "inputs": [],
      "name": "cancelFindRequest",
      "outputs": [],
      "payable": true,
      "stateMutability": "payable",
      "type": "function"
    },
    {
      "constant": false,
      "inputs": [
        {
          "name": "beneficiaryA",
          "type": "address"
        },
        {
          "name": "beneficiaryB",
          "type": "address"
        }
      ],
      "name": "executeDonationDistrubutionSystem",
      "outputs": [],
      "payable": true,
      "stateMutability": "payable",
      "type": "function"
    },
    {
      "constant": false,
      "inputs": [
        {
          "name": "watcherAddress",
          "type": "address"
        }
      ],
      "name": "grantAccessToWatchHints",
      "outputs": [],
      "payable": true,
      "stateMutability": "payable",
      "type": "function"
    },
    {
      "constant": false,
      "inputs": [],
      "name": "receiveDonations",
      "outputs": [],
      "payable": true,
      "stateMutability": "payable",
      "type": "function"
    }
  ],
  "bytecode": "0x608060405260405162002144380380620021448339810180604052810190808051906020019092919080519060200190929190805182019291906020018051820192919060200180518201929190505050336000806101000a81548173ffffffffffffffffffffffffffffffffffffffff021916908373ffffffffffffffffffffffffffffffffffffffff160217905550846000806101000a81548173ffffffffffffffffffffffffffffffffffffffff021916908373ffffffffffffffffffffffffffffffffffffffff16021790555083600060146101000a81548160ff021916908360ff160217905550826001908051906020019062000103929190620001b7565b5081600290805190602001906200011c929190620001b7565b50806003908051906020019062000135929190620001b7565b5033600460006101000a81548173ffffffffffffffffffffffffffffffffffffffff021916908373ffffffffffffffffffffffffffffffffffffffff160217905550346005819055506001600760006101000a81548160ff021916908360ff1602179055506000600c8190555062030d40600f81905550505050505062000266565b828054600181600116156101000203166002900490600052602060002090601f016020900481019282601f10620001fa57805160ff19168380011785556200022b565b828001600101855582156200022b579182015b828111156200022a5782518255916020019190600101906200020d565b5b5090506200023a91906200023e565b5090565b6200026391905b808211156200025f57600081600090555060010162000245565b5090565b90565b611ece80620002766000396000f30060806040526004361061011c576000357c0100000000000000000000000000000000000000000000000000000000900463ffffffff168062b4f47a1461011e578063098e509b1461017a5780630e5bffcc146101d6578063130f11e31461022d5780631ed9532f1461024d5780632344e4ec146102a3578063378aa701146103505780633e5ceede146103815780634051ddac1461038b5780635056e2831461054257806353f9580c146105e857806363f4468c1461061e578063693afa741461063e578063715018a614610648578063890a53161461065f5780638da5cb5b14610669578063b2d782d8146106c0578063b555f37d146106ca578063df1c526f14610726578063f2fde38b14610730578063f530668114610773575b005b610178600480360381019080803590602001908201803590602001908080601f016020809104026020016040519081016040528093929190818152602001838380828437820191505050505050919291929050505061077d565b005b6101d4600480360381019080803590602001908201803590602001908080601f016020809104026020016040519081016040528093929190818152602001838380828437820191505050505050919291929050505061089f565b005b3480156101e257600080fd5b506101eb610962565b604051808273ffffffffffffffffffffffffffffffffffffffff1673ffffffffffffffffffffffffffffffffffffffff16815260200191505060405180910390f35b61024b6004803603810190808035906020019092919050505061098c565b005b6102a1600480360381019080803573ffffffffffffffffffffffffffffffffffffffff169060200190929190803573ffffffffffffffffffffffffffffffffffffffff169060200190929190505050610a60565b005b3480156102af57600080fd5b506102ce60048036038101908080359060200190929190505050610c97565b6040518080602001838152602001828103825284818151815260200191508051906020019080838360005b838110156103145780820151818401526020810190506102f9565b50505050905090810190601f1680156103415780820380516001836020036101000a031916815260200191505b50935050505060405180910390f35b34801561035c57600080fd5b50610365610da0565b604051808260ff1660ff16815260200191505060405180910390f35b610389610db7565b005b34801561039757600080fd5b506103a0610f30565b604051808973ffffffffffffffffffffffffffffffffffffffff1673ffffffffffffffffffffffffffffffffffffffff168152602001888152602001878152602001806020018060200180602001868152602001858152602001848103845289818151815260200191508051906020019080838360005b83811015610432578082015181840152602081019050610417565b50505050905090810190601f16801561045f5780820380516001836020036101000a031916815260200191505b50848103835288818151815260200191508051906020019080838360005b8381101561049857808201518184015260208101905061047d565b50505050905090810190601f1680156104c55780820380516001836020036101000a031916815260200191505b50848103825287818151815260200191508051906020019080838360005b838110156104fe5780820151818401526020810190506104e3565b50505050905090810190601f16801561052b5780820380516001836020036101000a031916815260200191505b509b50505050505050505050505060405180910390f35b34801561054e57600080fd5b5061056d6004803603810190808035906020019092919050505061118d565b6040518080602001828103825283818151815260200191508051906020019080838360005b838110156105ad578082015181840152602081019050610592565b50505050905090810190601f1680156105da5780820380516001836020036101000a031916815260200191505b509250505060405180910390f35b61061c600480360381019080803573ffffffffffffffffffffffffffffffffffffffff16906020019092919050505061125b565b005b61063c60048036038101908080359060200190929190505050611311565b005b61064661144f565b005b34801561065457600080fd5b5061065d6115a6565b005b6106676116a8565b005b34801561067557600080fd5b5061067e611742565b604051808273ffffffffffffffffffffffffffffffffffffffff1673ffffffffffffffffffffffffffffffffffffffff16815260200191505060405180910390f35b6106c8611767565b005b610724600480360381019080803590602001908201803590602001908080601f01602080910402602001604051908101604052809392919081815260200183838082843782019150505050505091929192905050506117e1565b005b61072e6118f9565b005b34801561073c57600080fd5b50610771600480360381019080803573ffffffffffffffffffffffffffffffffffffffff1690602001909291905050506118fb565b005b61077b611962565b005b60008060009054906101000a900473ffffffffffffffffffffffffffffffffffffffff1673ffffffffffffffffffffffffffffffffffffffff163373ffffffffffffffffffffffffffffffffffffffff161415156107da57600080fd5b6001600760009054906101000a900460ff1660ff161415156107fb57600080fd5b6108276108203073ffffffffffffffffffffffffffffffffffffffff1631605a611a47565b6064611a7f565b90506000600c541115610867576002600760006101000a81548160ff021916908360ff16021790555061085c81600c54611a7f565b600681905550610884565b6003600760006101000a81548160ff021916908360ff1602179055505b816008908051906020019061089a929190611d60565b505050565b6000809054906101000a900473ffffffffffffffffffffffffffffffffffffffff1673ffffffffffffffffffffffffffffffffffffffff163373ffffffffffffffffffffffffffffffffffffffff161415156108fa57600080fd5b610914816020604051908101604052806000815250611a95565b15151561092057600080fd5b600981908060018154018082558091505090600182039060005260206000200160009091929091909150908051906020019061095d929190611d60565b505050565b6000600460009054906101000a900473ffffffffffffffffffffffffffffffffffffffff16905090565b60008060009054906101000a900473ffffffffffffffffffffffffffffffffffffffff1673ffffffffffffffffffffffffffffffffffffffff163373ffffffffffffffffffffffffffffffffffffffff161415156109e957600080fd5b81600e805490501115156109fc57600080fd5b600e82815481101515610a0b57fe5b9060005260206000209060020201905060018160010160009054906101000a900460ff1660ff16141515610a3e57600080fd5b60038160010160006101000a81548160ff021916908360ff1602179055505050565b6000803373ffffffffffffffffffffffffffffffffffffffff16600460009054906101000a900473ffffffffffffffffffffffffffffffffffffffff1673ffffffffffffffffffffffffffffffffffffffff16141515610abf57600080fd5b6004600760009054906101000a900460ff1660ff16141515610ae057600080fd5b600073ffffffffffffffffffffffffffffffffffffffff168473ffffffffffffffffffffffffffffffffffffffff1614151515610b1c57600080fd5b600073ffffffffffffffffffffffffffffffffffffffff168373ffffffffffffffffffffffffffffffffffffffff1614151515610b5857600080fd5b8273ffffffffffffffffffffffffffffffffffffffff168473ffffffffffffffffffffffffffffffffffffffff1614151515610b9357600080fd5b600f543073ffffffffffffffffffffffffffffffffffffffff16311115610c7557610bd73073ffffffffffffffffffffffffffffffffffffffff1631600f54611b83565b9150610be4826002611a7f565b90508373ffffffffffffffffffffffffffffffffffffffff166108fc829081150290604051600060405180830381858888f19350505050158015610c2c573d6000803e3d6000fd5b508273ffffffffffffffffffffffffffffffffffffffff166108fc829081150290604051600060405180830381858888f19350505050158015610c73573d6000803e3d6000fd5b505b6005600760006101000a81548160ff021916908360ff16021790555050505050565b6060600080610ca4611b9c565b1515610caf57600080fd5b83600e80549050111515610cc257600080fd5b600e84815481101515610cd157fe5b90600052602060002090600202019050806000018160010160009054906101000a900460ff1660ff16818054600181600116156101000203166002900480601f016020809104026020016040519081016040528092919081815260200182805460018160011615610100020316600290048015610d8f5780601f10610d6457610100808354040283529160200191610d8f565b820191906000526020600020905b815481529060010190602001808311610d7257829003601f168201915b505050505091509250925050915091565b6000600760009054906101000a900460ff16905090565b60008060009054906101000a900473ffffffffffffffffffffffffffffffffffffffff1673ffffffffffffffffffffffffffffffffffffffff163373ffffffffffffffffffffffffffffffffffffffff16141515610e1457600080fd5b6003600760009054906101000a900460ff1660ff16141515610e3557600080fd5b600090506005543073ffffffffffffffffffffffffffffffffffffffff16311115610e7857610e71610e6a600554605a611a47565b6064611a7f565b9050610e93565b3073ffffffffffffffffffffffffffffffffffffffff163190505b600f54811115610f11576000809054906101000a900473ffffffffffffffffffffffffffffffffffffffff1673ffffffffffffffffffffffffffffffffffffffff166108fc610ee483600f54611b83565b9081150290604051600060405180830381858888f19350505050158015610f0f573d6000803e3d6000fd5b505b6004600760006101000a81548160ff021916908360ff16021790555050565b600080600060608060606000806000809054906101000a900473ffffffffffffffffffffffffffffffffffffffff163073ffffffffffffffffffffffffffffffffffffffff1631600060149054906101000a900460ff16600160026003600980549050600e805490508560ff169550848054600181600116156101000203166002900480601f0160208091040260200160405190810160405280929190818152602001828054600181600116156101000203166002900480156110345780601f1061100957610100808354040283529160200191611034565b820191906000526020600020905b81548152906001019060200180831161101757829003601f168201915b50505050509450838054600181600116156101000203166002900480601f0160208091040260200160405190810160405280929190818152602001828054600181600116156101000203166002900480156110d05780601f106110a5576101008083540402835291602001916110d0565b820191906000526020600020905b8154815290600101906020018083116110b357829003601f168201915b50505050509350828054600181600116156101000203166002900480601f01602080910402602001604051908101604052809291908181526020018280546001816001161561010002031660029004801561116c5780601f106111415761010080835404028352916020019161116c565b820191906000526020600020905b81548152906001019060200180831161114f57829003601f168201915b50505050509250975097509750975097509750975097509091929394959697565b6060816009805490501115156111a257600080fd5b6009828154811015156111b157fe5b906000526020600020018054600181600116156101000203166002900480601f01602080910402602001604051908101604052809291908181526020018280546001816001161561010002031660029004801561124f5780601f106112245761010080835404028352916020019161124f565b820191906000526020600020905b81548152906001019060200180831161123257829003601f168201915b50505050509050919050565b6000809054906101000a900473ffffffffffffffffffffffffffffffffffffffff1673ffffffffffffffffffffffffffffffffffffffff163373ffffffffffffffffffffffffffffffffffffffff161415156112b657600080fd5b6001600b60008373ffffffffffffffffffffffffffffffffffffffff1673ffffffffffffffffffffffffffffffffffffffff16815260200190815260200160002060006101000a81548160ff02191690831515021790555050565b60008060009054906101000a900473ffffffffffffffffffffffffffffffffffffffff1673ffffffffffffffffffffffffffffffffffffffff163373ffffffffffffffffffffffffffffffffffffffff1614151561136e57600080fd5b81600e8054905011151561138157600080fd5b600e8281548110151561139057fe5b9060005260206000209060020201905060018160010160009054906101000a900460ff1660ff161415156113c357600080fd5b60028160010160006101000a81548160ff021916908360ff160217905550600c600081548092919060010191905055506001600a60003373ffffffffffffffffffffffffffffffffffffffff1673ffffffffffffffffffffffffffffffffffffffff16815260200190815260200160002060006101000a81548160ff0219169083151502179055505050565b6002600760009054906101000a900460ff1660ff1614151561147057600080fd5b600a60003373ffffffffffffffffffffffffffffffffffffffff1673ffffffffffffffffffffffffffffffffffffffff16815260200190815260200160002060009054906101000a900460ff1615156114c857600080fd5b3373ffffffffffffffffffffffffffffffffffffffff166108fc6006549081150290604051600060405180830381858888f19350505050158015611510573d6000803e3d6000fd5b506000600a60003373ffffffffffffffffffffffffffffffffffffffff1673ffffffffffffffffffffffffffffffffffffffff16815260200190815260200160002060006101000a81548160ff021916908315150217905550600d60008154809291906001019190505550600c54600d5414156115a4576003600760006101000a81548160ff021916908360ff1602179055505b565b6000809054906101000a900473ffffffffffffffffffffffffffffffffffffffff1673ffffffffffffffffffffffffffffffffffffffff163373ffffffffffffffffffffffffffffffffffffffff1614151561160157600080fd5b6000809054906101000a900473ffffffffffffffffffffffffffffffffffffffff1673ffffffffffffffffffffffffffffffffffffffff167ff8df31144d9c2f0f6b59d69b8b98abd5459d07f2742c4df920b25aae33c6482060405160405180910390a260008060006101000a81548173ffffffffffffffffffffffffffffffffffffffff021916908373ffffffffffffffffffffffffffffffffffffffff160217905550565b6000809054906101000a900473ffffffffffffffffffffffffffffffffffffffff1673ffffffffffffffffffffffffffffffffffffffff163373ffffffffffffffffffffffffffffffffffffffff1614151561170357600080fd5b6003600760009054906101000a900460ff1660ff1614151561172457600080fd5b6004600760006101000a81548160ff021916908360ff160217905550565b6000809054906101000a900473ffffffffffffffffffffffffffffffffffffffff1681565b3373ffffffffffffffffffffffffffffffffffffffff16600460009054906101000a900473ffffffffffffffffffffffffffffffffffffffff1673ffffffffffffffffffffffffffffffffffffffff161415156117c357600080fd5b6004600760006101000a81548160ff021916908360ff160217905550565b6117e9611de0565b6000809054906101000a900473ffffffffffffffffffffffffffffffffffffffff1673ffffffffffffffffffffffffffffffffffffffff163373ffffffffffffffffffffffffffffffffffffffff161415151561184557600080fd5b61185f826020604051908101604052806000815250611a95565b15151561186b57600080fd5b6040805190810160405280838152602001600160ff168152509050600e819080600181540180825580915050906001820390600052602060002090600202016000909192909190915060008201518160000190805190602001906118d0929190611dfd565b5060208201518160010160006101000a81548160ff021916908360ff1602179055505050505050565b565b6000809054906101000a900473ffffffffffffffffffffffffffffffffffffffff1673ffffffffffffffffffffffffffffffffffffffff163373ffffffffffffffffffffffffffffffffffffffff1614151561195657600080fd5b61195f81611c66565b50565b6002600760009054906101000a900460ff1660ff1614151561198357600080fd5b600a60003373ffffffffffffffffffffffffffffffffffffffff1673ffffffffffffffffffffffffffffffffffffffff16815260200190815260200160002060009054906101000a900460ff1615156119db57600080fd5b6000600a60003373ffffffffffffffffffffffffffffffffffffffff1673ffffffffffffffffffffffffffffffffffffffff16815260200190815260200160002060006101000a81548160ff021916908315150217905550600d60008154809291906001019190505550565b600080831415611a5a5760009050611a79565b8183029050818382811515611a6b57fe5b04141515611a7557fe5b8090505b92915050565b60008183811515611a8c57fe5b04905092915050565b600081518351141515611aab5760009050611b7d565b816040518082805190602001908083835b602083101515611ae15780518252602082019150602081019050602083039250611abc565b6001836020036101000a038019825116818451168082178552505050505050905001915050604051809103902060001916836040518082805190602001908083835b602083101515611b485780518252602082019150602081019050602083039250611b23565b6001836020036101000a0380198251168184511680821785525050505050509050019150506040518091039020600019161490505b92915050565b6000828211151515611b9157fe5b818303905092915050565b60003373ffffffffffffffffffffffffffffffffffffffff166000809054906101000a900473ffffffffffffffffffffffffffffffffffffffff1673ffffffffffffffffffffffffffffffffffffffff161415611bfc5760019050611c63565b60011515600b60003373ffffffffffffffffffffffffffffffffffffffff1673ffffffffffffffffffffffffffffffffffffffff16815260200190815260200160002060009054906101000a900460ff1615151415611c5e5760019050611c63565b600090505b90565b600073ffffffffffffffffffffffffffffffffffffffff168173ffffffffffffffffffffffffffffffffffffffff1614151515611ca257600080fd5b8073ffffffffffffffffffffffffffffffffffffffff166000809054906101000a900473ffffffffffffffffffffffffffffffffffffffff1673ffffffffffffffffffffffffffffffffffffffff167f8be0079c531659141344cd1fd0a4f28419497f9722a3daafe3b4186f6b6457e060405160405180910390a3806000806101000a81548173ffffffffffffffffffffffffffffffffffffffff021916908373ffffffffffffffffffffffffffffffffffffffff16021790555050565b828054600181600116156101000203166002900490600052602060002090601f016020900481019282601f10611da157805160ff1916838001178555611dcf565b82800160010185558215611dcf579182015b82811115611dce578251825591602001919060010190611db3565b5b509050611ddc9190611e7d565b5090565b604080519081016040528060608152602001600060ff1681525090565b828054600181600116156101000203166002900490600052602060002090601f016020900481019282601f10611e3e57805160ff1916838001178555611e6c565b82800160010185558215611e6c579182015b82811115611e6b578251825591602001919060010190611e50565b5b509050611e799190611e7d565b5090565b611e9f91905b80821115611e9b576000816000905550600101611e83565b5090565b905600a165627a7a7230582076e88959c421a9c85de8569e8677d828970988554b7e9ff8b016c9174f273dda0029",
  "source": "pragma solidity ^0.4.18;\n\n// DEV Imports - just to test contract in remix\n// import \"github.com/OpenZeppelin/zeppelin-solidity/contracts/ownership/Ownable.sol\";\n// import \"github.com/OpenZeppelin/zeppelin-solidity/contracts/math/SafeMath.sol\";\n// TODO: Fix this import, do not load in remix for some reason\n//import \"https://github.com/zeppelinos/zos/blob/master/packages/lib/contracts/migrations/Migratable.sol\";\n\n\nimport \"zos-lib/contracts/migrations/Migratable.sol\";\nimport \"openzeppelin-solidity/contracts/ownership/Ownable.sol\";\nimport \"openzeppelin-solidity/contracts/math/SafeMath.sol\";\n\n\ncontract FindRequestFactory is Ownable, Migratable {\n    address[] private deployedFindRequest;\n\n    event newFindRequestCreated(address newAddress);\n\n    function initialize() public isInitializer(\"FindRequestFactory\", \"0\")  {\n        // Init some variables here\n    }\n\n    function createFindRequest(uint8 _age, string _location, string _lost_date, string _description) public payable {\n        // TODO > put some requirements for de parameters\n\n        // Create new Find Request contract and get deployed address\n        address newFindRequest = new FindRequest(msg.sender, _age, _location, _lost_date, _description);\n\n        // Save new contract address and increment total counter\n        deployedFindRequest.push(newFindRequest);\n\n        // Transfer the created contract the initial amount\n        newFindRequest.transfer(msg.value);\n\n        // Send Find Request Created event\n        emit newFindRequestCreated(newFindRequest);\n    }\n\n\n    function getFindRequest(uint findRequestNumber) public view returns (address) {\n        require(deployedFindRequest.length > findRequestNumber);\n        return deployedFindRequest[findRequestNumber];\n    }\n\n    // Return a summary tuple of relevant variables of the factory contract\n    function getSummary() public view returns (address, uint, uint) {\n        return (\n          owner,\n          this.balance,\n          deployedFindRequest.length\n        );\n    }\n\n    // Default function to withdraw balance from factory contract\n    function withdraw(uint amount) public onlyOwner returns(bool) {\n        require(amount <= address(this).balance);\n        owner.transfer(amount);\n        return true;\n    }\n\n    // Default anonymous function allow deposits to the contract\n    function () public payable {\n    }\n}\n\ncontract FindRequest is Ownable {\n    uint8 private age;\n    string private location;\n    string private lost_date;\n    string private description;\n    address private curator;\n    uint private initialIncentive;\n    uint private incentiveToRedeem;\n    uint8 private findRequestState;\n    string closingMessage;\n\n    string[] private knownLocations;\n    mapping(address => bool) acceptedHintsMap;\n    mapping(address => bool) allowedHintsWatchers;\n    uint acceptedHints;\n    uint acceptedHintsResponses;\n\n    struct Hint {\n        string text;\n        uint8 state;\n        // TODO Maybe add here a posible location parameters\n    }\n\n    Hint[] private receivedHints;\n    uint minimumTranferCost;\n\n    // TODO Implement this contract state\n    enum FindRequestState {\n      Open, // 1\n      RedeemingIncentives, // 2\n      RedeemingBalances, // 3\n      Close, // 4\n      BalanceDistributed // 5\n    }\n\n    // FindRequest constructor\n    constructor(address _owner, uint8 _age, string _location, string _lost_date, string _description) public payable {\n        owner = _owner;\n        age = _age;\n        location = _location;\n        lost_date = _lost_date;\n        description = _description;\n        curator = msg.sender;\n        initialIncentive = msg.value;\n        findRequestState = 1;\n        acceptedHints = 0;\n        minimumTranferCost = 200000;\n    }\n\n    modifier onlyHinter() {\n        _;\n    }\n\n    modifier onlyCurator() {\n        require(curator == msg.sender);\n        _;\n    }\n\n    modifier ownerOrWatcher() {\n        require(_isOwnerOrWatcher());\n        _;\n    }\n\n    function getCurrentState() public view returns(uint8) {\n        return findRequestState;\n    }\n\n    // Return a summary tuple of relevant variables of the factory contract\n    function getSummary() public view returns(address,uint,uint,string,string,string,uint,uint) {\n        return (\n          owner,\n          this.balance,\n          age,\n          location,\n          lost_date,\n          description,\n          knownLocations.length,\n          receivedHints.length\n        );\n    }\n\n    function getCurator() public view returns(address) {\n      return curator;\n    }\n\n    function addKnownLocation(string location) public payable onlyOwner {\n        require(!compare(location, \"\"));\n        knownLocations.push(location);\n    }\n\n    function getKnownLocations(uint knownLocationNumber) public view returns(string) {\n        require(knownLocations.length > knownLocationNumber);\n        return knownLocations[knownLocationNumber];\n    }\n\n    function submitHint(string _text) public payable {\n        require(msg.sender != owner);\n        require(!compare(_text, \"\"));\n\n        Hint memory newHint = Hint(_text, 1);\n        receivedHints.push(newHint);\n    }\n\n    function acceptHint(uint _hintNumber) public onlyOwner payable {\n        require(receivedHints.length > _hintNumber);\n        Hint storage _hint = receivedHints[_hintNumber];\n\n        // Validates hint is not in a final state\n        require(_hint.state == 1);\n        _hint.state = 2; // Accepted\n\n        // Register accepted address and increment counter\n        acceptedHints++;\n        acceptedHintsMap[msg.sender] = true;\n    }\n\n    function getHint(uint _hintNumber) public view ownerOrWatcher returns(string,uint) {\n        require(receivedHints.length > _hintNumber);\n        Hint storage selectedHint = receivedHints[_hintNumber];\n        return (\n          selectedHint.text,\n          uint(selectedHint.state)\n        );\n    }\n\n    function rejectHint(uint _hintNumber) public onlyOwner payable {\n        require(receivedHints.length > _hintNumber);\n        Hint storage _hint = receivedHints[_hintNumber];\n\n        // Validates hint is not in a final state\n        require(_hint.state == 1);\n        _hint.state = 3; // Rejected\n    }\n\n    function closeFinding(string finalText) public payable onlyOwner {\n        require(findRequestState == 1); // 1 = Open\n\n        // TODO Pay gas cost of all Hints received (accepted or not)\n\n        // Calculate max incentive to Redeem (90% of total incentive stored)\n        uint totalIncentiveToRedeem = SafeMath.div(SafeMath.mul(this.balance, 90), 100);\n\n        // Verify that there is any accepted hints\n        if (acceptedHints > 0) {\n            // Change state to RedeemingIncentives (code: 2)\n            findRequestState = 2;\n            incentiveToRedeem = SafeMath.div(totalIncentiveToRedeem, acceptedHints);\n        } else {\n            // Change state to RedeemingBalances (code: 3)\n            findRequestState = 3;\n        }\n\n        // Set the closing message\n        closingMessage = finalText;\n    }\n\n    function redeemIncentive() public payable onlyHinter {\n        require(findRequestState == 2); // 2 = RedimingIncentives\n        require(acceptedHintsMap[msg.sender]);\n\n        // Transfer incentive money to acceptedHints address\n        msg.sender.transfer(incentiveToRedeem);\n\n        // Remove address from acceptedHintsMap and record the response\n        acceptedHintsMap[msg.sender] = false;\n        acceptedHintsResponses++;\n\n        // Check if all accepted hints responses were recorder\n        if (acceptedHintsResponses == acceptedHints) {\n            findRequestState = 3; // 3 = RedimingBalances\n        }\n    }\n\n    function rejectIncentive() public payable onlyHinter {\n        require(findRequestState == 2); // 2 = RedimingIncentives\n        require(acceptedHintsMap[msg.sender]);\n\n        // Remove address from acceptedHintsMap and record the response\n        acceptedHintsMap[msg.sender] = false;\n        acceptedHintsResponses++;\n    }\n\n    function redeemBalance() public payable onlyOwner {\n        require(findRequestState == 3); // 3 = RedimingBalances\n        uint amountToRedeem = 0;\n\n        // Check if the current balance (initial incentive + donations) is higher than initial incentive\n        if (this.balance > initialIncentive) {\n            // AVOID FRAUD VECTOR\n            // Only transfer 90% of the initial incentive\n            amountToRedeem = SafeMath.div(SafeMath.mul(initialIncentive, 90), 100);\n        } else {\n            amountToRedeem = this.balance;\n        }\n\n        // Always save this amount fix to make sure all transfers ends correctly\n        if (amountToRedeem > minimumTranferCost) {\n            // Transfer money to owner only if the balance covers the costs\n            owner.transfer(SafeMath.sub(amountToRedeem, minimumTranferCost));\n        }\n\n        // Change state to Closed (code: 4)\n        findRequestState = 4;\n    }\n\n    function rejectBalance() public payable onlyOwner {\n        require(findRequestState == 3); // 3 = RedimingBalances\n\n        // Change state to Closed (code: 4)\n        findRequestState = 4;\n    }\n\n    function cancelFindRequest() public payable onlyCurator {\n        // Change state to Closed (code: 4)\n        findRequestState = 4;\n    }\n\n    // The current balance is gonna be distributed when the contract\n    // get the confirmation that associated sentitive data was errased\n    // from the private chain or server\n    function executeDonationDistrubutionSystem(address beneficiaryA, address beneficiaryB) public payable onlyCurator {\n        require(findRequestState == 4); // 4 = Close\n        require(beneficiaryA != address(0));\n        require(beneficiaryB != address(0));\n        require(beneficiaryA != beneficiaryB);\n\n        // Share balance equaly between 2 other FindRequest\n        if (this.balance > minimumTranferCost) {\n\n            // Calculate amount to transfer\n            uint amountToDonate = SafeMath.sub(this.balance, minimumTranferCost);\n            uint amountPerBeneficiary = SafeMath.div(amountToDonate, 2);\n\n            // Make transfer\n            beneficiaryA.transfer(amountPerBeneficiary);\n            beneficiaryB.transfer(amountPerBeneficiary);\n        }\n\n        // Change state to BalanceDistributed (code: 5)\n        findRequestState = 5;\n    }\n\n    // Grant access to watchers\n    function grantAccessToWatchHints(address watcherAddress) public payable onlyOwner {\n        allowedHintsWatchers[watcherAddress] = true;\n    }\n\n    function receiveDonations() public payable {\n    }\n\n    // Default anonymous function allow deposits to the contract\n    function () public payable {\n    }\n\n    // Utility function to compare strings\n    function compare(string a, string b) internal returns (bool) {\n        if(bytes(a).length != bytes(b).length) {\n            return false;\n        } else {\n            return keccak256(a) == keccak256(b);\n        }\n    }\n\n    // Utility function to check if the sender is owner or watcher\n    function _isOwnerOrWatcher() private view returns(bool){\n        if (owner == msg.sender) {\n            return true;\n        } else {\n            if (allowedHintsWatchers[msg.sender] == true) {\n                return true;\n            }\n            return false;\n        }\n    }\n}\n",
  "sourcePath": "/home/marto/projects/find-them/on-chain/contracts/FindRequestFactory.sol",
  "compiler": {
    "name": "solc",
    "version": "0.4.24+commit.e67f0147.Emscripten.clang"
  },
  "schemaVersion": "2.0.1",
  "updatedAt": "2018-09-08T22:51:44.977Z"
}