{
  "contractName": "FindRequest",
  "abi": [
    {
      "constant": false,
      "inputs": [],
      "name": "renounceOwnership",
      "outputs": [],
      "payable": false,
      "stateMutability": "nonpayable",
      "type": "function"
    },
    {
      "constant": true,
      "inputs": [],
      "name": "owner",
      "outputs": [
        {
          "name": "",
          "type": "address"
        }
      ],
      "payable": false,
      "stateMutability": "view",
      "type": "function"
    },
    {
      "constant": false,
      "inputs": [
        {
          "name": "_newOwner",
          "type": "address"
        }
      ],
      "name": "transferOwnership",
      "outputs": [],
      "payable": false,
      "stateMutability": "nonpayable",
      "type": "function"
    },
    {
      "inputs": [
        {
          "name": "_owner",
          "type": "address"
        },
        {
          "name": "_age",
          "type": "uint8"
        },
        {
          "name": "_location",
          "type": "string"
        },
        {
          "name": "_lostDate",
          "type": "string"
        },
        {
          "name": "_description",
          "type": "string"
        }
      ],
      "payable": true,
      "stateMutability": "payable",
      "type": "constructor"
    },
    {
      "payable": true,
      "stateMutability": "payable",
      "type": "fallback"
    },
    {
      "anonymous": false,
      "inputs": [
        {
          "indexed": true,
          "name": "previousOwner",
          "type": "address"
        }
      ],
      "name": "OwnershipRenounced",
      "type": "event"
    },
    {
      "anonymous": false,
      "inputs": [
        {
          "indexed": true,
          "name": "previousOwner",
          "type": "address"
        },
        {
          "indexed": true,
          "name": "newOwner",
          "type": "address"
        }
      ],
      "name": "OwnershipTransferred",
      "type": "event"
    },
    {
      "constant": true,
      "inputs": [],
      "name": "getCurrentState",
      "outputs": [
        {
          "name": "",
          "type": "uint8"
        }
      ],
      "payable": false,
      "stateMutability": "view",
      "type": "function"
    },
    {
      "constant": true,
      "inputs": [],
      "name": "getSummary",
      "outputs": [
        {
          "name": "",
          "type": "address"
        },
        {
          "name": "",
          "type": "uint256"
        },
        {
          "name": "",
          "type": "uint256"
        },
        {
          "name": "",
          "type": "string"
        },
        {
          "name": "",
          "type": "string"
        },
        {
          "name": "",
          "type": "string"
        },
        {
          "name": "",
          "type": "uint256"
        },
        {
          "name": "",
          "type": "uint256"
        },
        {
          "name": "",
          "type": "uint256"
        },
        {
          "name": "",
          "type": "uint256"
        }
      ],
      "payable": false,
      "stateMutability": "view",
      "type": "function"
    },
    {
      "constant": true,
      "inputs": [],
      "name": "getCurator",
      "outputs": [
        {
          "name": "",
          "type": "address"
        }
      ],
      "payable": false,
      "stateMutability": "view",
      "type": "function"
    },
    {
      "constant": true,
      "inputs": [],
      "name": "getClosingMessage",
      "outputs": [
        {
          "name": "",
          "type": "string"
        }
      ],
      "payable": false,
      "stateMutability": "view",
      "type": "function"
    },
    {
      "constant": false,
      "inputs": [
        {
          "name": "_location",
          "type": "string"
        }
      ],
      "name": "addKnownLocation",
      "outputs": [],
      "payable": true,
      "stateMutability": "payable",
      "type": "function"
    },
    {
      "constant": true,
      "inputs": [
        {
          "name": "knownLocationNumber",
          "type": "uint256"
        }
      ],
      "name": "getKnownLocations",
      "outputs": [
        {
          "name": "",
          "type": "string"
        }
      ],
      "payable": false,
      "stateMutability": "view",
      "type": "function"
    },
    {
      "constant": false,
      "inputs": [
        {
          "name": "_text",
          "type": "string"
        }
      ],
      "name": "submitHint",
      "outputs": [],
      "payable": true,
      "stateMutability": "payable",
      "type": "function"
    },
    {
      "constant": false,
      "inputs": [
        {
          "name": "_hintNumber",
          "type": "uint256"
        }
      ],
      "name": "acceptHint",
      "outputs": [],
      "payable": true,
      "stateMutability": "payable",
      "type": "function"
    },
    {
      "constant": true,
      "inputs": [
        {
          "name": "_hintNumber",
          "type": "uint256"
        }
      ],
      "name": "getHint",
      "outputs": [
        {
          "name": "",
          "type": "string"
        },
        {
          "name": "",
          "type": "uint256"
        },
        {
          "name": "",
          "type": "address"
        }
      ],
      "payable": false,
      "stateMutability": "view",
      "type": "function"
    },
    {
      "constant": false,
      "inputs": [
        {
          "name": "_hintNumber",
          "type": "uint256"
        }
      ],
      "name": "rejectHint",
      "outputs": [],
      "payable": true,
      "stateMutability": "payable",
      "type": "function"
    },
    {
      "constant": false,
      "inputs": [
        {
          "name": "finalText",
          "type": "string"
        }
      ],
      "name": "closeFinding",
      "outputs": [],
      "payable": true,
      "stateMutability": "payable",
      "type": "function"
    },
    {
      "constant": false,
      "inputs": [],
      "name": "redeemIncentive",
      "outputs": [],
      "payable": true,
      "stateMutability": "payable",
      "type": "function"
    },
    {
      "constant": false,
      "inputs": [],
      "name": "rejectIncentive",
      "outputs": [],
      "payable": true,
      "stateMutability": "payable",
      "type": "function"
    },
    {
      "constant": false,
      "inputs": [],
      "name": "redeemBalance",
      "outputs": [],
      "payable": true,
      "stateMutability": "payable",
      "type": "function"
    },
    {
      "constant": false,
      "inputs": [],
      "name": "rejectBalance",
      "outputs": [],
      "payable": true,
      "stateMutability": "payable",
      "type": "function"
    },
    {
      "constant": false,
      "inputs": [],
      "name": "cancelFindRequest",
      "outputs": [],
      "payable": true,
      "stateMutability": "payable",
      "type": "function"
    },
    {
      "constant": false,
      "inputs": [
        {
          "name": "beneficiaryA",
          "type": "address"
        },
        {
          "name": "beneficiaryB",
          "type": "address"
        }
      ],
      "name": "executeDonationDistrubutionSystem",
      "outputs": [],
      "payable": true,
      "stateMutability": "payable",
      "type": "function"
    },
    {
      "constant": false,
      "inputs": [
        {
          "name": "watcherAddress",
          "type": "address"
        }
      ],
      "name": "grantAccessToWatchHints",
      "outputs": [],
      "payable": true,
      "stateMutability": "payable",
      "type": "function"
    },
    {
      "constant": false,
      "inputs": [],
      "name": "receiveDonations",
      "outputs": [],
      "payable": true,
      "stateMutability": "payable",
      "type": "function"
    }
  ],
  "bytecode": "0x608060405260405162002937380380620029378339810180604052810190808051906020019092919080519060200190929190805182019291906020018051820192919060200180518201929190505050336000806101000a81548173ffffffffffffffffffffffffffffffffffffffff021916908373ffffffffffffffffffffffffffffffffffffffff160217905550600073ffffffffffffffffffffffffffffffffffffffff168573ffffffffffffffffffffffffffffffffffffffff1614151515620000cd57600080fd5b60968460ff16101515620000e057600080fd5b6200010b836020604051908101604052806000815250620002af640100000000026401000000009004565b1515156200011857600080fd5b62000143826020604051908101604052806000815250620002af640100000000026401000000009004565b1515156200015057600080fd5b6200017b816020604051908101604052806000815250620002af640100000000026401000000009004565b1515156200018857600080fd5b846000806101000a81548173ffffffffffffffffffffffffffffffffffffffff021916908373ffffffffffffffffffffffffffffffffffffffff16021790555083600060146101000a81548160ff021916908360ff1602179055508260019080519060200190620001fb9291906200047f565b508160029080519060200190620002149291906200047f565b5080600390805190602001906200022d9291906200047f565b5033600460006101000a81548173ffffffffffffffffffffffffffffffffffffffff021916908373ffffffffffffffffffffffffffffffffffffffff160217905550346005819055506001600760006101000a81548160ff021916908360ff1602179055506000600c8190555062030d40600f8190555050505050506200052e565b600081518351141515620002c7576000905062000479565b816040516020018082805190602001908083835b602083101515620003025780518252602082019150602081019050602083039250620002db565b6001836020036101000a0380198251168184511680821785525050505050509050019150506040516020818303038152906040526040518082805190602001908083835b6020831015156200036d578051825260208201915060208101905060208303925062000346565b6001836020036101000a038019825116818451168082178552505050505050905001915050604051809103902060001916836040516020018082805190602001908083835b602083101515620003d95780518252602082019150602081019050602083039250620003b2565b6001836020036101000a0380198251168184511680821785525050505050509050019150506040516020818303038152906040526040518082805190602001908083835b6020831015156200044457805182526020820191506020810190506020830392506200041d565b6001836020036101000a0380198251168184511680821785525050505050509050019150506040518091039020600019161490505b92915050565b828054600181600116156101000203166002900490600052602060002090601f016020900481019282601f10620004c257805160ff1916838001178555620004f3565b82800160010185558215620004f3579182015b82811115620004f2578251825591602001919060010190620004d5565b5b50905062000502919062000506565b5090565b6200052b91905b80821115620005275760008160009055506001016200050d565b5090565b90565b6123f9806200053e6000396000f300608060405260043610610127576000357c0100000000000000000000000000000000000000000000000000000000900463ffffffff168062b4f47a14610129578063098e509b146101855780630e5bffcc146101e1578063130f11e3146102385780631ed9532f146102585780632344e4ec146102ae578063378aa7011461038e5780633e5ceede146103bf5780634051ddac146103c95780635056e2831461058e57806353f9580c1461063457806363f4468c1461066a578063693afa741461068a578063715018a614610694578063890a5316146106ab5780638da5cb5b146106b5578063b2d782d81461070c578063b555f37d14610716578063b876b2b314610772578063df1c526f14610802578063f2fde38b1461080c578063f53066811461084f575b005b610183600480360381019080803590602001908201803590602001908080601f0160208091040260200160405190810160405280939291908181526020018383808284378201915050505050509192919290505050610859565b005b6101df600480360381019080803590602001908201803590602001908080601f016020809104026020016040519081016040528093929190818152602001838380828437820191505050505050919291929050505061097b565b005b3480156101ed57600080fd5b506101f6610a3e565b604051808273ffffffffffffffffffffffffffffffffffffffff1673ffffffffffffffffffffffffffffffffffffffff16815260200191505060405180910390f35b61025660048036038101908080359060200190929190505050610a68565b005b6102ac600480360381019080803573ffffffffffffffffffffffffffffffffffffffff169060200190929190803573ffffffffffffffffffffffffffffffffffffffff169060200190929190505050610b3c565b005b3480156102ba57600080fd5b506102d960048036038101908080359060200190929190505050610edd565b60405180806020018481526020018373ffffffffffffffffffffffffffffffffffffffff1673ffffffffffffffffffffffffffffffffffffffff168152602001828103825285818151815260200191508051906020019080838360005b83811015610351578082015181840152602081019050610336565b50505050905090810190601f16801561037e5780820380516001836020036101000a031916815260200191505b5094505050505060405180910390f35b34801561039a57600080fd5b506103a3611011565b604051808260ff1660ff16815260200191505060405180910390f35b6103c7611028565b005b3480156103d557600080fd5b506103de6111a1565b604051808b73ffffffffffffffffffffffffffffffffffffffff1673ffffffffffffffffffffffffffffffffffffffff1681526020018a815260200189815260200180602001806020018060200188815260200187815260200186815260200185815260200184810384528b818151815260200191508051906020019080838360005b8381101561047c578082015181840152602081019050610461565b50505050905090810190601f1680156104a95780820380516001836020036101000a031916815260200191505b5084810383528a818151815260200191508051906020019080838360005b838110156104e25780820151818401526020810190506104c7565b50505050905090810190601f16801561050f5780820380516001836020036101000a031916815260200191505b50848103825289818151815260200191508051906020019080838360005b8381101561054857808201518184015260208101905061052d565b50505050905090810190601f1680156105755780820380516001836020036101000a031916815260200191505b509d505050505050505050505050505060405180910390f35b34801561059a57600080fd5b506105b96004803603810190808035906020019092919050505061140d565b6040518080602001828103825283818151815260200191508051906020019080838360005b838110156105f95780820151818401526020810190506105de565b50505050905090810190601f1680156106265780820380516001836020036101000a031916815260200191505b509250505060405180910390f35b610668600480360381019080803573ffffffffffffffffffffffffffffffffffffffff1690602001909291905050506114db565b005b61068860048036038101908080359060200190929190505050611591565b005b6106926116f3565b005b3480156106a057600080fd5b506106a961184a565b005b6106b361194c565b005b3480156106c157600080fd5b506106ca6119e6565b604051808273ffffffffffffffffffffffffffffffffffffffff1673ffffffffffffffffffffffffffffffffffffffff16815260200191505060405180910390f35b610714611a0b565b005b610770600480360381019080803590602001908201803590602001908080601f0160208091040260200160405190810160405280939291908181526020018383808284378201915050505050509192919290505050611ae7565b005b34801561077e57600080fd5b50610787611c63565b6040518080602001828103825283818151815260200191508051906020019080838360005b838110156107c75780820151818401526020810190506107ac565b50505050905090810190601f1680156107f45780820380516001836020036101000a031916815260200191505b509250505060405180910390f35b61080a611d05565b005b34801561081857600080fd5b5061084d600480360381019080803573ffffffffffffffffffffffffffffffffffffffff169060200190929190505050611d07565b005b610857611d6e565b005b60008060009054906101000a900473ffffffffffffffffffffffffffffffffffffffff1673ffffffffffffffffffffffffffffffffffffffff163373ffffffffffffffffffffffffffffffffffffffff161415156108b657600080fd5b6001600760009054906101000a900460ff1660ff161415156108d757600080fd5b6109036108fc3073ffffffffffffffffffffffffffffffffffffffff1631605a611e7c565b6064611eb4565b90506000600c541115610943576002600760006101000a81548160ff021916908360ff16021790555061093881600c54611eb4565b600681905550610960565b6003600760006101000a81548160ff021916908360ff1602179055505b816008908051906020019061097692919061226d565b505050565b6000809054906101000a900473ffffffffffffffffffffffffffffffffffffffff1673ffffffffffffffffffffffffffffffffffffffff163373ffffffffffffffffffffffffffffffffffffffff161415156109d657600080fd5b6109f0816020604051908101604052806000815250611eca565b1515156109fc57600080fd5b6009819080600181540180825580915050906001820390600052602060002001600090919290919091509080519060200190610a3992919061226d565b505050565b6000600460009054906101000a900473ffffffffffffffffffffffffffffffffffffffff16905090565b60008060009054906101000a900473ffffffffffffffffffffffffffffffffffffffff1673ffffffffffffffffffffffffffffffffffffffff163373ffffffffffffffffffffffffffffffffffffffff16141515610ac557600080fd5b81600e80549050111515610ad857600080fd5b600e82815481101515610ae757fe5b9060005260206000209060020201905060018160010160009054906101000a900460ff1660ff16141515610b1a57600080fd5b60038160010160006101000a81548160ff021916908360ff1602179055505050565b6000806000806000809054906101000a900473ffffffffffffffffffffffffffffffffffffffff1673ffffffffffffffffffffffffffffffffffffffff163373ffffffffffffffffffffffffffffffffffffffff16141515610b9d57600080fd5b6004600760009054906101000a900460ff1660ff16141515610bbe57600080fd5b600073ffffffffffffffffffffffffffffffffffffffff168673ffffffffffffffffffffffffffffffffffffffff1614151515610bfa57600080fd5b600073ffffffffffffffffffffffffffffffffffffffff168573ffffffffffffffffffffffffffffffffffffffff1614151515610c3657600080fd5b8473ffffffffffffffffffffffffffffffffffffffff168673ffffffffffffffffffffffffffffffffffffffff1614151515610c7157600080fd5b85935060018473ffffffffffffffffffffffffffffffffffffffff1663378aa7016040518163ffffffff167c0100000000000000000000000000000000000000000000000000000000028152600401602060405180830381600087803b158015610cda57600080fd5b505af1158015610cee573d6000803e3d6000fd5b505050506040513d6020811015610d0457600080fd5b810190808051906020019092919050505060ff16141515610d2457600080fd5b84925060018373ffffffffffffffffffffffffffffffffffffffff1663378aa7016040518163ffffffff167c0100000000000000000000000000000000000000000000000000000000028152600401602060405180830381600087803b158015610d8d57600080fd5b505af1158015610da1573d6000803e3d6000fd5b505050506040513d6020811015610db757600080fd5b810190808051906020019092919050505060ff16141515610dd757600080fd5b600f543073ffffffffffffffffffffffffffffffffffffffff16311115610eb957610e1b3073ffffffffffffffffffffffffffffffffffffffff1631600f54612090565b9150610e28826002611eb4565b90508573ffffffffffffffffffffffffffffffffffffffff166108fc829081150290604051600060405180830381858888f19350505050158015610e70573d6000803e3d6000fd5b508473ffffffffffffffffffffffffffffffffffffffff166108fc829081150290604051600060405180830381858888f19350505050158015610eb7573d6000803e3d6000fd5b505b6005600760006101000a81548160ff021916908360ff160217905550505050505050565b60606000806000610eec6120a9565b1515610ef757600080fd5b84600e80549050111515610f0a57600080fd5b600e85815481101515610f1957fe5b90600052602060002090600202019050806000018160010160009054906101000a900460ff1660ff168260010160019054906101000a900473ffffffffffffffffffffffffffffffffffffffff16828054600181600116156101000203166002900480601f016020809104026020016040519081016040528092919081815260200182805460018160011615610100020316600290048015610ffc5780601f10610fd157610100808354040283529160200191610ffc565b820191906000526020600020905b815481529060010190602001808311610fdf57829003601f168201915b50505050509250935093509350509193909250565b6000600760009054906101000a900460ff16905090565b60008060009054906101000a900473ffffffffffffffffffffffffffffffffffffffff1673ffffffffffffffffffffffffffffffffffffffff163373ffffffffffffffffffffffffffffffffffffffff1614151561108557600080fd5b6003600760009054906101000a900460ff1660ff161415156110a657600080fd5b600090506005543073ffffffffffffffffffffffffffffffffffffffff163111156110e9576110e26110db600554605a611e7c565b6064611eb4565b9050611104565b3073ffffffffffffffffffffffffffffffffffffffff163190505b600f54811115611182576000809054906101000a900473ffffffffffffffffffffffffffffffffffffffff1673ffffffffffffffffffffffffffffffffffffffff166108fc61115583600f54612090565b9081150290604051600060405180830381858888f19350505050158015611180573d6000803e3d6000fd5b505b6004600760006101000a81548160ff021916908360ff16021790555050565b600080600060608060606000806000806000809054906101000a900473ffffffffffffffffffffffffffffffffffffffff163073ffffffffffffffffffffffffffffffffffffffff1631600060149054906101000a900460ff16600160026003600980549050600e80549050600c54600d548760ff169750868054600181600116156101000203166002900480601f0160208091040260200160405190810160405280929190818152602001828054600181600116156101000203166002900480156112ae5780601f10611283576101008083540402835291602001916112ae565b820191906000526020600020905b81548152906001019060200180831161129157829003601f168201915b50505050509650858054600181600116156101000203166002900480601f01602080910402602001604051908101604052809291908181526020018280546001816001161561010002031660029004801561134a5780601f1061131f5761010080835404028352916020019161134a565b820191906000526020600020905b81548152906001019060200180831161132d57829003601f168201915b50505050509550848054600181600116156101000203166002900480601f0160208091040260200160405190810160405280929190818152602001828054600181600116156101000203166002900480156113e65780601f106113bb576101008083540402835291602001916113e6565b820191906000526020600020905b8154815290600101906020018083116113c957829003601f168201915b50505050509450995099509950995099509950995099509950995090919293949596979899565b60608160098054905011151561142257600080fd5b60098281548110151561143157fe5b906000526020600020018054600181600116156101000203166002900480601f0160208091040260200160405190810160405280929190818152602001828054600181600116156101000203166002900480156114cf5780601f106114a4576101008083540402835291602001916114cf565b820191906000526020600020905b8154815290600101906020018083116114b257829003601f168201915b50505050509050919050565b6000809054906101000a900473ffffffffffffffffffffffffffffffffffffffff1673ffffffffffffffffffffffffffffffffffffffff163373ffffffffffffffffffffffffffffffffffffffff1614151561153657600080fd5b6001600b60008373ffffffffffffffffffffffffffffffffffffffff1673ffffffffffffffffffffffffffffffffffffffff16815260200190815260200160002060006101000a81548160ff02191690831515021790555050565b60008060009054906101000a900473ffffffffffffffffffffffffffffffffffffffff1673ffffffffffffffffffffffffffffffffffffffff163373ffffffffffffffffffffffffffffffffffffffff161415156115ee57600080fd5b81600e8054905011151561160157600080fd5b600e8281548110151561161057fe5b9060005260206000209060020201905060018160010160009054906101000a900460ff1660ff1614151561164357600080fd5b60028160010160006101000a81548160ff021916908360ff160217905550600c600081548092919060010191905055506001600a60008360010160019054906101000a900473ffffffffffffffffffffffffffffffffffffffff1673ffffffffffffffffffffffffffffffffffffffff1673ffffffffffffffffffffffffffffffffffffffff16815260200190815260200160002060006101000a81548160ff0219169083151502179055505050565b6002600760009054906101000a900460ff1660ff1614151561171457600080fd5b600a60003373ffffffffffffffffffffffffffffffffffffffff1673ffffffffffffffffffffffffffffffffffffffff16815260200190815260200160002060009054906101000a900460ff16151561176c57600080fd5b3373ffffffffffffffffffffffffffffffffffffffff166108fc6006549081150290604051600060405180830381858888f193505050501580156117b4573d6000803e3d6000fd5b506000600a60003373ffffffffffffffffffffffffffffffffffffffff1673ffffffffffffffffffffffffffffffffffffffff16815260200190815260200160002060006101000a81548160ff021916908315150217905550600d60008154809291906001019190505550600c54600d541415611848576003600760006101000a81548160ff021916908360ff1602179055505b565b6000809054906101000a900473ffffffffffffffffffffffffffffffffffffffff1673ffffffffffffffffffffffffffffffffffffffff163373ffffffffffffffffffffffffffffffffffffffff161415156118a557600080fd5b6000809054906101000a900473ffffffffffffffffffffffffffffffffffffffff1673ffffffffffffffffffffffffffffffffffffffff167ff8df31144d9c2f0f6b59d69b8b98abd5459d07f2742c4df920b25aae33c6482060405160405180910390a260008060006101000a81548173ffffffffffffffffffffffffffffffffffffffff021916908373ffffffffffffffffffffffffffffffffffffffff160217905550565b6000809054906101000a900473ffffffffffffffffffffffffffffffffffffffff1673ffffffffffffffffffffffffffffffffffffffff163373ffffffffffffffffffffffffffffffffffffffff161415156119a757600080fd5b6003600760009054906101000a900460ff1660ff161415156119c857600080fd5b6004600760006101000a81548160ff021916908360ff160217905550565b6000809054906101000a900473ffffffffffffffffffffffffffffffffffffffff1681565b3373ffffffffffffffffffffffffffffffffffffffff16600460009054906101000a900473ffffffffffffffffffffffffffffffffffffffff1673ffffffffffffffffffffffffffffffffffffffff16141515611a6757600080fd5b6004600760006101000a81548160ff021916908360ff160217905550600460009054906101000a900473ffffffffffffffffffffffffffffffffffffffff166000806101000a81548173ffffffffffffffffffffffffffffffffffffffff021916908373ffffffffffffffffffffffffffffffffffffffff160217905550565b611aef6122ed565b6000809054906101000a900473ffffffffffffffffffffffffffffffffffffffff1673ffffffffffffffffffffffffffffffffffffffff163373ffffffffffffffffffffffffffffffffffffffff1614151515611b4b57600080fd5b611b65826020604051908101604052806000815250611eca565b151515611b7157600080fd5b606060405190810160405280838152602001600160ff1681526020013373ffffffffffffffffffffffffffffffffffffffff168152509050600e81908060018154018082558091505090600182039060005260206000209060020201600090919290919091506000820151816000019080519060200190611bf3929190612328565b5060208201518160010160006101000a81548160ff021916908360ff16021790555060408201518160010160016101000a81548173ffffffffffffffffffffffffffffffffffffffff021916908373ffffffffffffffffffffffffffffffffffffffff1602179055505050505050565b606060088054600181600116156101000203166002900480601f016020809104026020016040519081016040528092919081815260200182805460018160011615610100020316600290048015611cfb5780601f10611cd057610100808354040283529160200191611cfb565b820191906000526020600020905b815481529060010190602001808311611cde57829003601f168201915b5050505050905090565b565b6000809054906101000a900473ffffffffffffffffffffffffffffffffffffffff1673ffffffffffffffffffffffffffffffffffffffff163373ffffffffffffffffffffffffffffffffffffffff16141515611d6257600080fd5b611d6b81612173565b50565b6002600760009054906101000a900460ff1660ff16141515611d8f57600080fd5b600a60003373ffffffffffffffffffffffffffffffffffffffff1673ffffffffffffffffffffffffffffffffffffffff16815260200190815260200160002060009054906101000a900460ff161515611de757600080fd5b6000600a60003373ffffffffffffffffffffffffffffffffffffffff1673ffffffffffffffffffffffffffffffffffffffff16815260200190815260200160002060006101000a81548160ff021916908315150217905550600d60008154809291906001019190505550600c54600d541415611e7a576003600760006101000a81548160ff021916908360ff1602179055505b565b600080831415611e8f5760009050611eae565b8183029050818382811515611ea057fe5b04141515611eaa57fe5b8090505b92915050565b60008183811515611ec157fe5b04905092915050565b600081518351141515611ee0576000905061208a565b816040516020018082805190602001908083835b602083101515611f195780518252602082019150602081019050602083039250611ef4565b6001836020036101000a0380198251168184511680821785525050505050509050019150506040516020818303038152906040526040518082805190602001908083835b602083101515611f825780518252602082019150602081019050602083039250611f5d565b6001836020036101000a038019825116818451168082178552505050505050905001915050604051809103902060001916836040516020018082805190602001908083835b602083101515611fec5780518252602082019150602081019050602083039250611fc7565b6001836020036101000a0380198251168184511680821785525050505050509050019150506040516020818303038152906040526040518082805190602001908083835b6020831015156120555780518252602082019150602081019050602083039250612030565b6001836020036101000a0380198251168184511680821785525050505050509050019150506040518091039020600019161490505b92915050565b600082821115151561209e57fe5b818303905092915050565b60003373ffffffffffffffffffffffffffffffffffffffff166000809054906101000a900473ffffffffffffffffffffffffffffffffffffffff1673ffffffffffffffffffffffffffffffffffffffff1614156121095760019050612170565b60011515600b60003373ffffffffffffffffffffffffffffffffffffffff1673ffffffffffffffffffffffffffffffffffffffff16815260200190815260200160002060009054906101000a900460ff161515141561216b5760019050612170565b600090505b90565b600073ffffffffffffffffffffffffffffffffffffffff168173ffffffffffffffffffffffffffffffffffffffff16141515156121af57600080fd5b8073ffffffffffffffffffffffffffffffffffffffff166000809054906101000a900473ffffffffffffffffffffffffffffffffffffffff1673ffffffffffffffffffffffffffffffffffffffff167f8be0079c531659141344cd1fd0a4f28419497f9722a3daafe3b4186f6b6457e060405160405180910390a3806000806101000a81548173ffffffffffffffffffffffffffffffffffffffff021916908373ffffffffffffffffffffffffffffffffffffffff16021790555050565b828054600181600116156101000203166002900490600052602060002090601f016020900481019282601f106122ae57805160ff19168380011785556122dc565b828001600101855582156122dc579182015b828111156122db5782518255916020019190600101906122c0565b5b5090506122e991906123a8565b5090565b60606040519081016040528060608152602001600060ff168152602001600073ffffffffffffffffffffffffffffffffffffffff1681525090565b828054600181600116156101000203166002900490600052602060002090601f016020900481019282601f1061236957805160ff1916838001178555612397565b82800160010185558215612397579182015b8281111561239657825182559160200191906001019061237b565b5b5090506123a491906123a8565b5090565b6123ca91905b808211156123c65760008160009055506001016123ae565b5090565b905600a165627a7a7230582056a644e40186b172ebe5dc86d18cf17b1ca0b2ccbd4b43f636bbbc30fb0250f50029",
  "source": "pragma solidity ^0.4.18;\n\nimport \"zos-lib/contracts/migrations/Migratable.sol\";\nimport \"openzeppelin-solidity/contracts/ownership/Ownable.sol\";\nimport \"openzeppelin-solidity/contracts/math/SafeMath.sol\";\n\ncontract FindRequestFactory is Ownable, Migratable {\n    address[] private deployedFindRequest;\n    mapping(address => bool) private deployedFindRequestMap;\n\n    event newFindRequestCreated(address newAddress);\n\n    function initialize(address _owner) public isInitializer(\"FindRequestFactory\", \"0\")  {\n      if (owner == address(0)){\n        owner = _owner;\n      }\n    }\n\n    function createFindRequest(uint8 _age, string _location, string _lostDate, string _description) public payable {\n        require(_age < 150);\n        require(!compare(_location, \"\"));\n        require(!compare(_lostDate, \"\"));\n        require(!compare(_description, \"\"));\n        // Create new Find Request contract and get deployed address\n        address newFindRequest = new FindRequest(msg.sender, _age, _location, _lostDate, _description);\n\n        // Save new contract address and increment total counter\n        deployedFindRequest.push(newFindRequest);\n        deployedFindRequestMap[newFindRequest] = true;\n\n        // Transfer the created contract the initial amount\n        newFindRequest.transfer(msg.value);\n\n        // Send Find Request Created event\n        emit newFindRequestCreated(newFindRequest);\n    }\n\n    function distributeBalance(address donator, address beneficiaryA, address beneficiaryB) public payable onlyOwner {\n        // Verify that all address are deployed by the factory\n        require(deployedFindRequestMap[donator]);\n        require(deployedFindRequestMap[beneficiaryA]);\n        require(deployedFindRequestMap[beneficiaryB]);\n        require(beneficiaryA != beneficiaryB);\n\n        // Verify state of FindRequest constract \"donator\"\n        FindRequest findRequestFrom = FindRequest(donator);\n        require(findRequestFrom.getCurrentState() == 4); // 4 = close\n\n        // Verify state of FindRequest constract \"A\"\n        FindRequest findRequestA = FindRequest(beneficiaryA);\n        require(findRequestA.getCurrentState() == 1); // 1 = open\n\n        // Verify state of FindRequest constract \"B\"\n        FindRequest findRequestB = FindRequest(beneficiaryB);\n        require(findRequestB.getCurrentState() == 1); // 1 = open\n\n        // Trigger distributeBalance on \"close\" contract\n        findRequestFrom.executeDonationDistrubutionSystem(beneficiaryA, beneficiaryB);\n    }\n\n    function getFindRequest(uint findRequestNumber) public view returns (address) {\n        require(deployedFindRequest.length > findRequestNumber);\n        return deployedFindRequest[findRequestNumber];\n    }\n\n    // Return a summary tuple of relevant variables of the factory contract\n    function getSummary() public view returns (address, uint, uint) {\n        return (\n          owner,\n          address(this).balance,\n          deployedFindRequest.length\n        );\n    }\n\n    // Default function to withdraw balance from factory contract\n    function withdraw(uint amount) public onlyOwner returns(bool) {\n        require(amount <= address(this).balance);\n        owner.transfer(amount);\n        return true;\n    }\n\n    // Default anonymous function allow deposits to the contract\n    function () public payable {\n    }\n\n    // Utility function to compare strings\n    function compare(string a, string b) private pure returns (bool) {\n        if(bytes(a).length != bytes(b).length) {\n            return false;\n        } else {\n            return keccak256(abi.encodePacked(a)) == keccak256(abi.encodePacked(b));\n        }\n    }\n}\n\ncontract FindRequest is Ownable {\n    uint8 private age;\n    string private location;\n    string private lostDate;\n    string private description;\n    address private curator;\n    uint private initialIncentive;\n    uint private incentiveToRedeem;\n    uint8 private findRequestState;\n    string private closingMessage;\n    string[] private knownLocations;\n    mapping(address => bool) acceptedHintsMap;\n    mapping(address => bool) allowedHintsWatchers;\n    uint private acceptedHints;\n    uint private acceptedHintsResponses;\n\n    struct Hint {\n        string text;\n        uint8 state;\n        address author;\n    }\n\n    Hint[] private receivedHints;\n    uint minimumTranferCost;\n\n    // Contract States Reference\n    enum FindRequestState {\n      Open, // 1\n      RedeemingIncentives, // 2\n      RedeemingBalances, // 3\n      Close, // 4\n      BalanceDistributed // 5\n    }\n\n    // FindRequest constructor\n    constructor(address _owner, uint8 _age, string _location, string _lostDate, string _description) public payable {\n        require(_owner != address(0));\n        require(_age < 150);\n        require(!compare(_location, \"\"));\n        require(!compare(_lostDate, \"\"));\n        require(!compare(_description, \"\"));\n\n        owner = _owner;\n        age = _age;\n        location = _location;\n        lostDate = _lostDate;\n        description = _description;\n        curator = msg.sender;\n        initialIncentive = msg.value;\n        findRequestState = 1;\n        acceptedHints = 0;\n        minimumTranferCost = 200000;\n    }\n\n    modifier onlyCurator() {\n        require(curator == msg.sender);\n        _;\n    }\n\n    modifier ownerOrWatcher() {\n        require(_isOwnerOrWatcher());\n        _;\n    }\n\n    function getCurrentState() public view returns(uint8) {\n        return findRequestState;\n    }\n\n    // Return a summary tuple of relevant variables of the factory contract\n    function getSummary() public view returns(address,uint,uint,string,string,string,uint,uint,uint,uint) {\n        return (\n          owner,\n          address(this).balance,\n          age,\n          location,\n          lostDate,\n          description,\n          knownLocations.length,\n          receivedHints.length,\n          acceptedHints,\n          acceptedHintsResponses\n        );\n    }\n\n    function getCurator() public view returns(address) {\n      return curator;\n    }\n\n    function getClosingMessage() public view returns (string) {\n        return closingMessage;\n    }\n\n    function addKnownLocation(string _location) public payable onlyOwner {\n        require(!compare(_location, \"\"));\n        knownLocations.push(_location);\n    }\n\n    function getKnownLocations(uint knownLocationNumber) public view returns(string) {\n        require(knownLocations.length > knownLocationNumber);\n        return knownLocations[knownLocationNumber];\n    }\n\n    function submitHint(string _text) public payable {\n        require(msg.sender != owner);\n        require(!compare(_text, \"\"));\n\n        Hint memory newHint = Hint(_text, 1, msg.sender);\n        receivedHints.push(newHint);\n    }\n\n    function acceptHint(uint _hintNumber) public onlyOwner payable {\n        require(receivedHints.length > _hintNumber);\n        Hint storage _hint = receivedHints[_hintNumber];\n\n        // Validates hint is not in a final state\n        require(_hint.state == 1);\n        _hint.state = 2; // Accepted\n\n        // Register accepted address and increment counter\n        acceptedHints++;\n        acceptedHintsMap[_hint.author] = true;\n    }\n\n    function getHint(uint _hintNumber) public view ownerOrWatcher returns(string,uint,address) {\n        require(receivedHints.length > _hintNumber);\n        Hint storage selectedHint = receivedHints[_hintNumber];\n        return (\n          selectedHint.text,\n          uint(selectedHint.state),\n          selectedHint.author\n        );\n    }\n\n    function rejectHint(uint _hintNumber) public onlyOwner payable {\n        require(receivedHints.length > _hintNumber);\n        Hint storage _hint = receivedHints[_hintNumber];\n\n        // Validates hint is not in a final state\n        require(_hint.state == 1);\n        _hint.state = 3; // Rejected\n    }\n\n    function closeFinding(string finalText) public payable onlyOwner {\n        require(findRequestState == 1); // 1 = Open\n\n        // TODO Pay gas cost of all Hints received (accepted or not)\n\n        // Calculate max incentive to Redeem (90% of total incentive stored)\n        uint totalIncentiveToRedeem = SafeMath.div(SafeMath.mul(address(this).balance, 90), 100);\n\n        // Verify that there is any accepted hints\n        if (acceptedHints > 0) {\n            // Change state to RedeemingIncentives (code: 2)\n            findRequestState = 2;\n            incentiveToRedeem = SafeMath.div(totalIncentiveToRedeem, acceptedHints);\n        } else {\n            // Change state to RedeemingBalances (code: 3)\n            findRequestState = 3;\n        }\n\n        // Set the closing message\n        closingMessage = finalText;\n    }\n\n    function redeemIncentive() public payable {\n        require(findRequestState == 2); // 2 = RedimingIncentives\n        require(acceptedHintsMap[msg.sender]);\n\n        // Transfer incentive money to acceptedHints address\n        msg.sender.transfer(incentiveToRedeem);\n\n        // Remove address from acceptedHintsMap and record the response\n        acceptedHintsMap[msg.sender] = false;\n        acceptedHintsResponses++;\n\n        // Check if all accepted hints responses were recorder\n        if (acceptedHintsResponses == acceptedHints) {\n            findRequestState = 3; // 3 = RedimingBalances\n        }\n    }\n\n    function rejectIncentive() public payable {\n        require(findRequestState == 2); // 2 = RedimingIncentives\n        require(acceptedHintsMap[msg.sender]);\n\n        // Remove address from acceptedHintsMap and record the response\n        acceptedHintsMap[msg.sender] = false;\n        acceptedHintsResponses++;\n\n        // Check if all accepted hints responses were recorder\n        if (acceptedHintsResponses == acceptedHints) {\n            findRequestState = 3; // 3 = RedimingBalances\n        }\n    }\n\n    function redeemBalance() public payable onlyOwner {\n        require(findRequestState == 3); // 3 = RedimingBalances\n        uint amountToRedeem = 0;\n\n        // Check if the current balance (initial incentive + donations) is higher than initial incentive\n        if (address(this).balance > initialIncentive) {\n            // AVOID FRAUD VECTOR\n            // Only transfer 90% of the initial incentive\n            amountToRedeem = SafeMath.div(SafeMath.mul(initialIncentive, 90), 100);\n        } else {\n            amountToRedeem = address(this).balance;\n        }\n\n        // Always save this amount fix to make sure all transfers ends correctly\n        if (amountToRedeem > minimumTranferCost) {\n            // Transfer money to owner only if the balance covers the costs\n            owner.transfer(SafeMath.sub(amountToRedeem, minimumTranferCost));\n        }\n\n        // Change state to Closed (code: 4)\n        findRequestState = 4;\n    }\n\n    function rejectBalance() public payable onlyOwner {\n        require(findRequestState == 3); // 3 = RedimingBalances\n\n        // Change state to Closed (code: 4)\n        findRequestState = 4;\n    }\n\n    function cancelFindRequest() public payable onlyCurator {\n        // EMERGENCY FUNCION - USE ONLY DUE A CLEAR REPORT ABUSE\n\n        // Change state to Closed (code: 4)\n        findRequestState = 4;\n\n        // Deny owner right to the contract\n        owner = curator;\n    }\n\n    // The current balance is gonna be distributed when the contract\n    // get the confirmation that associated sentitive data was errased\n    // from the private chain or server\n    function executeDonationDistrubutionSystem(address beneficiaryA, address beneficiaryB) public payable onlyOwner {\n        require(findRequestState == 4); // 4 = Close\n        require(beneficiaryA != address(0));\n        require(beneficiaryB != address(0));\n        require(beneficiaryA != beneficiaryB);\n\n        // Verify state of FindRequest beneficiary constract \"A\"\n        FindRequest findRequestA = FindRequest(beneficiaryA);\n        require(findRequestA.getCurrentState() == 1); // 1 = open\n\n        // Verify state of FindRequest beneficiary constract \"B\"\n        FindRequest findRequestB = FindRequest(beneficiaryB);\n        require(findRequestB.getCurrentState() == 1); // 1 = open\n\n        // Share balance equaly between 2 other FindRequest\n        if (address(this).balance > minimumTranferCost) {\n            // Calculate amount to transfer\n            uint amountToDonate = SafeMath.sub(address(this).balance, minimumTranferCost);\n            uint amountPerBeneficiary = SafeMath.div(amountToDonate, 2);\n\n            // Make transfers\n            beneficiaryA.transfer(amountPerBeneficiary);\n            beneficiaryB.transfer(amountPerBeneficiary);\n        }\n\n        // Change state to BalanceDistributed (code: 5)\n        findRequestState = 5;\n    }\n\n    // Grant access to watchers\n    function grantAccessToWatchHints(address watcherAddress) public payable onlyOwner {\n        allowedHintsWatchers[watcherAddress] = true;\n    }\n\n    // Propper function allow deposits to the contract\n    function receiveDonations() public payable {\n        // TODO emit and event in each donation received\n    }\n\n    // Default anonymous function allow deposits to the contract\n    function () public payable {\n    }\n\n    // Utility function to compare strings\n    function compare(string a, string b) private pure returns (bool) {\n        if(bytes(a).length != bytes(b).length) {\n            return false;\n        } else {\n            return keccak256(abi.encodePacked(a)) == keccak256(abi.encodePacked(b));\n        }\n    }\n\n    // Utility function to check if the sender is owner or watcher\n    function _isOwnerOrWatcher() private view returns(bool){\n        if (owner == msg.sender) {\n            return true;\n        } else {\n            if (allowedHintsWatchers[msg.sender] == true) {\n                return true;\n            }\n            return false;\n        }\n    }\n}\n",
  "sourcePath": "/home/marto/projects/find-them/on-chain/contracts/FindRequestFactory.sol",
  "compiler": {
    "name": "solc",
    "version": "0.4.24+commit.e67f0147.Emscripten.clang"
  },
  "schemaVersion": "2.0.1",
  "updatedAt": "2018-09-09T08:12:10.406Z"
}