{
  "contractName": "FindRequestFactory",
  "abi": [
    {
      "constant": false,
      "inputs": [],
      "name": "renounceOwnership",
      "outputs": [],
      "payable": false,
      "stateMutability": "nonpayable",
      "type": "function"
    },
    {
      "constant": true,
      "inputs": [],
      "name": "owner",
      "outputs": [
        {
          "name": "",
          "type": "address"
        }
      ],
      "payable": false,
      "stateMutability": "view",
      "type": "function"
    },
    {
      "constant": true,
      "inputs": [
        {
          "name": "contractName",
          "type": "string"
        },
        {
          "name": "migrationId",
          "type": "string"
        }
      ],
      "name": "isMigrated",
      "outputs": [
        {
          "name": "",
          "type": "bool"
        }
      ],
      "payable": false,
      "stateMutability": "view",
      "type": "function"
    },
    {
      "constant": false,
      "inputs": [
        {
          "name": "_newOwner",
          "type": "address"
        }
      ],
      "name": "transferOwnership",
      "outputs": [],
      "payable": false,
      "stateMutability": "nonpayable",
      "type": "function"
    },
    {
      "payable": true,
      "stateMutability": "payable",
      "type": "fallback"
    },
    {
      "anonymous": false,
      "inputs": [
        {
          "indexed": false,
          "name": "newAddress",
          "type": "address"
        }
      ],
      "name": "newFindRequestCreated",
      "type": "event"
    },
    {
      "anonymous": false,
      "inputs": [
        {
          "indexed": false,
          "name": "contractName",
          "type": "string"
        },
        {
          "indexed": false,
          "name": "migrationId",
          "type": "string"
        }
      ],
      "name": "Migrated",
      "type": "event"
    },
    {
      "anonymous": false,
      "inputs": [
        {
          "indexed": true,
          "name": "previousOwner",
          "type": "address"
        }
      ],
      "name": "OwnershipRenounced",
      "type": "event"
    },
    {
      "anonymous": false,
      "inputs": [
        {
          "indexed": true,
          "name": "previousOwner",
          "type": "address"
        },
        {
          "indexed": true,
          "name": "newOwner",
          "type": "address"
        }
      ],
      "name": "OwnershipTransferred",
      "type": "event"
    },
    {
      "constant": false,
      "inputs": [],
      "name": "initialize",
      "outputs": [],
      "payable": false,
      "stateMutability": "nonpayable",
      "type": "function"
    },
    {
      "constant": false,
      "inputs": [
        {
          "name": "_age",
          "type": "uint8"
        },
        {
          "name": "_location",
          "type": "string"
        },
        {
          "name": "_lostDate",
          "type": "string"
        },
        {
          "name": "_description",
          "type": "string"
        }
      ],
      "name": "createFindRequest",
      "outputs": [],
      "payable": true,
      "stateMutability": "payable",
      "type": "function"
    },
    {
      "constant": false,
      "inputs": [
        {
          "name": "donator",
          "type": "address"
        },
        {
          "name": "beneficiaryA",
          "type": "address"
        },
        {
          "name": "beneficiaryB",
          "type": "address"
        }
      ],
      "name": "distributeBalance",
      "outputs": [],
      "payable": true,
      "stateMutability": "payable",
      "type": "function"
    },
    {
      "constant": true,
      "inputs": [
        {
          "name": "findRequestNumber",
          "type": "uint256"
        }
      ],
      "name": "getFindRequest",
      "outputs": [
        {
          "name": "",
          "type": "address"
        }
      ],
      "payable": false,
      "stateMutability": "view",
      "type": "function"
    },
    {
      "constant": true,
      "inputs": [],
      "name": "getSummary",
      "outputs": [
        {
          "name": "",
          "type": "address"
        },
        {
          "name": "",
          "type": "uint256"
        },
        {
          "name": "",
          "type": "uint256"
        }
      ],
      "payable": false,
      "stateMutability": "view",
      "type": "function"
    },
    {
      "constant": false,
      "inputs": [
        {
          "name": "amount",
          "type": "uint256"
        }
      ],
      "name": "withdraw",
      "outputs": [
        {
          "name": "",
          "type": "bool"
        }
      ],
      "payable": false,
      "stateMutability": "nonpayable",
      "type": "function"
    }
  ],
  "bytecode": "0x6080604052336000806101000a81548173ffffffffffffffffffffffffffffffffffffffff021916908373ffffffffffffffffffffffffffffffffffffffff160217905550613f3f806100536000396000f300608060405260043610620000af576000357c0100000000000000000000000000000000000000000000000000000000900463ffffffff1680632e1a7d4d14620000b15780634051ddac14620000f9578063623d7852146200016157806364c308791462000258578063715018a614620002d05780638129fc1c14620002ea5780638afa0a2d14620003045780638da5cb5b1462000374578063c0bac1a814620003ce578063f2fde38b1462000498575b005b348015620000be57600080fd5b50620000df60048036038101908080359060200190929190505050620004de565b604051808215151515815260200191505060405180910390f35b3480156200010657600080fd5b5062000111620005d5565b604051808473ffffffffffffffffffffffffffffffffffffffff1673ffffffffffffffffffffffffffffffffffffffff168152602001838152602001828152602001935050505060405180910390f35b62000256600480360381019080803560ff169060200190929190803590602001908201803590602001908080601f0160208091040260200160405190810160405280939291908181526020018383808284378201915050505050509192919290803590602001908201803590602001908080601f0160208091040260200160405190810160405280939291908181526020018383808284378201915050505050509192919290803590602001908201803590602001908080601f016020809104026020016040519081016040528093929190818152602001838380828437820191505050505050919291929050505062000625565b005b620002ce600480360381019080803573ffffffffffffffffffffffffffffffffffffffff169060200190929190803573ffffffffffffffffffffffffffffffffffffffff169060200190929190803573ffffffffffffffffffffffffffffffffffffffff169060200190929190505050620009e4565b005b348015620002dd57600080fd5b50620002e862000ea2565b005b348015620002f757600080fd5b506200030262000fa5565b005b3480156200031157600080fd5b50620003326004803603810190808035906020019092919050505062001386565b604051808273ffffffffffffffffffffffffffffffffffffffff1673ffffffffffffffffffffffffffffffffffffffff16815260200191505060405180910390f35b3480156200038157600080fd5b506200038c620013de565b604051808273ffffffffffffffffffffffffffffffffffffffff1673ffffffffffffffffffffffffffffffffffffffff16815260200191505060405180910390f35b348015620003db57600080fd5b506200047e600480360381019080803590602001908201803590602001908080601f0160208091040260200160405190810160405280939291908181526020018383808284378201915050505050509192919290803590602001908201803590602001908080601f016020809104026020016040519081016040528093929190818152602001838380828437820191505050505050919291929050505062001403565b604051808215151515815260200191505060405180910390f35b348015620004a557600080fd5b50620004dc600480360381019080803573ffffffffffffffffffffffffffffffffffffffff169060200190929190505050620014f3565b005b60008060009054906101000a900473ffffffffffffffffffffffffffffffffffffffff1673ffffffffffffffffffffffffffffffffffffffff163373ffffffffffffffffffffffffffffffffffffffff161415156200053c57600080fd5b3073ffffffffffffffffffffffffffffffffffffffff163182111515156200056357600080fd5b6000809054906101000a900473ffffffffffffffffffffffffffffffffffffffff1673ffffffffffffffffffffffffffffffffffffffff166108fc839081150290604051600060405180830381858888f19350505050158015620005cb573d6000803e3d6000fd5b5060019050919050565b60008060008060009054906101000a900473ffffffffffffffffffffffffffffffffffffffff163073ffffffffffffffffffffffffffffffffffffffff1631600280549050925092509250909192565b600060968560ff161015156200063a57600080fd5b620006568460206040519081016040528060008152506200155d565b1515156200066357600080fd5b6200067f8360206040519081016040528060008152506200155d565b1515156200068c57600080fd5b620006a88260206040519081016040528060008152506200155d565b151515620006b557600080fd5b3385858585620006c4620018d4565b808673ffffffffffffffffffffffffffffffffffffffff1673ffffffffffffffffffffffffffffffffffffffff1681526020018560ff1660ff168152602001806020018060200180602001848103845287818151815260200191508051906020019080838360005b83811015620007495780820151818401526020810190506200072c565b50505050905090810190601f168015620007775780820380516001836020036101000a031916815260200191505b50848103835286818151815260200191508051906020019080838360005b83811015620007b257808201518184015260208101905062000795565b50505050905090810190601f168015620007e05780820380516001836020036101000a031916815260200191505b50848103825285818151815260200191508051906020019080838360005b838110156200081b578082015181840152602081019050620007fe565b50505050905090810190601f168015620008495780820380516001836020036101000a031916815260200191505b5098505050505050505050604051809103906000f08015801562000871573d6000803e3d6000fd5b50905060028190806001815401808255809150509060018203906000526020600020016000909192909190916101000a81548173ffffffffffffffffffffffffffffffffffffffff021916908373ffffffffffffffffffffffffffffffffffffffff160217905550506001600360008373ffffffffffffffffffffffffffffffffffffffff1673ffffffffffffffffffffffffffffffffffffffff16815260200190815260200160002060006101000a81548160ff0219169083151502179055508073ffffffffffffffffffffffffffffffffffffffff166108fc349081150290604051600060405180830381858888f1935050505015801562000979573d6000803e3d6000fd5b507f2e81d3c46fc80180393c1d66fc71eac75c94d8618bccdc9b85d0f3c6ce94c9e081604051808273ffffffffffffffffffffffffffffffffffffffff1673ffffffffffffffffffffffffffffffffffffffff16815260200191505060405180910390a15050505050565b60008060008060009054906101000a900473ffffffffffffffffffffffffffffffffffffffff1673ffffffffffffffffffffffffffffffffffffffff163373ffffffffffffffffffffffffffffffffffffffff1614151562000a4557600080fd5b600360008773ffffffffffffffffffffffffffffffffffffffff1673ffffffffffffffffffffffffffffffffffffffff16815260200190815260200160002060009054906101000a900460ff16151562000a9e57600080fd5b600360008673ffffffffffffffffffffffffffffffffffffffff1673ffffffffffffffffffffffffffffffffffffffff16815260200190815260200160002060009054906101000a900460ff16151562000af757600080fd5b600360008573ffffffffffffffffffffffffffffffffffffffff1673ffffffffffffffffffffffffffffffffffffffff16815260200190815260200160002060009054906101000a900460ff16151562000b5057600080fd5b8373ffffffffffffffffffffffffffffffffffffffff168573ffffffffffffffffffffffffffffffffffffffff161415151562000b8c57600080fd5b85925060048373ffffffffffffffffffffffffffffffffffffffff1663378aa7016040518163ffffffff167c0100000000000000000000000000000000000000000000000000000000028152600401602060405180830381600087803b15801562000bf657600080fd5b505af115801562000c0b573d6000803e3d6000fd5b505050506040513d602081101562000c2257600080fd5b810190808051906020019092919050505060ff1614151562000c4357600080fd5b84915060018273ffffffffffffffffffffffffffffffffffffffff1663378aa7016040518163ffffffff167c0100000000000000000000000000000000000000000000000000000000028152600401602060405180830381600087803b15801562000cad57600080fd5b505af115801562000cc2573d6000803e3d6000fd5b505050506040513d602081101562000cd957600080fd5b810190808051906020019092919050505060ff1614151562000cfa57600080fd5b83905060018173ffffffffffffffffffffffffffffffffffffffff1663378aa7016040518163ffffffff167c0100000000000000000000000000000000000000000000000000000000028152600401602060405180830381600087803b15801562000d6457600080fd5b505af115801562000d79573d6000803e3d6000fd5b505050506040513d602081101562000d9057600080fd5b810190808051906020019092919050505060ff1614151562000db157600080fd5b8273ffffffffffffffffffffffffffffffffffffffff16631ed9532f86866040518363ffffffff167c0100000000000000000000000000000000000000000000000000000000028152600401808373ffffffffffffffffffffffffffffffffffffffff1673ffffffffffffffffffffffffffffffffffffffff1681526020018273ffffffffffffffffffffffffffffffffffffffff1673ffffffffffffffffffffffffffffffffffffffff16815260200192505050600060405180830381600087803b15801562000e8157600080fd5b505af115801562000e96573d6000803e3d6000fd5b50505050505050505050565b6000809054906101000a900473ffffffffffffffffffffffffffffffffffffffff1673ffffffffffffffffffffffffffffffffffffffff163373ffffffffffffffffffffffffffffffffffffffff1614151562000efe57600080fd5b6000809054906101000a900473ffffffffffffffffffffffffffffffffffffffff1673ffffffffffffffffffffffffffffffffffffffff167ff8df31144d9c2f0f6b59d69b8b98abd5459d07f2742c4df920b25aae33c6482060405160405180910390a260008060006101000a81548173ffffffffffffffffffffffffffffffffffffffff021916908373ffffffffffffffffffffffffffffffffffffffff160217905550565b6040805190810160405280601281526020017f46696e6452657175657374466163746f727900000000000000000000000000008152506040805190810160405280600181526020017f300000000000000000000000000000000000000000000000000000000000000081525062001052826040805190810160405280600b81526020017f696e697469616c697a65640000000000000000000000000000000000000000008152506200172d565b6200105e82826200172d565b7fdd117a11c22118c9dee4b5a67ce578bc44529dce21ee0ccc439588fbb9fb4ea38282604051808060200180602001838103835285818151815260200191508051906020019080838360005b83811015620010c7578082015181840152602081019050620010aa565b50505050905090810190601f168015620010f55780820380516001836020036101000a031916815260200191505b50838103825284818151815260200191508051906020019080838360005b838110156200113057808201518184015260208101905062001113565b50505050905090810190601f1680156200115e5780820380516001836020036101000a031916815260200191505b5094505050505060405180910390a1600180836040518082805190602001908083835b602083101515620011a8578051825260208201915060208101905060208303925062001181565b6001836020036101000a0380198251168184511680821785525050505050509050019150509081526020016040518091039020826040518082805190602001908083835b602083101515620012135780518252602082019150602081019050602083039250620011ec565b6001836020036101000a038019825116818451168082178552505050505050905001915050908152602001604051809103902060006101000a81548160ff021916908315150217905550600180836040518082805190602001908083835b60208310151562001298578051825260208201915060208101905060208303925062001271565b6001836020036101000a03801982511681845116808217855250505050505090500191505090815260200160405180910390206040805190810160405280600b81526020017f696e697469616c697a65640000000000000000000000000000000000000000008152506040518082805190602001908083835b60208310151562001338578051825260208201915060208101905060208303925062001311565b6001836020036101000a038019825116818451168082178552505050505050905001915050908152602001604051809103902060006101000a81548160ff0219169083151502179055505050565b6000816002805490501115156200139c57600080fd5b600282815481101515620013ac57fe5b9060005260206000200160009054906101000a900473ffffffffffffffffffffffffffffffffffffffff169050919050565b6000809054906101000a900473ffffffffffffffffffffffffffffffffffffffff1681565b60006001836040518082805190602001908083835b6020831015156200143f578051825260208201915060208101905060208303925062001418565b6001836020036101000a0380198251168184511680821785525050505050509050019150509081526020016040518091039020826040518082805190602001908083835b602083101515620014aa578051825260208201915060208101905060208303925062001483565b6001836020036101000a038019825116818451168082178552505050505050905001915050908152602001604051809103902060009054906101000a900460ff16905092915050565b6000809054906101000a900473ffffffffffffffffffffffffffffffffffffffff1673ffffffffffffffffffffffffffffffffffffffff163373ffffffffffffffffffffffffffffffffffffffff161415156200154f57600080fd5b6200155a81620017d9565b50565b60008151835114151562001575576000905062001727565b816040516020018082805190602001908083835b602083101515620015b0578051825260208201915060208101905060208303925062001589565b6001836020036101000a0380198251168184511680821785525050505050509050019150506040516020818303038152906040526040518082805190602001908083835b6020831015156200161b5780518252602082019150602081019050602083039250620015f4565b6001836020036101000a038019825116818451168082178552505050505050905001915050604051809103902060001916836040516020018082805190602001908083835b60208310151562001687578051825260208201915060208101905060208303925062001660565b6001836020036101000a0380198251168184511680821785525050505050509050019150506040516020818303038152906040526040518082805190602001908083835b602083101515620016f25780518252602082019150602081019050602083039250620016cb565b6001836020036101000a0380198251168184511680821785525050505050509050019150506040518091039020600019161490505b92915050565b62001739828262001403565b151515620017d5576040517f08c379a00000000000000000000000000000000000000000000000000000000081526004018080602001828103825260328152602001807f52657175657374656420746172676574206d6967726174696f6e20494420686181526020017f7320616c7265616479206265656e2072756e000000000000000000000000000081525060400191505060405180910390fd5b5050565b600073ffffffffffffffffffffffffffffffffffffffff168173ffffffffffffffffffffffffffffffffffffffff16141515156200181657600080fd5b8073ffffffffffffffffffffffffffffffffffffffff166000809054906101000a900473ffffffffffffffffffffffffffffffffffffffff1673ffffffffffffffffffffffffffffffffffffffff167f8be0079c531659141344cd1fd0a4f28419497f9722a3daafe3b4186f6b6457e060405160405180910390a3806000806101000a81548173ffffffffffffffffffffffffffffffffffffffff021916908373ffffffffffffffffffffffffffffffffffffffff16021790555050565b60405161262e80620018e683390190560060806040526040516200262e3803806200262e8339810180604052810190808051906020019092919080519060200190929190805182019291906020018051820192919060200180518201929190505050336000806101000a81548173ffffffffffffffffffffffffffffffffffffffff021916908373ffffffffffffffffffffffffffffffffffffffff160217905550600073ffffffffffffffffffffffffffffffffffffffff168573ffffffffffffffffffffffffffffffffffffffff1614151515620000cd57600080fd5b60968460ff16101515620000e057600080fd5b6200010b836020604051908101604052806000815250620002af640100000000026401000000009004565b1515156200011857600080fd5b62000143826020604051908101604052806000815250620002af640100000000026401000000009004565b1515156200015057600080fd5b6200017b816020604051908101604052806000815250620002af640100000000026401000000009004565b1515156200018857600080fd5b846000806101000a81548173ffffffffffffffffffffffffffffffffffffffff021916908373ffffffffffffffffffffffffffffffffffffffff16021790555083600060146101000a81548160ff021916908360ff1602179055508260019080519060200190620001fb9291906200047f565b508160029080519060200190620002149291906200047f565b5080600390805190602001906200022d9291906200047f565b5033600460006101000a81548173ffffffffffffffffffffffffffffffffffffffff021916908373ffffffffffffffffffffffffffffffffffffffff160217905550346005819055506001600760006101000a81548160ff021916908360ff1602179055506000600c8190555062030d40600f8190555050505050506200052e565b600081518351141515620002c7576000905062000479565b816040516020018082805190602001908083835b602083101515620003025780518252602082019150602081019050602083039250620002db565b6001836020036101000a0380198251168184511680821785525050505050509050019150506040516020818303038152906040526040518082805190602001908083835b6020831015156200036d578051825260208201915060208101905060208303925062000346565b6001836020036101000a038019825116818451168082178552505050505050905001915050604051809103902060001916836040516020018082805190602001908083835b602083101515620003d95780518252602082019150602081019050602083039250620003b2565b6001836020036101000a0380198251168184511680821785525050505050509050019150506040516020818303038152906040526040518082805190602001908083835b6020831015156200044457805182526020820191506020810190506020830392506200041d565b6001836020036101000a0380198251168184511680821785525050505050509050019150506040518091039020600019161490505b92915050565b828054600181600116156101000203166002900490600052602060002090601f016020900481019282601f10620004c257805160ff1916838001178555620004f3565b82800160010185558215620004f3579182015b82811115620004f2578251825591602001919060010190620004d5565b5b50905062000502919062000506565b5090565b6200052b91905b80821115620005275760008160009055506001016200050d565b5090565b90565b6120f0806200053e6000396000f30060806040526004361061011c576000357c0100000000000000000000000000000000000000000000000000000000900463ffffffff168062b4f47a1461011e578063098e509b1461017a5780630e5bffcc146101d6578063130f11e31461022d5780631ed9532f1461024d5780632344e4ec146102a3578063378aa701146103835780633e5ceede146103b45780634051ddac146103be5780635056e2831461058357806353f9580c1461062957806363f4468c1461065f578063693afa741461067f578063715018a614610689578063890a5316146106a05780638da5cb5b146106aa578063b2d782d814610701578063b555f37d1461070b578063df1c526f14610767578063f2fde38b14610771578063f5306681146107b4575b005b610178600480360381019080803590602001908201803590602001908080601f01602080910402602001604051908101604052809392919081815260200183838082843782019150505050505091929192905050506107be565b005b6101d4600480360381019080803590602001908201803590602001908080601f01602080910402602001604051908101604052809392919081815260200183838082843782019150505050505091929192905050506108e0565b005b3480156101e257600080fd5b506101eb6109a3565b604051808273ffffffffffffffffffffffffffffffffffffffff1673ffffffffffffffffffffffffffffffffffffffff16815260200191505060405180910390f35b61024b600480360381019080803590602001909291905050506109cd565b005b6102a1600480360381019080803573ffffffffffffffffffffffffffffffffffffffff169060200190929190803573ffffffffffffffffffffffffffffffffffffffff169060200190929190505050610aa1565b005b3480156102af57600080fd5b506102ce60048036038101908080359060200190929190505050610cd8565b60405180806020018481526020018373ffffffffffffffffffffffffffffffffffffffff1673ffffffffffffffffffffffffffffffffffffffff168152602001828103825285818151815260200191508051906020019080838360005b8381101561034657808201518184015260208101905061032b565b50505050905090810190601f1680156103735780820380516001836020036101000a031916815260200191505b5094505050505060405180910390f35b34801561038f57600080fd5b50610398610e0c565b604051808260ff1660ff16815260200191505060405180910390f35b6103bc610e23565b005b3480156103ca57600080fd5b506103d3610f9c565b604051808b73ffffffffffffffffffffffffffffffffffffffff1673ffffffffffffffffffffffffffffffffffffffff1681526020018a815260200189815260200180602001806020018060200188815260200187815260200186815260200185815260200184810384528b818151815260200191508051906020019080838360005b83811015610471578082015181840152602081019050610456565b50505050905090810190601f16801561049e5780820380516001836020036101000a031916815260200191505b5084810383528a818151815260200191508051906020019080838360005b838110156104d75780820151818401526020810190506104bc565b50505050905090810190601f1680156105045780820380516001836020036101000a031916815260200191505b50848103825289818151815260200191508051906020019080838360005b8381101561053d578082015181840152602081019050610522565b50505050905090810190601f16801561056a5780820380516001836020036101000a031916815260200191505b509d505050505050505050505050505060405180910390f35b34801561058f57600080fd5b506105ae60048036038101908080359060200190929190505050611208565b6040518080602001828103825283818151815260200191508051906020019080838360005b838110156105ee5780820151818401526020810190506105d3565b50505050905090810190601f16801561061b5780820380516001836020036101000a031916815260200191505b509250505060405180910390f35b61065d600480360381019080803573ffffffffffffffffffffffffffffffffffffffff1690602001909291905050506112d6565b005b61067d6004803603810190808035906020019092919050505061138c565b005b6106876114ee565b005b34801561069557600080fd5b5061069e611645565b005b6106a8611747565b005b3480156106b657600080fd5b506106bf6117e1565b604051808273ffffffffffffffffffffffffffffffffffffffff1673ffffffffffffffffffffffffffffffffffffffff16815260200191505060405180910390f35b610709611806565b005b610765600480360381019080803590602001908201803590602001908080601f0160208091040260200160405190810160405280939291908181526020018383808284378201915050505050509192919290505050611880565b005b61076f6119fc565b005b34801561077d57600080fd5b506107b2600480360381019080803573ffffffffffffffffffffffffffffffffffffffff1690602001909291905050506119fe565b005b6107bc611a65565b005b60008060009054906101000a900473ffffffffffffffffffffffffffffffffffffffff1673ffffffffffffffffffffffffffffffffffffffff163373ffffffffffffffffffffffffffffffffffffffff1614151561081b57600080fd5b6001600760009054906101000a900460ff1660ff1614151561083c57600080fd5b6108686108613073ffffffffffffffffffffffffffffffffffffffff1631605a611b73565b6064611bab565b90506000600c5411156108a8576002600760006101000a81548160ff021916908360ff16021790555061089d81600c54611bab565b6006819055506108c5565b6003600760006101000a81548160ff021916908360ff1602179055505b81600890805190602001906108db929190611f64565b505050565b6000809054906101000a900473ffffffffffffffffffffffffffffffffffffffff1673ffffffffffffffffffffffffffffffffffffffff163373ffffffffffffffffffffffffffffffffffffffff1614151561093b57600080fd5b610955816020604051908101604052806000815250611bc1565b15151561096157600080fd5b600981908060018154018082558091505090600182039060005260206000200160009091929091909150908051906020019061099e929190611f64565b505050565b6000600460009054906101000a900473ffffffffffffffffffffffffffffffffffffffff16905090565b60008060009054906101000a900473ffffffffffffffffffffffffffffffffffffffff1673ffffffffffffffffffffffffffffffffffffffff163373ffffffffffffffffffffffffffffffffffffffff16141515610a2a57600080fd5b81600e80549050111515610a3d57600080fd5b600e82815481101515610a4c57fe5b9060005260206000209060020201905060018160010160009054906101000a900460ff1660ff16141515610a7f57600080fd5b60038160010160006101000a81548160ff021916908360ff1602179055505050565b6000803373ffffffffffffffffffffffffffffffffffffffff16600460009054906101000a900473ffffffffffffffffffffffffffffffffffffffff1673ffffffffffffffffffffffffffffffffffffffff16141515610b0057600080fd5b6004600760009054906101000a900460ff1660ff16141515610b2157600080fd5b600073ffffffffffffffffffffffffffffffffffffffff168473ffffffffffffffffffffffffffffffffffffffff1614151515610b5d57600080fd5b600073ffffffffffffffffffffffffffffffffffffffff168373ffffffffffffffffffffffffffffffffffffffff1614151515610b9957600080fd5b8273ffffffffffffffffffffffffffffffffffffffff168473ffffffffffffffffffffffffffffffffffffffff1614151515610bd457600080fd5b600f543073ffffffffffffffffffffffffffffffffffffffff16311115610cb657610c183073ffffffffffffffffffffffffffffffffffffffff1631600f54611d87565b9150610c25826002611bab565b90508373ffffffffffffffffffffffffffffffffffffffff166108fc829081150290604051600060405180830381858888f19350505050158015610c6d573d6000803e3d6000fd5b508273ffffffffffffffffffffffffffffffffffffffff166108fc829081150290604051600060405180830381858888f19350505050158015610cb4573d6000803e3d6000fd5b505b6005600760006101000a81548160ff021916908360ff16021790555050505050565b60606000806000610ce7611da0565b1515610cf257600080fd5b84600e80549050111515610d0557600080fd5b600e85815481101515610d1457fe5b90600052602060002090600202019050806000018160010160009054906101000a900460ff1660ff168260010160019054906101000a900473ffffffffffffffffffffffffffffffffffffffff16828054600181600116156101000203166002900480601f016020809104026020016040519081016040528092919081815260200182805460018160011615610100020316600290048015610df75780601f10610dcc57610100808354040283529160200191610df7565b820191906000526020600020905b815481529060010190602001808311610dda57829003601f168201915b50505050509250935093509350509193909250565b6000600760009054906101000a900460ff16905090565b60008060009054906101000a900473ffffffffffffffffffffffffffffffffffffffff1673ffffffffffffffffffffffffffffffffffffffff163373ffffffffffffffffffffffffffffffffffffffff16141515610e8057600080fd5b6003600760009054906101000a900460ff1660ff16141515610ea157600080fd5b600090506005543073ffffffffffffffffffffffffffffffffffffffff16311115610ee457610edd610ed6600554605a611b73565b6064611bab565b9050610eff565b3073ffffffffffffffffffffffffffffffffffffffff163190505b600f54811115610f7d576000809054906101000a900473ffffffffffffffffffffffffffffffffffffffff1673ffffffffffffffffffffffffffffffffffffffff166108fc610f5083600f54611d87565b9081150290604051600060405180830381858888f19350505050158015610f7b573d6000803e3d6000fd5b505b6004600760006101000a81548160ff021916908360ff16021790555050565b600080600060608060606000806000806000809054906101000a900473ffffffffffffffffffffffffffffffffffffffff163073ffffffffffffffffffffffffffffffffffffffff1631600060149054906101000a900460ff16600160026003600980549050600e80549050600c54600d548760ff169750868054600181600116156101000203166002900480601f0160208091040260200160405190810160405280929190818152602001828054600181600116156101000203166002900480156110a95780601f1061107e576101008083540402835291602001916110a9565b820191906000526020600020905b81548152906001019060200180831161108c57829003601f168201915b50505050509650858054600181600116156101000203166002900480601f0160208091040260200160405190810160405280929190818152602001828054600181600116156101000203166002900480156111455780601f1061111a57610100808354040283529160200191611145565b820191906000526020600020905b81548152906001019060200180831161112857829003601f168201915b50505050509550848054600181600116156101000203166002900480601f0160208091040260200160405190810160405280929190818152602001828054600181600116156101000203166002900480156111e15780601f106111b6576101008083540402835291602001916111e1565b820191906000526020600020905b8154815290600101906020018083116111c457829003601f168201915b50505050509450995099509950995099509950995099509950995090919293949596979899565b60608160098054905011151561121d57600080fd5b60098281548110151561122c57fe5b906000526020600020018054600181600116156101000203166002900480601f0160208091040260200160405190810160405280929190818152602001828054600181600116156101000203166002900480156112ca5780601f1061129f576101008083540402835291602001916112ca565b820191906000526020600020905b8154815290600101906020018083116112ad57829003601f168201915b50505050509050919050565b6000809054906101000a900473ffffffffffffffffffffffffffffffffffffffff1673ffffffffffffffffffffffffffffffffffffffff163373ffffffffffffffffffffffffffffffffffffffff1614151561133157600080fd5b6001600b60008373ffffffffffffffffffffffffffffffffffffffff1673ffffffffffffffffffffffffffffffffffffffff16815260200190815260200160002060006101000a81548160ff02191690831515021790555050565b60008060009054906101000a900473ffffffffffffffffffffffffffffffffffffffff1673ffffffffffffffffffffffffffffffffffffffff163373ffffffffffffffffffffffffffffffffffffffff161415156113e957600080fd5b81600e805490501115156113fc57600080fd5b600e8281548110151561140b57fe5b9060005260206000209060020201905060018160010160009054906101000a900460ff1660ff1614151561143e57600080fd5b60028160010160006101000a81548160ff021916908360ff160217905550600c600081548092919060010191905055506001600a60008360010160019054906101000a900473ffffffffffffffffffffffffffffffffffffffff1673ffffffffffffffffffffffffffffffffffffffff1673ffffffffffffffffffffffffffffffffffffffff16815260200190815260200160002060006101000a81548160ff0219169083151502179055505050565b6002600760009054906101000a900460ff1660ff1614151561150f57600080fd5b600a60003373ffffffffffffffffffffffffffffffffffffffff1673ffffffffffffffffffffffffffffffffffffffff16815260200190815260200160002060009054906101000a900460ff16151561156757600080fd5b3373ffffffffffffffffffffffffffffffffffffffff166108fc6006549081150290604051600060405180830381858888f193505050501580156115af573d6000803e3d6000fd5b506000600a60003373ffffffffffffffffffffffffffffffffffffffff1673ffffffffffffffffffffffffffffffffffffffff16815260200190815260200160002060006101000a81548160ff021916908315150217905550600d60008154809291906001019190505550600c54600d541415611643576003600760006101000a81548160ff021916908360ff1602179055505b565b6000809054906101000a900473ffffffffffffffffffffffffffffffffffffffff1673ffffffffffffffffffffffffffffffffffffffff163373ffffffffffffffffffffffffffffffffffffffff161415156116a057600080fd5b6000809054906101000a900473ffffffffffffffffffffffffffffffffffffffff1673ffffffffffffffffffffffffffffffffffffffff167ff8df31144d9c2f0f6b59d69b8b98abd5459d07f2742c4df920b25aae33c6482060405160405180910390a260008060006101000a81548173ffffffffffffffffffffffffffffffffffffffff021916908373ffffffffffffffffffffffffffffffffffffffff160217905550565b6000809054906101000a900473ffffffffffffffffffffffffffffffffffffffff1673ffffffffffffffffffffffffffffffffffffffff163373ffffffffffffffffffffffffffffffffffffffff161415156117a257600080fd5b6003600760009054906101000a900460ff1660ff161415156117c357600080fd5b6004600760006101000a81548160ff021916908360ff160217905550565b6000809054906101000a900473ffffffffffffffffffffffffffffffffffffffff1681565b3373ffffffffffffffffffffffffffffffffffffffff16600460009054906101000a900473ffffffffffffffffffffffffffffffffffffffff1673ffffffffffffffffffffffffffffffffffffffff1614151561186257600080fd5b6004600760006101000a81548160ff021916908360ff160217905550565b611888611fe4565b6000809054906101000a900473ffffffffffffffffffffffffffffffffffffffff1673ffffffffffffffffffffffffffffffffffffffff163373ffffffffffffffffffffffffffffffffffffffff16141515156118e457600080fd5b6118fe826020604051908101604052806000815250611bc1565b15151561190a57600080fd5b606060405190810160405280838152602001600160ff1681526020013373ffffffffffffffffffffffffffffffffffffffff168152509050600e8190806001815401808255809150509060018203906000526020600020906002020160009091929091909150600082015181600001908051906020019061198c92919061201f565b5060208201518160010160006101000a81548160ff021916908360ff16021790555060408201518160010160016101000a81548173ffffffffffffffffffffffffffffffffffffffff021916908373ffffffffffffffffffffffffffffffffffffffff1602179055505050505050565b565b6000809054906101000a900473ffffffffffffffffffffffffffffffffffffffff1673ffffffffffffffffffffffffffffffffffffffff163373ffffffffffffffffffffffffffffffffffffffff16141515611a5957600080fd5b611a6281611e6a565b50565b6002600760009054906101000a900460ff1660ff16141515611a8657600080fd5b600a60003373ffffffffffffffffffffffffffffffffffffffff1673ffffffffffffffffffffffffffffffffffffffff16815260200190815260200160002060009054906101000a900460ff161515611ade57600080fd5b6000600a60003373ffffffffffffffffffffffffffffffffffffffff1673ffffffffffffffffffffffffffffffffffffffff16815260200190815260200160002060006101000a81548160ff021916908315150217905550600d60008154809291906001019190505550600c54600d541415611b71576003600760006101000a81548160ff021916908360ff1602179055505b565b600080831415611b865760009050611ba5565b8183029050818382811515611b9757fe5b04141515611ba157fe5b8090505b92915050565b60008183811515611bb857fe5b04905092915050565b600081518351141515611bd75760009050611d81565b816040516020018082805190602001908083835b602083101515611c105780518252602082019150602081019050602083039250611beb565b6001836020036101000a0380198251168184511680821785525050505050509050019150506040516020818303038152906040526040518082805190602001908083835b602083101515611c795780518252602082019150602081019050602083039250611c54565b6001836020036101000a038019825116818451168082178552505050505050905001915050604051809103902060001916836040516020018082805190602001908083835b602083101515611ce35780518252602082019150602081019050602083039250611cbe565b6001836020036101000a0380198251168184511680821785525050505050509050019150506040516020818303038152906040526040518082805190602001908083835b602083101515611d4c5780518252602082019150602081019050602083039250611d27565b6001836020036101000a0380198251168184511680821785525050505050509050019150506040518091039020600019161490505b92915050565b6000828211151515611d9557fe5b818303905092915050565b60003373ffffffffffffffffffffffffffffffffffffffff166000809054906101000a900473ffffffffffffffffffffffffffffffffffffffff1673ffffffffffffffffffffffffffffffffffffffff161415611e005760019050611e67565b60011515600b60003373ffffffffffffffffffffffffffffffffffffffff1673ffffffffffffffffffffffffffffffffffffffff16815260200190815260200160002060009054906101000a900460ff1615151415611e625760019050611e67565b600090505b90565b600073ffffffffffffffffffffffffffffffffffffffff168173ffffffffffffffffffffffffffffffffffffffff1614151515611ea657600080fd5b8073ffffffffffffffffffffffffffffffffffffffff166000809054906101000a900473ffffffffffffffffffffffffffffffffffffffff1673ffffffffffffffffffffffffffffffffffffffff167f8be0079c531659141344cd1fd0a4f28419497f9722a3daafe3b4186f6b6457e060405160405180910390a3806000806101000a81548173ffffffffffffffffffffffffffffffffffffffff021916908373ffffffffffffffffffffffffffffffffffffffff16021790555050565b828054600181600116156101000203166002900490600052602060002090601f016020900481019282601f10611fa557805160ff1916838001178555611fd3565b82800160010185558215611fd3579182015b82811115611fd2578251825591602001919060010190611fb7565b5b509050611fe0919061209f565b5090565b60606040519081016040528060608152602001600060ff168152602001600073ffffffffffffffffffffffffffffffffffffffff1681525090565b828054600181600116156101000203166002900490600052602060002090601f016020900481019282601f1061206057805160ff191683800117855561208e565b8280016001018555821561208e579182015b8281111561208d578251825591602001919060010190612072565b5b50905061209b919061209f565b5090565b6120c191905b808211156120bd5760008160009055506001016120a5565b5090565b905600a165627a7a72305820e9fc2262a16d649bc10a803b2ac05a8a28c21961ac55ddd8b4bd91a3052407fa0029a165627a7a723058205bc30a415a80deddfb42f23073c78d3d654ce585ea5e695c9194c72c365464ca0029",
  "source": "pragma solidity ^0.4.18;\n\nimport \"zos-lib/contracts/migrations/Migratable.sol\";\nimport \"openzeppelin-solidity/contracts/ownership/Ownable.sol\";\nimport \"openzeppelin-solidity/contracts/math/SafeMath.sol\";\n\ncontract FindRequestFactory is Ownable, Migratable {\n    address[] private deployedFindRequest;\n    mapping(address => bool) private deployedFindRequestMap;\n\n    event newFindRequestCreated(address newAddress);\n\n    function initialize() public isInitializer(\"FindRequestFactory\", \"0\")  {\n        // Init some variables here\n    }\n\n    function createFindRequest(uint8 _age, string _location, string _lostDate, string _description) public payable {\n        require(_age < 150);\n        require(!compare(_location, \"\"));\n        require(!compare(_lostDate, \"\"));\n        require(!compare(_description, \"\"));\n\n        // Create new Find Request contract and get deployed address\n        address newFindRequest = new FindRequest(msg.sender, _age, _location, _lostDate, _description);\n\n        // Save new contract address and increment total counter\n        deployedFindRequest.push(newFindRequest);\n        deployedFindRequestMap[newFindRequest] = true;\n\n        // Transfer the created contract the initial amount\n        newFindRequest.transfer(msg.value);\n\n        // Send Find Request Created event\n        emit newFindRequestCreated(newFindRequest);\n    }\n\n    function distributeBalance(address donator, address beneficiaryA, address beneficiaryB) public payable onlyOwner {\n        // Verify that all address are deployed by the factory\n        require(deployedFindRequestMap[donator]);\n        require(deployedFindRequestMap[beneficiaryA]);\n        require(deployedFindRequestMap[beneficiaryB]);\n        require(beneficiaryA != beneficiaryB);\n\n        // Verify state of FindRequest constract \"donator\"\n        FindRequest findRequestFrom = FindRequest(donator);\n        require(findRequestFrom.getCurrentState() == 4); // 4 = close\n\n        // Verify state of FindRequest constract \"A\"\n        FindRequest findRequestA = FindRequest(beneficiaryA);\n        require(findRequestA.getCurrentState() == 1); // 1 = open\n\n        // Verify state of FindRequest constract \"B\"\n        FindRequest findRequestB = FindRequest(beneficiaryB);\n        require(findRequestB.getCurrentState() == 1); // 1 = open\n\n        // Trigger distributeBalance on \"close\" contract\n        findRequestFrom.executeDonationDistrubutionSystem(beneficiaryA, beneficiaryB);\n    }\n\n\n    function getFindRequest(uint findRequestNumber) public view returns (address) {\n        require(deployedFindRequest.length > findRequestNumber);\n        return deployedFindRequest[findRequestNumber];\n    }\n\n    // Return a summary tuple of relevant variables of the factory contract\n    function getSummary() public view returns (address, uint, uint) {\n        return (\n          owner,\n          address(this).balance,\n          deployedFindRequest.length\n        );\n    }\n\n    // Default function to withdraw balance from factory contract\n    function withdraw(uint amount) public onlyOwner returns(bool) {\n        require(amount <= address(this).balance);\n        owner.transfer(amount);\n        return true;\n    }\n\n    // Default anonymous function allow deposits to the contract\n    function () public payable {\n    }\n\n    // Utility function to compare strings\n    function compare(string a, string b) private pure returns (bool) {\n        if(bytes(a).length != bytes(b).length) {\n            return false;\n        } else {\n            return keccak256(abi.encodePacked(a)) == keccak256(abi.encodePacked(b));\n        }\n    }\n}\n\ncontract FindRequest is Ownable {\n    uint8 private age;\n    string private location;\n    string private lostDate;\n    string private description;\n    address private curator;\n    uint private initialIncentive;\n    uint private incentiveToRedeem;\n    uint8 private findRequestState;\n    string closingMessage;\n\n    string[] private knownLocations;\n    mapping(address => bool) acceptedHintsMap;\n    mapping(address => bool) allowedHintsWatchers;\n    uint acceptedHints;\n    uint acceptedHintsResponses;\n\n    struct Hint {\n        string text;\n        uint8 state;\n        address author;\n    }\n\n    Hint[] private receivedHints;\n    uint minimumTranferCost;\n\n    // Contract States Reference\n    enum FindRequestState {\n      Open, // 1\n      RedeemingIncentives, // 2\n      RedeemingBalances, // 3\n      Close, // 4\n      BalanceDistributed // 5\n    }\n\n    // FindRequest constructor\n    constructor(address _owner, uint8 _age, string _location, string _lostDate, string _description) public payable {\n        require(_owner != address(0));\n        require(_age < 150);\n        require(!compare(_location, \"\"));\n        require(!compare(_lostDate, \"\"));\n        require(!compare(_description, \"\"));\n\n        owner = _owner;\n        age = _age;\n        location = _location;\n        lostDate = _lostDate;\n        description = _description;\n        curator = msg.sender;\n        initialIncentive = msg.value;\n        findRequestState = 1;\n        acceptedHints = 0;\n        minimumTranferCost = 200000;\n    }\n\n    modifier onlyHinter() {\n        _;\n    }\n\n    modifier onlyCurator() {\n        require(curator == msg.sender);\n        _;\n    }\n\n    modifier ownerOrWatcher() {\n        require(_isOwnerOrWatcher());\n        _;\n    }\n\n    function getCurrentState() public view returns(uint8) {\n        return findRequestState;\n    }\n\n    // Return a summary tuple of relevant variables of the factory contract\n    function getSummary() public view returns(address,uint,uint,string,string,string,uint,uint,uint,uint) {\n        return (\n          owner,\n          address(this).balance,\n          age,\n          location,\n          lostDate,\n          description,\n          knownLocations.length,\n          receivedHints.length,\n          acceptedHints,\n          acceptedHintsResponses\n        );\n    }\n\n    function getCurator() public view returns(address) {\n      return curator;\n    }\n\n    function addKnownLocation(string _location) public payable onlyOwner {\n        require(!compare(_location, \"\"));\n        knownLocations.push(_location);\n    }\n\n    function getKnownLocations(uint knownLocationNumber) public view returns(string) {\n        require(knownLocations.length > knownLocationNumber);\n        return knownLocations[knownLocationNumber];\n    }\n\n    function submitHint(string _text) public payable {\n        require(msg.sender != owner);\n        require(!compare(_text, \"\"));\n\n        Hint memory newHint = Hint(_text, 1, msg.sender);\n        receivedHints.push(newHint);\n    }\n\n    function acceptHint(uint _hintNumber) public onlyOwner payable {\n        require(receivedHints.length > _hintNumber);\n        Hint storage _hint = receivedHints[_hintNumber];\n\n        // Validates hint is not in a final state\n        require(_hint.state == 1);\n        _hint.state = 2; // Accepted\n\n        // Register accepted address and increment counter\n        acceptedHints++;\n        acceptedHintsMap[_hint.author] = true;\n    }\n\n    function getHint(uint _hintNumber) public view ownerOrWatcher returns(string,uint,address) {\n        require(receivedHints.length > _hintNumber);\n        Hint storage selectedHint = receivedHints[_hintNumber];\n        return (\n          selectedHint.text,\n          uint(selectedHint.state),\n          selectedHint.author\n        );\n    }\n\n    function rejectHint(uint _hintNumber) public onlyOwner payable {\n        require(receivedHints.length > _hintNumber);\n        Hint storage _hint = receivedHints[_hintNumber];\n\n        // Validates hint is not in a final state\n        require(_hint.state == 1);\n        _hint.state = 3; // Rejected\n    }\n\n    function closeFinding(string finalText) public payable onlyOwner {\n        require(findRequestState == 1); // 1 = Open\n\n        // TODO Pay gas cost of all Hints received (accepted or not)\n\n        // Calculate max incentive to Redeem (90% of total incentive stored)\n        uint totalIncentiveToRedeem = SafeMath.div(SafeMath.mul(address(this).balance, 90), 100);\n\n        // Verify that there is any accepted hints\n        if (acceptedHints > 0) {\n            // Change state to RedeemingIncentives (code: 2)\n            findRequestState = 2;\n            incentiveToRedeem = SafeMath.div(totalIncentiveToRedeem, acceptedHints);\n        } else {\n            // Change state to RedeemingBalances (code: 3)\n            findRequestState = 3;\n        }\n\n        // Set the closing message\n        closingMessage = finalText;\n    }\n\n    function redeemIncentive() public payable onlyHinter {\n        require(findRequestState == 2); // 2 = RedimingIncentives\n        require(acceptedHintsMap[msg.sender]);\n\n        // Transfer incentive money to acceptedHints address\n        msg.sender.transfer(incentiveToRedeem);\n\n        // Remove address from acceptedHintsMap and record the response\n        acceptedHintsMap[msg.sender] = false;\n        acceptedHintsResponses++;\n\n        // Check if all accepted hints responses were recorder\n        if (acceptedHintsResponses == acceptedHints) {\n            findRequestState = 3; // 3 = RedimingBalances\n        }\n    }\n\n    function rejectIncentive() public payable onlyHinter {\n        require(findRequestState == 2); // 2 = RedimingIncentives\n        require(acceptedHintsMap[msg.sender]);\n\n        // Remove address from acceptedHintsMap and record the response\n        acceptedHintsMap[msg.sender] = false;\n        acceptedHintsResponses++;\n\n        // Check if all accepted hints responses were recorder\n        if (acceptedHintsResponses == acceptedHints) {\n            findRequestState = 3; // 3 = RedimingBalances\n        }\n    }\n\n    function redeemBalance() public payable onlyOwner {\n        require(findRequestState == 3); // 3 = RedimingBalances\n        uint amountToRedeem = 0;\n\n        // Check if the current balance (initial incentive + donations) is higher than initial incentive\n        if (address(this).balance > initialIncentive) {\n            // AVOID FRAUD VECTOR\n            // Only transfer 90% of the initial incentive\n            amountToRedeem = SafeMath.div(SafeMath.mul(initialIncentive, 90), 100);\n        } else {\n            amountToRedeem = address(this).balance;\n        }\n\n        // Always save this amount fix to make sure all transfers ends correctly\n        if (amountToRedeem > minimumTranferCost) {\n            // Transfer money to owner only if the balance covers the costs\n            owner.transfer(SafeMath.sub(amountToRedeem, minimumTranferCost));\n        }\n\n        // Change state to Closed (code: 4)\n        findRequestState = 4;\n    }\n\n    function rejectBalance() public payable onlyOwner {\n        require(findRequestState == 3); // 3 = RedimingBalances\n\n        // Change state to Closed (code: 4)\n        findRequestState = 4;\n    }\n\n    function cancelFindRequest() public payable onlyCurator {\n        // Change state to Closed (code: 4)\n        findRequestState = 4;\n    }\n\n    // The current balance is gonna be distributed when the contract\n    // get the confirmation that associated sentitive data was errased\n    // from the private chain or server\n    function executeDonationDistrubutionSystem(address beneficiaryA, address beneficiaryB) public payable onlyCurator {\n        require(findRequestState == 4); // 4 = Close\n        require(beneficiaryA != address(0));\n        require(beneficiaryB != address(0));\n        require(beneficiaryA != beneficiaryB);\n\n        // Share balance equaly between 2 other FindRequest\n        if (address(this).balance > minimumTranferCost) {\n\n            // Calculate amount to transfer\n            uint amountToDonate = SafeMath.sub(address(this).balance, minimumTranferCost);\n            uint amountPerBeneficiary = SafeMath.div(amountToDonate, 2);\n\n            // Make transfer\n            beneficiaryA.transfer(amountPerBeneficiary);\n            beneficiaryB.transfer(amountPerBeneficiary);\n        }\n\n        // Change state to BalanceDistributed (code: 5)\n        findRequestState = 5;\n    }\n\n    // Grant access to watchers\n    function grantAccessToWatchHints(address watcherAddress) public payable onlyOwner {\n        allowedHintsWatchers[watcherAddress] = true;\n    }\n\n    function receiveDonations() public payable {\n    }\n\n    // Default anonymous function allow deposits to the contract\n    function () public payable {\n    }\n\n    // Utility function to compare strings\n    function compare(string a, string b) private pure returns (bool) {\n        if(bytes(a).length != bytes(b).length) {\n            return false;\n        } else {\n            return keccak256(abi.encodePacked(a)) == keccak256(abi.encodePacked(b));\n        }\n    }\n\n    // Utility function to check if the sender is owner or watcher\n    function _isOwnerOrWatcher() private view returns(bool){\n        if (owner == msg.sender) {\n            return true;\n        } else {\n            if (allowedHintsWatchers[msg.sender] == true) {\n                return true;\n            }\n            return false;\n        }\n    }\n}\n",
  "sourcePath": "/home/marto/projects/find-them/on-chain/contracts/FindRequestFactory.sol",
  "compiler": {
    "name": "solc",
    "version": "0.4.24+commit.e67f0147.Emscripten.clang"
  },
  "schemaVersion": "2.0.1",
  "updatedAt": "2018-09-09T03:10:27.184Z"
}