{
  "contractName": "FindRequest",
  "abi": [
    {
      "constant": false,
      "inputs": [],
      "name": "renounceOwnership",
      "outputs": [],
      "payable": false,
      "stateMutability": "nonpayable",
      "type": "function"
    },
    {
      "constant": true,
      "inputs": [],
      "name": "owner",
      "outputs": [
        {
          "name": "",
          "type": "address"
        }
      ],
      "payable": false,
      "stateMutability": "view",
      "type": "function"
    },
    {
      "constant": false,
      "inputs": [
        {
          "name": "_newOwner",
          "type": "address"
        }
      ],
      "name": "transferOwnership",
      "outputs": [],
      "payable": false,
      "stateMutability": "nonpayable",
      "type": "function"
    },
    {
      "inputs": [
        {
          "name": "_owner",
          "type": "address"
        },
        {
          "name": "_age",
          "type": "uint8"
        },
        {
          "name": "_location",
          "type": "string"
        },
        {
          "name": "_lost_date",
          "type": "string"
        },
        {
          "name": "_description",
          "type": "string"
        }
      ],
      "payable": true,
      "stateMutability": "payable",
      "type": "constructor"
    },
    {
      "anonymous": false,
      "inputs": [
        {
          "indexed": true,
          "name": "previousOwner",
          "type": "address"
        }
      ],
      "name": "OwnershipRenounced",
      "type": "event"
    },
    {
      "anonymous": false,
      "inputs": [
        {
          "indexed": true,
          "name": "previousOwner",
          "type": "address"
        },
        {
          "indexed": true,
          "name": "newOwner",
          "type": "address"
        }
      ],
      "name": "OwnershipTransferred",
      "type": "event"
    },
    {
      "constant": true,
      "inputs": [],
      "name": "getSummary",
      "outputs": [
        {
          "name": "",
          "type": "address"
        },
        {
          "name": "",
          "type": "uint256"
        },
        {
          "name": "",
          "type": "uint256"
        },
        {
          "name": "",
          "type": "string"
        },
        {
          "name": "",
          "type": "string"
        },
        {
          "name": "",
          "type": "string"
        }
      ],
      "payable": false,
      "stateMutability": "view",
      "type": "function"
    },
    {
      "constant": true,
      "inputs": [],
      "name": "getCurator",
      "outputs": [
        {
          "name": "",
          "type": "address"
        }
      ],
      "payable": false,
      "stateMutability": "view",
      "type": "function"
    },
    {
      "constant": true,
      "inputs": [
        {
          "name": "knownLocationNumber",
          "type": "uint256"
        }
      ],
      "name": "getKnownLocations",
      "outputs": [
        {
          "name": "",
          "type": "string"
        }
      ],
      "payable": false,
      "stateMutability": "view",
      "type": "function"
    }
  ],
  "bytecode": "0x6080604052604051610bfc380380610bfc8339810180604052810190808051906020019092919080519060200190929190805182019291906020018051820192919060200180518201929190505050336000806101000a81548173ffffffffffffffffffffffffffffffffffffffff021916908373ffffffffffffffffffffffffffffffffffffffff160217905550846000806101000a81548173ffffffffffffffffffffffffffffffffffffffff021916908373ffffffffffffffffffffffffffffffffffffffff16021790555083600060146101000a81548160ff021916908360ff16021790555082600190805190602001906100ff929190610180565b508160029080519060200190610116929190610180565b50806003908051906020019061012d929190610180565b5033600460006101000a81548173ffffffffffffffffffffffffffffffffffffffff021916908373ffffffffffffffffffffffffffffffffffffffff160217905550346005819055505050505050610225565b828054600181600116156101000203166002900490600052602060002090601f016020900481019282601f106101c157805160ff19168380011785556101ef565b828001600101855582156101ef579182015b828111156101ee5782518255916020019190600101906101d3565b5b5090506101fc9190610200565b5090565b61022291905b8082111561021e576000816000905550600101610206565b5090565b90565b6109c8806102346000396000f300608060405260043610610078576000357c0100000000000000000000000000000000000000000000000000000000900463ffffffff1680630e5bffcc1461007d5780634051ddac146100d45780635056e2831461027d578063715018a6146103235780638da5cb5b1461033a578063f2fde38b14610391575b600080fd5b34801561008957600080fd5b506100926103d4565b604051808273ffffffffffffffffffffffffffffffffffffffff1673ffffffffffffffffffffffffffffffffffffffff16815260200191505060405180910390f35b3480156100e057600080fd5b506100e96103fe565b604051808773ffffffffffffffffffffffffffffffffffffffff1673ffffffffffffffffffffffffffffffffffffffff168152602001868152602001858152602001806020018060200180602001848103845287818151815260200191508051906020019080838360005b8381101561016f578082015181840152602081019050610154565b50505050905090810190601f16801561019c5780820380516001836020036101000a031916815260200191505b50848103835286818151815260200191508051906020019080838360005b838110156101d55780820151818401526020810190506101ba565b50505050905090810190601f1680156102025780820380516001836020036101000a031916815260200191505b50848103825285818151815260200191508051906020019080838360005b8381101561023b578082015181840152602081019050610220565b50505050905090810190601f1680156102685780820380516001836020036101000a031916815260200191505b50995050505050505050505060405180910390f35b34801561028957600080fd5b506102a860048036038101908080359060200190929190505050610646565b6040518080602001828103825283818151815260200191508051906020019080838360005b838110156102e85780820151818401526020810190506102cd565b50505050905090810190601f1680156103155780820380516001836020036101000a031916815260200191505b509250505060405180910390f35b34801561032f57600080fd5b50610338610714565b005b34801561034657600080fd5b5061034f610816565b604051808273ffffffffffffffffffffffffffffffffffffffff1673ffffffffffffffffffffffffffffffffffffffff16815260200191505060405180910390f35b34801561039d57600080fd5b506103d2600480360381019080803573ffffffffffffffffffffffffffffffffffffffff16906020019092919050505061083b565b005b6000600460009054906101000a900473ffffffffffffffffffffffffffffffffffffffff16905090565b600080600060608060606000809054906101000a900473ffffffffffffffffffffffffffffffffffffffff163073ffffffffffffffffffffffffffffffffffffffff1631600060149054906101000a900460ff166001600260038360ff169350828054600181600116156101000203166002900480601f0160208091040260200160405190810160405280929190818152602001828054600181600116156101000203166002900480156104f35780601f106104c8576101008083540402835291602001916104f3565b820191906000526020600020905b8154815290600101906020018083116104d657829003601f168201915b50505050509250818054600181600116156101000203166002900480601f01602080910402602001604051908101604052809291908181526020018280546001816001161561010002031660029004801561058f5780601f106105645761010080835404028352916020019161058f565b820191906000526020600020905b81548152906001019060200180831161057257829003601f168201915b50505050509150808054600181600116156101000203166002900480601f01602080910402602001604051908101604052809291908181526020018280546001816001161561010002031660029004801561062b5780601f106106005761010080835404028352916020019161062b565b820191906000526020600020905b81548152906001019060200180831161060e57829003601f168201915b50505050509050955095509550955095509550909192939495565b60608160068054905011151561065b57600080fd5b60068281548110151561066a57fe5b906000526020600020018054600181600116156101000203166002900480601f0160208091040260200160405190810160405280929190818152602001828054600181600116156101000203166002900480156107085780601f106106dd57610100808354040283529160200191610708565b820191906000526020600020905b8154815290600101906020018083116106eb57829003601f168201915b50505050509050919050565b6000809054906101000a900473ffffffffffffffffffffffffffffffffffffffff1673ffffffffffffffffffffffffffffffffffffffff163373ffffffffffffffffffffffffffffffffffffffff1614151561076f57600080fd5b6000809054906101000a900473ffffffffffffffffffffffffffffffffffffffff1673ffffffffffffffffffffffffffffffffffffffff167ff8df31144d9c2f0f6b59d69b8b98abd5459d07f2742c4df920b25aae33c6482060405160405180910390a260008060006101000a81548173ffffffffffffffffffffffffffffffffffffffff021916908373ffffffffffffffffffffffffffffffffffffffff160217905550565b6000809054906101000a900473ffffffffffffffffffffffffffffffffffffffff1681565b6000809054906101000a900473ffffffffffffffffffffffffffffffffffffffff1673ffffffffffffffffffffffffffffffffffffffff163373ffffffffffffffffffffffffffffffffffffffff1614151561089657600080fd5b61089f816108a2565b50565b600073ffffffffffffffffffffffffffffffffffffffff168173ffffffffffffffffffffffffffffffffffffffff16141515156108de57600080fd5b8073ffffffffffffffffffffffffffffffffffffffff166000809054906101000a900473ffffffffffffffffffffffffffffffffffffffff1673ffffffffffffffffffffffffffffffffffffffff167f8be0079c531659141344cd1fd0a4f28419497f9722a3daafe3b4186f6b6457e060405160405180910390a3806000806101000a81548173ffffffffffffffffffffffffffffffffffffffff021916908373ffffffffffffffffffffffffffffffffffffffff160217905550505600a165627a7a723058200dc4d58e15ccd3d06172b209ab84be38283e70442f61f96d5a6983d3c93b35b50029",
  "source": "pragma solidity ^0.4.18;\n\n// DEV Imports - just to test contract in remix\n// import \"github.com/OpenZeppelin/zeppelin-solidity/contracts/ownership/Ownable.sol\";\n// import \"github.com/OpenZeppelin/zeppelin-solidity/contracts/math/SafeMath.sol\";\n// TODO: Fix this import, do not load in remix for some reason\n//import \"https://github.com/zeppelinos/zos/blob/master/packages/lib/contracts/migrations/Migratable.sol\";\n\n\nimport \"zos-lib/contracts/migrations/Migratable.sol\";\nimport \"openzeppelin-solidity/contracts/ownership/Ownable.sol\";\nimport \"openzeppelin-solidity/contracts/math/SafeMath.sol\";\n\n\ncontract FindRequestFactory is Ownable, Migratable {\n    address[] private deployedFindRequest;\n    uint private findRequestCount;\n\n    event newFindRequestCreated(address newAddress);\n\n    function initialize() public isInitializer(\"FindRequestFactory\", \"0\")  {\n      findRequestCount = 0;\n    }\n\n    function createFindRequest(uint8 _age, string _location, string _lost_date, string _description) public payable {\n        // TODO > put some requirements for de parameters\n\n        // Create new Find Request contract and get deployed address\n        address newFindRequest = new FindRequest(msg.sender, _age, _location, _lost_date, _description);\n\n        // Save new contract address and increment total counter\n        deployedFindRequest.push(newFindRequest);\n        findRequestCount = deployedFindRequest.length;\n\n        // Transfer the created contract the initial amount\n        newFindRequest.transfer(msg.value);\n\n        // Send Find Request Created event\n        emit newFindRequestCreated(newFindRequest);\n    }\n\n\n    function getFindRequest(uint findRequestNumber) public view returns (address) {\n        require(findRequestCount > findRequestNumber);\n        return deployedFindRequest[findRequestNumber];\n    }\n\n    // Return a summary tuple of relevant variables of the factory contract\n    function getSummary() public view returns (address, uint, uint) {\n        return (\n          owner,\n          this.balance,\n          findRequestCount\n        );\n    }\n\n    // Default function to withdraw balance from factory contract\n    function withdraw(uint amount) public onlyOwner returns(bool) {\n        require(amount <= address(this).balance);\n        owner.transfer(amount);\n        return true;\n    }\n\n    // Default anonymous function allow deposits to the contract\n    function () public payable {\n    }\n}\n\ncontract FindRequest is Ownable {\n    uint8 private age;\n    string private location;\n    string private lost_date;\n    string private description;\n    address private curator;\n    uint private initialIncentive;\n\n    string[] private knownLocations;\n    string[] private receivedHints;\n\n\n    // FindRequest constructor\n    constructor (address _owner, uint8 _age, string _location, string _lost_date, string _description) public payable {\n        owner = _owner;\n        age = _age;\n        location = _location;\n        lost_date = _lost_date;\n        description = _description;\n        curator = msg.sender;\n        initialIncentive = msg.value;\n    }\n\n    // Return a summary tuple of relevant variables of the factory contract\n    function getSummary() public view returns(address,uint,uint,string,string,string) {\n        return (\n          owner,\n          this.balance,\n          age,\n          location,\n          lost_date,\n          description\n        );\n    }\n\n    function getCurator() public view returns(address) {\n      return curator;\n    }\n\n    function getKnownLocations(uint knownLocationNumber) public view returns(string) {\n        require(knownLocations.length > knownLocationNumber);\n        return knownLocations[knownLocationNumber];\n    }\n\n}\n",
  "sourcePath": "/home/marto/projects/find-them/on-chain/contracts/FindRequestFactory.sol",
  "compiler": {
    "name": "solc",
    "version": "0.4.24+commit.e67f0147.Emscripten.clang"
  },
  "schemaVersion": "2.0.1",
  "updatedAt": "2018-09-08T13:13:55.383Z"
}